:100000000C9462000C948A000C948A000C948A0070
:100010000C948A000C948A000C948A000C948A0038
:100020000C948A000C948A000C948A000C948A0028
:100030000C948A000C948A000C948A000C948A0018
:100040000C94FC040C948A000C94CA040C94A40430
:100050000C948A000C948A000C948A000C948A00F8
:100060000C948A000C948A000000000024002700F1
:100070002A0000000000250028002B0000000000DE
:1000800023002600290004040404040404040202DA
:100090000202020203030303030301020408102007
:1000A0004080010204081020010204081020000012
:1000B0000008000201000003040700000000000027
:1000C0000000460511241FBECFEFD8E0DEBFCDBF34
:1000D00011E0A0E0B1E0E0E4FFE002C005900D9285
:1000E000A839B107D9F722E0A8E9B1E001C01D9213
:1000F000AA36B207E1F710E0C2E6D0E004C02197CB
:10010000FE010E949307C136D107C9F70E949105ED
:100110000C949E070C940000CF92DF92EF92FF9216
:100120000F931F93CF93DF936C017A018B01C0E093
:10013000D0E0CE15DF0589F0D8016D918D01D60193
:10014000ED91FC910190F081E02DC6010995892B7C
:1001500011F47E0102C02196ECCFC701DF91CF914F
:100160001F910F91FF90EF90DF90CF900895FC01C9
:10017000538D448D252F30E0842F90E0821B930B0C
:10018000541710F0CF96089501970895FC01918DB2
:10019000828D981761F0828DDF01A80FB11D5D96E9
:1001A0008C91928D9F5F9F73928F90E008958FEF57
:1001B0009FEF0895FC01918D828D981731F0828D0B
:1001C000E80FF11D858D90E008958FEF9FEF089562
:1001D000FC01918D228D892F90E0805C9F4F821BC6
:1001E00091098F739927089585EB91E00E94E800AB
:1001F00021E0892B09F420E0822F0895FC01848DF1
:10020000DF01A80FB11DA35ABF4F2C91848D90E040
:1002100001968F739927848FA689B7892C93A0891B
:10022000B1898C9180648C93938D848D981306C0D2
:100230000288F389E02D80818F7D80830895EF927D
:10024000FF920F931F93CF93DF93EC0181E0888F90
:100250009B8D8C8D981305C0E889F989808185FD77
:1002600024C0F62E0B8D10E00F5F1F4F0F73112768
:10027000E02E8C8DE8120CC00FB607FCFACFE8898F
:10028000F989808185FFF5CFCE010E94FE00F1CF74
:100290008B8DFE01E80FF11DE35AFF4FF0820B8FAB
:1002A000EA89FB898081806207C0EE89FF896083CB
:1002B000E889F98980818064808381E090E0DF9122
:1002C000CF911F910F91FF90EF900895CF93DF93FF
:1002D000EC01888D8823C9F0EA89FB89808185FD3E
:1002E00005C0A889B9898C9186FD0FC00FB607FC9F
:1002F000F5CF808185FFF2CFA889B9898C9185FFE0
:10030000EDCFCE010E94FE00E7CFDF91CF9108959F
:1003100080E090E0892B29F00E94F40081110C9478
:1003200000000895833081F028F4813099F0823004
:10033000A1F008958730A9F08830B9F08430D1F465
:10034000809180008F7D03C0809180008F778093A3
:100350008000089584B58F7702C084B58F7D84BDF9
:1003600008958091B0008F7703C08091B0008F7D99
:100370008093B00008951F93CF93DF93282F30E030
:10038000F901E255FF4F8491F901E656FF4FD491F0
:10039000F901EA57FF4FC491CC23C9F0162F811100
:1003A0000E949201EC2FF0E0EE0FFF1FEE58FF4F7E
:1003B000A591B4918FB7F894111105C09C91ED2FC0
:1003C000E095E92302C0EC91ED2BEC938FBFDF9118
:1003D000CF911F910895CF93DF9390E0FC01E656F3
:1003E000FF4F2491FC01EA57FF4F8491882361F16C
:1003F00090E0880F991FFC01E859FF4FC591D491F7
:10040000FC01EE58FF4FA591B491611109C09FB74F
:10041000F8948881209582238883EC912E230BC049
:10042000623061F49FB7F8943881822F80958323DE
:100430008883EC912E2B2C939FBF06C08FB7F89426
:10044000E8812E2B28838FBFDF91CF9108953FB78E
:10045000F89480919D0190919E01A0919F01B0918F
:10046000A00126B5A89B05C02F3F19F00196A11D3C
:10047000B11D3FBFBA2FA92F982F8827820F911D3A
:10048000A11DB11DBC01CD0142E0660F771F881F81
:10049000991F4A95D1F70895CF93DF93EC0160E05F
:1004A0008E810E94BB0161E08E810E94BB0160E0F1
:1004B0008E810E94BB018BE891E00197F1F7DF91FB
:1004C000CF910895CF92DF92EF92FF920F931F93F7
:1004D000CF93DF937C016C0187E0C80ED11CC0E094
:1004E000D0E0062F10E0B8010C2E02C0759567957C
:1004F0000A94E2F76170F60181916F010E94BB01DD
:100500002196C430D10579F7C701DF91CF911F91B2
:100510000F91FF90EF90DF90CF900C944C02CF9210
:10052000DF92EF92FF920F931F93CF93DF93EC0133
:10053000F62E642F8C810E94BB018D818F3F19F0B4
:1005400060E00E94BB018F850F2D10E084FF25C065
:100550006E0187E0C80ED11CE12CF12CB8010E2CE5
:1005600002C0759567950A94E2F76170F601819172
:100570006F010E94BB01FFEFEF1AFF0A88E0E81647
:10058000F10461F7CE01DF91CF911F910F91FF90A0
:10059000EF90DF90CF900C944C02B80184E07595F9
:1005A00067958A95E1F7CE010E9462026F2DCE0118
:1005B000DF91CF911F910F91FF90EF90DF90CF903F
:1005C0000C94620241E00E948F0281E090E0089565
:1005D00040E00C948F02E0916502E23010F4E150AB
:1005E00001C0E1E0F0E0EE5AFD4F6489606882E509
:1005F00092E00C94E80262E082E592E00E94E80258
:100600008BE39FE10197F1F7089561E00E94E80212
:100610008BE39FE10197F1F70895EF92FF920F931B
:100620001F93CF93DF93EC01623018F08F858860C1
:100630008F876B8B1C8A80E48D8B80E18E8B80E5AD
:100640008F8B61E08C810E94EB018D818F3F19F0CF
:1006500061E00E94EB0161E08E810E94EB017E016E
:1006600087E0E80EF11C00E010E08F8584FD03C0F8
:1006700084E090E002C088E090E0081719074CF48D
:1006800061E0F70181917F010E94EB010F5F1F4F35
:10069000ECCF8BE39DE00197F1F760E08C810E9445
:1006A000BB0160E08E810E94BB018D818F3F19F0FC
:1006B00060E00E94BB016F8564FD1DC063E0CE0158
:1006C0000E9462020BE416E4C8010197F1F763E0AF
:1006D000CE010E946202C8010197F1F763E0CE01EA
:1006E0000E94620283E592E00197F1F762E0CE0199
:1006F0000E94620216C06062CE010E94E8028BE492
:1007000096E40197F1F76F856062CE010E94E802DE
:1007100083E592E00197F1F76F856062CE010E9458
:10072000E8026F856062CE010E94E80284E0888B57
:100730006CE0CE010E94E802CE010E94050382E037
:10074000898B66E0CE01DF91CF911F910F91FF90D1
:10075000EF900C94E802089580E090E00895809175
:10076000B301882349F08091B00190E00196817037
:1007700099278093B00108958091B101882349F0B1
:100780008091AF0190E00196817099278093AF012D
:1007900008958091B201882341F08091AE0190E0EC
:1007A0000196817099278093AE0108950E94990760
:1007B0006115710579F0FB0101900020E9F731978F
:1007C000AF01461B570BDC01ED91FC910280F381D8
:1007D000E02D099480E090E00895BC0182E592E06C
:1007E0000C94D80382E592E00E9405030E94FB026C
:1007F00089E291E00E94ED038091B301882309F121
:1008000084E391E00E94ED030E94EB028091B0012D
:10081000882319F0813071F0089588E391E00E94F7
:10082000ED038091AD01882309F44BC08BE391E087
:100830000C94ED038DE391E00E94ED038091AD01F6
:100840003DC08091B1018823D9F081E491E00E94FC
:10085000ED030E94EB028091AF01882319F08130F3
:1008600041F0089588E391E00E94ED038091AC018E
:10087000DACF8DE391E00E94ED038091AC011EC0C0
:100880008091B2018823E9F087E491E00E94ED03B2
:100890000E94EB028091AE01882319F0813041F073
:1008A000089588E391E00E94ED038091AB01BBCFF6
:1008B0008DE391E00E94ED038091AB01882309F460
:1008C000B5CF0895CF93DF93E091B501F091B601D4
:1008D0000190F081E02D682F85EB91E00995EC0106
:1008E0006CE471E085EB91E00E94D8038C0F9D1FB2
:1008F000DF91CF91089582E592E00E9405030E9466
:10090000FB028FE491E00E94ED030E94EB028091D4
:10091000B401813049F028F0823051F489E691E049
:1009200005C08DE591E002C082E691E00C94ED03F4
:100930006FE671E085EB91E00E94D8036CE471E012
:1009400085EB91E00C94D8031F920F920FB60F9293
:1009500011242F933F934F935F936F937F938F93C4
:100960009F93AF93BF93EF93FF9385EB91E00E942A
:10097000FE00FF91EF91BF91AF919F918F917F9179
:100980006F915F914F913F912F910F900FBE0F90FC
:100990001F9018951F920F920FB60F9211242F934C
:1009A0008F939F93EF93FF93E091C501F091C60160
:1009B0008081E091CB01F091CC0182FD12C0908149
:1009C0008091CE018F5F8F732091CF01821751F0FC
:1009D000E091CE01F0E0EB54FE4F958F8093CE0175
:1009E00001C08081FF91EF919F918F912F910F9086
:1009F0000FBE0F901F9018951F920F920FB60F9277
:100A000011242F933F938F939F93AF93BF93809124
:100A1000990190919A01A0919B01B0919C01309114
:100A2000980123E0230F2D3720F40196A11DB11D5D
:100A300005C026E8230F0296A11DB11D2093980141
:100A40008093990190939A01A0939B01B0939C018C
:100A500080919D0190919E01A0919F01B091A00174
:100A60000196A11DB11D80939D0190939E01A093BD
:100A70009F01B093A001BF91AF919F918F913F9142
:100A80002F910F900FBE0F901F901895E5EBF1E09E
:100A90001382128288EE93E0A0E0B0E08483958315
:100AA000A683B7838FE091E09183808385EC90E00B
:100AB0009587848784EC90E09787868780EC90E028
:100AC000918B808B81EC90E0938B828B82EC90E019
:100AD000958B848B86EC90E0978B868B118E128E93
:100AE000138E148EE2E5F2E01382128281E291E02D
:100AF0009183808387E084838FEF858386E086837C
:100B000085E0878384E0808783E0818782E0828735
:100B10001386148615861686178661E0CF010C941D
:100B20000D03CF93DF9300D01F92CDB7DEB778943B
:100B300084B5826084BD84B5816084BD85B58260E2
:100B400085BD85B5816085BD80916E008160809393
:100B50006E001092810080918100826080938100FC
:100B6000809181008160809381008091800081600C
:100B7000809380008091B10084608093B100809167
:100B8000B00081608093B00080917A00846080938F
:100B90007A0080917A00826080937A0080917A0056
:100BA000816080937A0080917A00806880937A00D7
:100BB0001092C10061E08EE00E94EB0161E08FE0E5
:100BC0000E94EB0161E080E10E94EB0106E011E090
:100BD00060E0F80181918F010E94EB01F1E00B30A0
:100BE0001F07B1F762E082E592E00E940D0382E503
:100BF00092E00E9405030E94FB028CE891E00E94B3
:100C0000ED030E947B04E091C501F091C60182E0F2
:100C10008083E091C101F091C2011082E091C30193
:100C2000F091C4018FEC80831092CD01E091C90155
:100C3000F091CA0186E08083E091C701F091C8017C
:100C4000808180618083E091C701F091C80180813B
:100C500088608083E091C701F091C801808180683D
:100C60008083E091C701F091C80180818F7D8083EE
:100C700001E033E0632E712C90E044E050E0FA0193
:100C8000EA5FFE4F208130E0F901E255FF4F849189
:100C9000F901E656FF4FF490F901EA57FF4F14911E
:100CA0001123D9F0882341F049835A839B830E9402
:100CB00092019B815A814981E12FF0E0EE0FFF1FE5
:100CC000E458FF4FA591B491EC91EF2161E080E0F1
:100CD00009F460E0262F382F02C020E030E0822F98
:100CE000FA01EA55FE4F2083FA01EF55FE4F2130FD
:100CF000310539F42081213021F0DA01AF5FBE4F98
:100D00009C9180834150510908F0B9CF943409F483
:100D1000A2C01CF4933441F0B5C09C3409F479C0EE
:100D2000923509F487C0AEC083E40E9462048091CA
:100D30000001882329F1109200018091B4018130D3
:100D400069F038F0823079F40093B2011092AE016C
:100D50006EC00093B3011092B00169C08093B101DD
:100D60001092AF0164C06FE671E085EB91E00E94E4
:100D7000D8036CE471E085EB91E00E94D80357C082
:100D80008091B3018823A9F08091B001882351F0AC
:100D9000813009F04CC060E08EE00E94BB011092EF
:100DA000AD0145C061E08EE00E94BB010093AD0142
:100DB0003EC08091B1018823A1F08091AF018823CA
:100DC00049F08130A1F560E08FE00E94BB011092F4
:100DD000AC012DC061E08FE00E94BB010093AC012B
:100DE00026C08091B201882311F18091AE01882341
:100DF00049F08130E1F460E080E10E94BB01109293
:100E0000AB0115C061E080E10E94BB010093AB0122
:100E10000EC08CE40E94620480910001882329F0B6
:100E20008091B40190E0029610C00E94AF030E942E
:100E3000F20328C082E50E946204809100018823A9
:100E4000A1F38091B40190E00196B3010E946B0779
:100E50008093B40115C084E40E9462048091000173
:100E6000811110C01092B3011092B2011092B10121
:100E70001092B0011092AF011092AE0100930001E8
:100E80000E947B040E9427024B015C0184E6C82E6D
:100E9000D12CE12CF12C0E942702DC01CB01881916
:100EA0009909AA09BB09883E9340A105B10558F0EC
:100EB00081E0C81AD108E108F108E8EE8E0EE3E0FF
:100EC0009E1EA11CB11CC114D104E104F10419F748
:100ED0000E948801D1CE97FB072E16F4009407D00C
:100EE00077FD09D00E947F0707FC05D03EF490955E
:100EF00081959F4F0895709561957F4F0895AA1B26
:100F0000BB1B51E107C0AA1FBB1FA617B70710F0F4
:100F1000A61BB70B881F991F5A95A9F78095909526
:100F2000BC01CD010895EE0FFF1F0590F491E02D57
:100F3000099481E090E0F8940C949E07F894FFCF18
:100F400001434C44555208090A0B0C000000001FD5
:100F5000018C00B7006601E800C600DA000000005E
:100F600000E2028C00AC03AB03535542204D454ECA
:100F7000553A2000524544004F6E002A004F6666E5
:100F800000475245454E00424C5545000D0A00525F
:100F90004742204D41494E204D454E55003E526539
:100FA00064003E477265656E003E426C756500499F
:100FB0006E76616C6964206D61696E206D656E7519
:100FC00020706167652076616C7565004C6F6164A7
:080FD000696E672E2E2E000051
:00000001FF
