:100000000C945E000C9486000C9486000C94860080
:100010000C9486000C9486000C9486000C94AC0220
:100020000C9486000C9486000C9486000C94860038
:100030000C9486000C9486000C9486000C94860028
:100040000C9460030C9486000C942E030C9408030B
:100050000C9486000C9486000C9486000C94860008
:100060000C9486000C948600000000080002010039
:100070000003040700000000000000000200000070
:1000800000250028002B0000000000240027002A83
:100090000004040404040404040202020202020331
:1000A000030303030301020408102040800102043B
:1000B00008102001020408102000F80611241FBEB9
:1000C000CFEFD8E0DEBFCDBF11E0A0E0B1E0E6EEBB
:1000D000FEE002C005900D92A631B107D9F721E0EC
:1000E000A6E1B1E001C01D92A13DB207E1F710E029
:1000F000CEE5D0E004C02197FE010E946607CD3511
:10010000D107C9F70E94AA030C9471070C94000050
:10011000E8EAF0E02491E4E9F0E08491882399F0A2
:1001200090E0880F991FFC01E957FF4FA591B4910A
:10013000FC01E358FF4F859194918FB7F894EC91AF
:10014000E22BEC938FBF089590910001981324C087
:10015000ECE7F0E0E4919FEF90930001E130B9F01B
:1001600098F0E230C9F4909170009D7F90937000F8
:1001700091E09093B0009091B100987F946090933B
:10018000B1001092B30008C010926E0005C09091AB
:100190006F009D7F90936F0090E0FC01E859FF4F46
:1001A0002491FC01EB55FF4F3491FC01EF56FF4FBA
:1001B000E491EE23B9F1222339F1233091F038F4A0
:1001C0002130A9F0223001F584B58F7D12C027308F
:1001D00091F02830A1F02430B9F4809180008F7D17
:1001E00003C0809180008F77809380000DC084B51C
:1001F0008F7784BD09C08091B0008F7703C0809154
:10020000B0008F7D8093B000F0E0EE0FFF1FE35849
:10021000FF4FA591B4918FB7F894EC9130953E23A0
:100220003C938FBF0895CF92DF92EF92FF920F938E
:100230001F93CF93DF936C017A018B01C0E0D0E074
:10024000CE15DF0589F0D8016D918D01D601ED91B4
:10025000FC910190F081E02DC6010995892B11F4E4
:100260007E0102C02196ECCFC701DF91CF911F9193
:100270000F91FF90EF90DF90CF900895089580E068
:1002800090E00895FC01538D448D252F30E0842F9C
:1002900090E0821B930B541710F0CF9608950197AE
:1002A0000895FC01918D828D981761F0828DDF0198
:1002B000A80FB11D5D968C91928D9F5F9F73928F59
:1002C00090E008958FEF9FEF0895FC01918D828D4E
:1002D000981731F0828DE80FF11D858D90E008951B
:1002E0008FEF9FEF0895FC01918D228D892F90E073
:1002F000805C9F4F821B91098F739927089584E337
:1003000091E00E94730121E0892B09F420E0822F03
:100310000895FC01848DDF01A80FB11DA35ABF4FC2
:100320002C91848D90E001968F739927848FA689F4
:10033000B7892C93A089B1898C9180648C93938D1B
:10034000848D981306C00288F389E02D80818F7D0B
:1003500080830895EF92FF920F931F93CF93DF93C3
:10036000EC0181E0888F9B8D8C8D981305C0E88906
:10037000F989808185FD24C0F62E0B8D10E00F5F7A
:100380001F4F0F731127E02E8C8DE8120CC00FB693
:1003900007FCFACFE889F989808185FFF5CFCE0186
:1003A0000E948901F1CF8B8DFE01E80FF11DE35A08
:1003B000FF4FF0820B8FEA89FB898081806207C042
:1003C000EE89FF896083E889F98980818064808370
:1003D00081E090E0DF91CF911F910F91FF90EF901E
:1003E0000895CF93DF93EC01888D8823C9F0EA89C3
:1003F000FB89808185FD05C0A889B9898C9186FD1E
:100400000FC00FB607FCF5CF808185FFF2CFA8891A
:10041000B9898C9185FFEDCFCE010E948901E7CF8C
:10042000DF91CF91089580E090E0892B29F00E9420
:100430007F0181110C94000008958E3008F08E50D9
:100440008770806480937C0080917A0080648093C0
:100450007A0080917A0086FDFCCF8091780020910F
:10046000790090E0922B08953FB7F89480911B019A
:1004700090911C01A0911D01B0911E0126B5A89B71
:1004800005C02F3F19F00196A11DB11D3FBFBA2F26
:10049000A92F982F8827820F911DA11DB11DBC0186
:1004A000CD0142E0660F771F881F991F4A95D1F74B
:1004B00008958F929F92AF92BF920F931F93CF9305
:1004C000DF93CDB7DEB7A1970FB6F894DEBF0FBEAE
:1004D000CDBF19A2423008F44AE08E010F5D1F4FD4
:1004E000842E912CA12CB12CA50194010E942507EA
:1004F000E62FB901CA0101501109EA3014F4E05D98
:1005000001C0E95CD801EC93232B242B252B61F748
:100510000115110571F0F80101900020E9F73197FC
:10052000AF01401B510BB80184E391E00E9413011D
:1005300002C080E090E0A1960FB6F894DEBF0FBE37
:10054000CDBFDF91CF911F910F91BF90AF909F9042
:100550008F9008950E946C071F920F920FB60F9212
:1005600011242F933F934F935F936F937F938F93B8
:100570009F93AF93BF93EF93FF938091300190913E
:100580003101A0913201B0913301892B8A2B8B2B41
:1005900051F180912F01E0912D01F0912E01908178
:1005A000892780838091300190913101A09132019F
:1005B000B0913301181619061A061B06C4F480916F
:1005C000300190913101A0913201B0913301019736
:1005D000A109B1098093300190933101A0933201B8
:1005E000B093330104C0809100010E94A400FF91E8
:1005F000EF91BF91AF919F918F917F916F915F919B
:100600004F913F912F910F900FBE0F901F90189513
:100610001F920F920FB60F9211242F933F934F9377
:100620005F936F937F938F939F93AF93BF93EF935A
:10063000FF9384E391E00E948901FF91EF91BF91C4
:10064000AF919F918F917F916F915F914F913F916A
:100650002F910F900FBE0F901F9018951F920F9221
:100660000FB60F9211242F938F939F93EF93FF93C5
:10067000E0914401F09145018081E0914A01F091BF
:100680004B0182FD12C0908180914D018F5F8F736D
:1006900020914E01821751F0E0914D01F0E0EC5CA9
:1006A000FE4F958F80934D0101C08081FF91EF91A6
:1006B0009F918F912F910F900FBE0F901F901895C3
:1006C0001F920F920FB60F9211242F933F938F9387
:1006D0009F93AF93BF938091170190911801A091C0
:1006E0001901B0911A013091160123E0230F2D3723
:1006F00020F40196A11DB11D05C026E8230F029626
:10070000A11DB11D2093160180931701909318012C
:10071000A0931901B0931A0180911B0190911C01C3
:10072000A0911D01B0911E010196A11DB11D8093E4
:100730001B0190931C01A0931D01B0931E01BF915A
:10074000AF919F918F913F912F910F900FBE0F907E
:100750001F901895CF93DF93CDB7DEB728970FB6CC
:10076000F894DEBF0FBECDBF789484B5826084BD9F
:1007700084B5816084BD85B5826085BD85B58160A5
:1007800085BD80916E00816080936E001092810023
:1007900080918100826080938100809181008160DE
:1007A000809381008091800081608093800080919F
:1007B000B10084608093B1008091B000816080932B
:1007C000B00080917A00846080937A0080917A00F2
:1007D000826080937A0080917A00816080937A00B1
:1007E00080917A00806880937A001092C1000E9404
:1007F0008800E0914401F091450182E08083E0911E
:100800004001F09141011082E0914201F0914301D9
:100810008FEC808310924C01E0914801F0914901E6
:1008200086E08083E0914601F091470180818061FC
:100830008083E0914601F091470180818860808348
:10084000E0914601F0914701808180688083E091CA
:100850004601F091470180818F7D808388248A94AE
:10086000982C540198E4492E98EE592E66246394EE
:10087000712C8EE00E941D028C018FE00E941D02EF
:10088000083C110524F1043021E012071CF1063563
:1008900061E0160724F1063D21E012072CF1033038
:1008A00062E0160734F10E3422E012073CF10C36F8
:1008B00062E0160744F10E3D23E012074CF1023FBF
:1008C00013405CF10BE4202E02E0302E2AC0212CD4
:1008D000312C27C016E0212E3324339422C0B6E2F7
:1008E0002B2E332433941DC0AAE42A2E33243394B0
:1008F00018C0FDE52F2E3324339413C0E8E82E2EC4
:10090000332433940EC078EB272E3324339409C05C
:100910006DEE262E3324339404C05BE0252E52E086
:10092000352E45E0489F9001499F300D112437FF37
:1009300002C021503C4F232F330F330B25952595B3
:100940002F5F3F4F229D8001239D100D329D100D82
:1009500011246801012E000CEE08FF0817FF14C0D7
:10096000E0913401F09135010190F081E02D6DE2CC
:1009700084E391E0099566277727CB016C197D09FF
:100980008E099F094AE003C04AE0C701B6010E94F0
:10099000590242E050E063E171E084E391E00E949B
:1009A0001301232821F483E00E94A4009BC18091BD
:1009B0000001833021F4ECE7F0E0349079C08F3F00
:1009C00009F090C183E080930001ECE7F0E0E4914E
:1009D000EF3F09F487C1E13011F1E23009F443C07F
:1009E000E11165C014BC15BC84B5826084BD85B5B9
:1009F000816085BDE4E9F0E0E491F0E0EE0FFF1FD7
:100A0000E358FF4F859194919093240180932301A3
:100A1000E8EAF0E0E491E0932201312C4BC010921F
:100A20008000109281008091810088608093810015
:100A300080918100816080938100E4E9F0E0E4919D
:100A4000F0E0EE0FFF1FE358FF4F859194919093D4
:100A5000210180932001E8EAF0E0E491E0931F0196
:100A60003324339427C01092B0001092B1008091CB
:100A7000B00082608093B0008091B100816080936B
:100A8000B100E4E9F0E0E491F0E0EE0FFF1FE3587D
:100A9000FF4F8591949190932E0180932D01E8EA68
:100AA000F0E0E491E0932F01B2E03B2E03C03E2E34
:100AB00037FC18C10E9488006801E12CF12C832DBD
:100AC0008D7F09F0AAC060E072E18AE790E0A7019B
:100AD00096010E94470729833A834B835C83BA01BE
:100AE000A90141505109610971094F3F5105610543
:100AF000710509F008F444C060E472E48FE090E00E
:100B0000A70196010E944707BA01A9014150510966
:100B10006109710982E038121DC04F3F510561051E
:100B2000710509F008F462C160E970ED83E090E0BE
:100B3000A70196010E944707BA01A9014150510936
:100B4000610971094F3F51056105710509F0A8F56B
:100B500083E05CC04F3F51056105710599F090F04D
:100B6000C301B201A70196010E944707BA01A9017A
:100B70004150510961097109332009F4E4C02EC1C3
:100B800081E001C082E0332099F040C089819A81E0
:100B9000AB81BC812AE0B595A795979587952A9555
:100BA000D1F7AC01BD01415051096109710985E0DE
:100BB00095B5987F892B85BD65C0C301B201A7019A
:100BC00096010E944707BA01A901415051096109E4
:100BD00071094F3F51056105710509F008F4B1C075
:100BE00064E274EF80E090E0A70196010E9447075D
:100BF000BA01A90141505109610971094F3F5105DD
:100C00006105710511F008F0BDC085E09091B1005B
:100C1000987F892B8093B1002DC060E072E18AE754
:100C200090E0A70196010E944707BA01A90141502F
:100C30005109610971094115510521E062077105EA
:100C400070F0C301B201A70196010E944707BA01E3
:100C5000A901415051096109710993E001C091E076
:100C600081E0381207C080918100887F892B8093B2
:100C7000810017C021E03216A1F082E0381619F188
:100C8000311030C047BD8092290190922A01A09274
:100C90002B01B0922C0180916E00826080936E00D7
:100CA00021C0509389004093880080922501909242
:100CB0002601A0922701B092280180916F008260E6
:100CC00080936F000FC04093B300809230019092E8
:100CD0003101A0923201B0923301809170008260A4
:100CE000809370000E9434029B01AC0164E6C62E22
:100CF000D12CE12CF12C2D833E834F8358870E9409
:100D000034022D813E814F815885DC01CB01821B4D
:100D1000930BA40BB50B883E9340A105B10548F099
:100D200061E0C61AD108E108F10828513C4F4F4F45
:100D30005F4FC114D104E104F104E9F60E941302EB
:100D400098CD84E063CF4F3F510561057105C1F037
:100D5000B8F062E17AE780E090E0A70196010E9496
:100D60004707BA01A90141505109610971094F3F73
:100D700051056105710511F008F008CF84E018CF26
:100D800083E016CF62E17AE780E090E0A701960168
:100D90000E944707BA01A90141505109610971092F
:100DA0004F3F510561057105B9F0B0F089819A8115
:100DB000AB81BC817AE0B595A795979587957A9593
:100DC000D1F7AC01BD0141505109610971093320CE
:100DD00009F4EDCE87E01ACF86E0D5CE4F3F51051E
:100DE0006105710509F070F684E0CDCE82E00ECF8A
:100DF000E4E3F1E01382128288EE93E0A0E0B0E039
:100E000084839583A683B78385E091E09183808373
:100E100085EC90E09587848784EC90E097878687BF
:100E200080EC90E0918B808B81EC90E0938B828BB7
:100E300082EC90E0958B848B86EC90E0978B868B90
:100E4000118E128E138E148E0895A1E21A2EAA1BF3
:100E5000BB1BFD010DC0AA1FBB1FEE1FFF1FA2176A
:100E6000B307E407F50720F0A21BB30BE40BF50B67
:100E7000661F771F881F991F1A9469F760957095F0
:100E8000809590959B01AC01BD01CF010895052E81
:100E900097FB1EF400940E945E0757FD07D00E9446
:100EA000250707FC03D04EF40C945E07509540953F
:100EB000309521953F4F4F4F5F4F08959095809506
:100EC000709561957F4F8F4F9F4F0895EE0FFF1FD5
:100ED0000590F491E02D099481E090E0F8940C9451
:060EE0007107F894FFCF3A
:100EE600FF00000000AA0113014201F10173015144
:060EF6000165010D0A0078
:00000001FF
