:100000000C9463000C948B000C948B000C948B006C
:100010000C948B000C948B000C948B000C94840437
:100020000C948B000C948B000C948B000C948B0024
:100030000C948B000C948B000C948B000C948B0014
:100040000C9438050C948B000C9406050C94E00479
:100050000C948B000C948B000C948B000C948B00F4
:100060000C948B000C948B000000000023002600F1
:10007000290000000008000201000003040700003E
:100080000000000000000200000000250028002BF6
:100090000000000000240027002A000404040404D7
:1000A0000404040202020202020303030303030125
:1000B00002040810204080010204081020010204FC
:1000C00008102000820511241FBECFEFD8E0DEBF4C
:1000D000CDBF11E0A0E0B1E0E8EBF6E102C0059091
:1000E0000D92AC31B107D9F721E0ACE1B1E001C02C
:1000F0001D92AF3EB207E1F710E0C3E6D0E004C0C6
:100100002197FE010E944F0BC236D107C9F70E940A
:10011000CB050C945A0B0C94000090E0FC01E155C7
:10012000FF4F2491FC01E556FF4F8491882399F0FD
:1001300090E0880F991FFC01EF56FF4FA591B491F5
:10014000FC01E957FF4F859194918FB7F894EC919A
:10015000E22BEC938FBF0895CF92DF92EF92FF9244
:100160000F931F93CF93DF936C017A018B01C0E053
:10017000D0E0CE15DF0589F0D8016D918D01D60153
:10018000ED91FC910190F081E02DC6010995892B3C
:1001900011F47E0102C02196ECCFC701DF91CF910F
:1001A0001F910F91FF90EF90DF90CF9008950895E9
:1001B00080E090E00895FC01538D448D252F30E0C0
:1001C000842F90E0821B930B541710F0CF96089564
:1001D00001970895FC01918D828D981761F0828DB1
:1001E000DF01A80FB11D5D968C91928D9F5F9F736B
:1001F000928F90E008958FEF9FEF0895FC01918D0D
:10020000828D981731F0828DE80FF11D858D90E079
:1002100008958FEF9FEF0895FC01918D228D892F16
:1002200090E0805C9F4F821B91098F7399270895FE
:1002300084E491E00E940C0121E0892B09F420E084
:10024000822F0895FC01848DDF01A80FB11DA35AF0
:10025000BF4F2C91848D90E001968F739927848FE6
:10026000A689B7892C93A089B1898C9180648C93DD
:10027000938D848D981306C00288F389E02D8081C8
:100280008F7D80830895EF92FF920F931F93CF93FA
:10029000DF93EC0181E0888F9B8D8C8D981305C0D6
:1002A000E889F989808185FD24C0F62E0B8D10E048
:1002B0000F5F1F4F0F731127E02E8C8DE8120CC0BB
:1002C0000FB607FCFACFE889F989808185FFF5CF61
:1002D000CE010E942201F1CF8B8DFE01E80FF11DAE
:1002E000E35AFF4FF0820B8FEA89FB89808180629D
:1002F00007C0EE89FF896083E889F989808180647D
:10030000808381E090E0DF91CF911F910F91FF906A
:10031000EF900895CF93DF93EC01888D8823C9F087
:10032000EA89FB89808185FD05C0A889B9898C91FE
:1003300086FD0FC00FB607FCF5CF808185FFF2CF99
:10034000A889B9898C9185FFEDCFCE010E94220149
:10035000E7CFDF91CF91089580E090E0892B29F0DD
:100360000E94180181110C9400000895833081F0DF
:1003700028F4813099F08230A1F008958730A9F0F7
:100380008830B9F08430D1F4809180008F7D03C033
:10039000809180008F7780938000089584B58F7757
:1003A00002C084B58F7D84BD08958091B0008F77A1
:1003B00003C08091B0008F7D8093B00008951F939B
:1003C000CF93DF93282F30E0F901EE58FF4F84914F
:1003D000F901E155FF4FD491F901E556FF4FC49162
:1003E000CC23C9F0162F81110E94B601EC2FF0E04A
:1003F000EE0FFF1FE957FF4FA591B4918FB7F89407
:10040000111105C09C91ED2FE095E92302C0EC91FC
:10041000ED2BEC938FBFDF91CF911F9108959091B9
:100420000401981324C0E6E8F0E0E4919FEF909374
:100430000401E130B9F098F0E230C9F49091700015
:100440009D7F9093700091E09093B0009091B100E7
:10045000987F94609093B1001092B30008C01092FE
:100460006E0005C090916F009D7F90936F0060E0DB
:100470000C94DF018E3008F08E508770806480937A
:100480007C0080917A00806480937A0080917A0069
:1004900086FDFCCF809178002091790090E0922B2E
:1004A00008953FB7F8948091210190912201A09185
:1004B0002301B091240126B5A89B05C02F3F19F058
:1004C0000196A11DB11D3FBFBA2FA92F982F8827D4
:1004D000820F911DA11DB11DBC01CD0142E0660F2F
:1004E000771F881F991F4A95D1F708958F929F9281
:1004F000AF92BF92CF92DF92EF92FF926B017C019D
:100500000E9451024B015C01C114D104E104F104C9
:10051000F1F00E945102DC01CB0188199909AA0966
:10052000BB09883E9340A105B10570F321E0C21AD2
:10053000D108E108F10888EE880E83E0981EA11C1E
:10054000B11CC114D104E104F10419F7DDCFFF900F
:10055000EF90DF90CF90BF90AF909F908F900895D5
:100560008EBD00000DB407FEFDCF8EB508950F932C
:100570001F93CF93C82F01EE11E060E0F80184854E
:100580000E94DF018C2F8E7780680E94B00280E08D
:100590000E94B002C82F61E0F80184850E94DF014B
:1005A0008C2FCF911F910F9108950F931F93CF938D
:1005B000DF93082F162FC1EED1E060E08C850E94FA
:1005C000DF01802F8E770E94B002812F0E94B0023F
:1005D00061E08C85DF91CF911F910F910C94DF0129
:1005E000CF93C82F0E94B702682F60688C2FCF91DD
:1005F0000C94D502CF92DF92FF920F931F93CF936B
:10060000DF931F92CDB7DEB7082F162F60E08091E1
:10061000ED0179830E94DF0182E10E94B002F12E98
:10062000C12E7981D72E8C2D8F19801730F4F601C9
:1006300081916F010E94B002F6CF61E08091ED01DF
:100640000F90DF91CF911F910F91FF90DF90CF908E
:100650000C94DF01EF92FF920F931F93CF93DF93E0
:100660007C01C62F8A0160E082E00E94D50264E02E
:100670008AE00E94D50284E10E94F002B7018C2F2B
:100680000E94FA0263E082E00E94D502C8E8D3E14A
:100690008AE00E94B70282FD04C02197C9F784E076
:1006A0000FC060E082E00E94D50284E40E94B7029D
:1006B000F801808382E40E94B702F801818381E01F
:1006C000DF91CF911F910F91FF90EF9008957F924E
:1006D0008F929F92AF92BF92CF92DF92EF92FF9252
:1006E0000F931F93CF93DF934C01F62EEA0159012C
:1006F00068010115110519F0F801908101C090E021
:10070000192FF0E1EF9E100D112460E082E00E94AD
:10071000D5026FE788E00E94D50284E10E94F002D2
:10072000B4018F2D0E94FA02612F8AE10E94D50246
:100730006CE082E00E94D5028AE10E94F00200EDA6
:1007400017E088E00E94B702982F907331F480FD83
:1007500071C001501109A9F76DC08CE00E94B70269
:10076000F82E837109F068C0209709F45FC0A114C6
:10077000B10409F45BC084E10E94B702182FF501AF
:100780008081811708F45AC01083112309F445C0F1
:1007900060E08091ED010E94DF010FEF010F82E91F
:1007A0000E94B0027C2E8C2E9D2EAA24A394B12CE4
:1007B000882D8719801730F581111BC0EE20C9F0F4
:1007C0009E2D10E0983048F49501092E01C0220FAB
:1007D0000A94EAF7122B9F5FF5CF82E90E94B002DC
:1007E000212F2095988192238123192F182B18836C
:1007F00005C082E90E94B002F4018083FFEF8F1AE6
:100800009F0AD6CFC00FD11D80E00E94B00288831E
:1008100061E08091ED010E94DF0188E10E94B70252
:100820008770C114D10411F0F6018083F3FC08C075
:1008300081E007C084E005C082E003C085E001C01C
:1008400083E0DF91CF911F910F91FF90EF90DF90A8
:10085000CF90BF90AF909F908F907F90089500971A
:1008600069F0FC0101900020E9F73197AF01481BC6
:10087000590BBC0184E491E00C94AC0080E090E062
:1008800008958F929F92AF92BF920F931F93CF9331
:10089000DF93CDB7DEB7A1970FB6F894DEBF0FBEDA
:1008A000CDBF19A2423008F44AE08E010F5D1F4F00
:1008B000842E912CA12CB12CA50194010E940E0B29
:1008C000E62FB901CA0101501109EA3014F4E05DC4
:1008D00001C0E95CD801EC93232B242B252B61F775
:1008E000C8010E942F04A1960FB6F894DEBF0FBE78
:1008F000CDBFDF91CF911F910F91BF90AF909F908F
:100900008F9008950E94550B1F920F920FB60F9271
:1009100011242F933F934F935F936F937F938F9304
:100920009F93AF93BF93EF93FF938091400190917A
:100930004101A0914201B0914301892B8A2B8B2B5D
:1009400051F180913F01E0913D01F0913E01908194
:10095000892780838091400190914101A0914201BB
:10096000B0914301181619061A061B06C4F48091AB
:10097000400190914101A0914201B0914301019742
:10098000A109B1098093400190934101A0934201D4
:10099000B093430104C0809104010E940F02FF91B3
:1009A000EF91BF91AF919F918F917F916F915F91E7
:1009B0004F913F912F910F900FBE0F901F90189560
:1009C0001F920F920FB60F9211242F933F934F93C4
:1009D0005F936F937F938F939F93AF93BF93EF93A7
:1009E000FF9384E491E00E942201FF91EF91BF9177
:1009F000AF919F918F917F916F915F914F913F91B7
:100A00002F910F900FBE0F901F9018951F920F926D
:100A10000FB60F9211242F938F939F93EF93FF9311
:100A2000E0915401F09155018081E0915A01F091DB
:100A30005B0182FD12C0908180915D018F5F8F7399
:100A400020915E01821751F0E0915D01F0E0EC5BD6
:100A5000FE4F958F80935D0101C08081FF91EF91E2
:100A60009F918F912F910F900FBE0F901F9018950F
:100A70001F920F920FB60F9211242F933F938F93D3
:100A80009F93AF93BF9380911D0190911E01A09100
:100A90001F01B091200130911C0123E0230F2D375D
:100AA00020F40196A11DB11D05C026E8230F029672
:100AB000A11DB11D20931C0180931D0190931E0167
:100AC000A0931F01B09320018091210190912201F8
:100AD000A0912301B09124010196A11DB11D809325
:100AE000210190932201A0932301B0932401BF918F
:100AF000AF919F918F913F912F910F900FBE0F90CB
:100B00001F901895CF93DF93E4E4F1E013821282F3
:100B100088EE93E0A0E0B0E084839583A683B7835A
:100B200089E091E09183808385EC90E095878487CC
:100B300084EC90E09787868780EC90E0918B808BA7
:100B400081EC90E0938B828B82EC90E0958B848B90
:100B500086EC90E0978B868B118E128E138E148EFE
:100B6000C1EED1E08AE08C870E948D0061E08C8527
:100B70000E94DF0189E08D870E948D0060E08D85F5
:100B80000E94DF018CB58F7D8CBD8CB5837F8CBDC1
:100B9000DF91CF910895CF93DF93CDB7DEB72D9737
:100BA0000FB6F894DEBF0FBECDBF789484B58260D7
:100BB00084BD84B5816084BD85B5826085BD85B501
:100BC000816085BD80916E00816080936E0010927F
:100BD00081008091810082608093810080918100FA
:100BE000816080938100809180008160809380008B
:100BF0008091B10084608093B1008091B0008160E9
:100C00008093B00080917A00846080937A00809114
:100C10007A00826080937A0080917A00816080936C
:100C20007A0080917A00806880937A001092C100E7
:100C3000E0915401F091550182E08083E0915001F0
:100C4000F09151011082E0915201F09153018FEC2B
:100C5000808310925C01E0915801F091590186E087
:100C60008083E0915601F0915701808180618083FB
:100C7000E0915601F0915701808188608083E09176
:100C80005601F0915701808180688083E091560180
:100C9000F091570180818F7D808383E00E948D00D9
:100CA0001FB7F89480912501811124C0E5EAF0E096
:100CB0008491E9EBF0E09491E82FF0E0EE0FFF1F54
:100CC000EF56FF4FA591B491EC91E92321F461E037
:100CD0008AE00E94DF018AE00E948D008CB580616D
:100CE0008CBD8CB580648CBD8DE00E948D008BE046
:100CF0000E948D00809125018F5F809325011FBF89
:100D00002091EE0130E0F901EE58FF4F8491F90196
:100D1000E155FF4F0491F901E556FF4F149111235E
:100D200079F081110E94B601E12FF0E0EE0FFF1F74
:100D3000E859FF4FA591B491EC91E02309F009C463
:100D400061E08091EE010E94DF0162E370E080E0EB
:100D500090E00E94760260E884E50E94D50269EA8C
:100D600086E50E94D50263E088E50E94D50268EE20
:100D70008AE50E94D50260E48AE20E94D5026DE312
:100D800082E20E94D50288E20E94B702982F9370F7
:100D9000933029F0682F636088E20E94D5022224F4
:100DA0002394312C98E4492E98EE592E66246394AE
:100DB000712C109238011092390110923A01109260
:100DC0003B0182E08B8786E28C878CE10E94B70230
:100DD000682F6F778CE10E94D50287E08A87E12C2B
:100DE0008E01065F1F4F9E01255F3F4FAE014F5F93
:100DF0005F4F61E0CE010C960E946703813039F4A9
:100E00008B85823019F48A85882339F082E0992411
:100E10009394833009F046C047C09924939444C00A
:100E2000813009F001C130E2F31609F4A5C0A0E257
:100E3000FA2E30E73A839C818B8189279D8189270F
:100E40009E8189278F83AE01485F5F4F67E0CE01A7
:100E500001960E942A03813009F0E6C01B8643E018
:100E60004A87CE0107965C0199E0EB846E2D62956E
:100E7000607F6E0D8AE19D870E94D5028E01055F1D
:100E80001F4F9E01265F3F4FA5019D85692FCE0113
:100E900001960E946703833019F68CE10E94B70225
:100EA00085FF3EC0912CECC08CE10E94B702682FF8
:100EB0006F778CE10E94D50283E98983DD24D39486
:100EC000C12C07E0802EF12C20E2F21609F4B1CFFC
:100ED0008F2D877887FF03C08150886F8F5F8B8746
:100EE0002F2DF7FE02C027E02F0D2595259525957E
:100EF00032E0320F982FA0E13A9F900D11249A838F
:100F000091E0811101C090E0930FAA24A394B12C29
:100F1000AC0EBD1EA30EB11C882D821B8A87A5CFE7
:100F20008F7109F480E2282F30E04F2DFF0C550B14
:100F3000421753070CF0B6CFF82EC90101978770FE
:100F4000992725952595259531E0320F21E00097C9
:100F500009F420E0230FE1E0F0E0EC0FFD1FE20FC9
:100F6000F11D910102C0220F331F8A95E2F7C901DA
:100F70009081892B8083A8CF8B81883819F052E02B
:100F800044E002C053E043E080E090E02C2D30E0EC
:100F9000FC01E20FF31FEF51FE4F652F680FA1E038
:100FA000B0E0AC0FBD1FA60FB11D6C91618301961F
:100FB000841770F38A85833009F074CF8B85811193
:100FC00071CFAE014D5F5F4F61E0C5010E942A0302
:100FD000813051F59B81D50111968C911197981311
:100FE00061CF9C8112968C91129798135BCF8C9154
:100FF00082FF11C0D394B2E0DB1205C085E989837A
:1010000013E0C12E60CFE3E0DE124CCF87E9898385
:10101000B6E0CB2E58CF8093EC018D2D880FD80EE3
:10102000D394D092E10103C0813009F03BCF80918D
:10103000E201809338018091E3018093390180912E
:10104000E40180933A018091E50180933B0180E5C2
:1010500089831A82AE014D5F5F4F62E0CE01019637
:101060000E942A03813061F4E12C00E010E020E0CE
:1010700030E040E050E064E0CE0101960E9467035A
:1010800090923C0191100BC08EE00E943A028C01BC
:101090008FE00E943A02083C11054CF54AC008E373
:1010A00011E0D8016D918D0170E080E090E04AE0A0
:1010B0000E94410487E191E00E942F04B1E00C33CB
:1010C0001B0779F789E191E00E942F048091380194
:1010D00080933401809139018093350180913A01E8
:1010E0008093360180913B0180933701CDCF04304E
:1010F000E1E01E070CF10635F1E01F0704F1063DA3
:1011000021E01207FCF0033032E01307F4F00E3454
:1011100042E01407ECF00C36A2E01A07E4F00E3DB2
:10112000B3E01B07DCF0023F1340DCF00BE412E0FD
:101130001AC000E010E017C006E011E014C006E29B
:1011400011E011C00AE411E00EC00DE511E00BC082
:1011500008E811E008C008EB11E005C00DEE11E051
:1011600002C00BE012E045E0489F9001499F300D1E
:10117000112437FF02C021503C4F232F330F330B74
:10118000259525952F5F3F4F209F6001219FD00C13
:10119000309FD00C1124E0E0F1E0A4E3B1E09191A4
:1011A0008D9198130BC021E0E430F207C1F7D7FE10
:1011B00003C09FEFC91AD90AD594C79446010D2CD4
:1011C000000CAA08BB08D7FE14C0E0914401F091BE
:1011D00045010190F081E02D6DE284E491E00995F4
:1011E00066277727CB01681979098A099B094AE0A4
:1011F00003C04AE0C501B4010E94410489E191E0C5
:101200000E942F04012B21F483E00E940F0298C159
:1012100080910401833021F4E6E8F0E0149175C078
:101220008F3F09F08DC183E080930401E6E8F0E090
:1012300014911F3F09F484C1113009F1123009F4EF
:1012400041C0111162C014BC15BC84B5826084BD5C
:1012500085B5816085BDEEE9F0E0E491F0E0EE0F48
:10126000FF1FE957FF4F8591949190932B01809335
:101270002A01E2EBF0E0E491E093290148C01092EA
:1012800080001092810080918100886080938100AD
:1012900080918100816080938100EEE9F0E0E4912B
:1012A000F0E0EE0FFF1FE957FF4F85919491909367
:1012B000280180932701E2EBF0E0E491E09326011E
:1012C00011E025C01092B0001092B1008091B000E2
:1012D00082608093B0008091B10081608093B10002
:1012E000EEE9F0E0E491F0E0EE0FFF1FE957FF4F69
:1012F0008591949190933E0180933D01E2EBF0E063
:10130000E491E0933F0112E002C017FD19C183E0B0
:101310000E948D00E12CF12C812F8D7F09F0A5C05A
:1013200060E072E18AE790E0A70196010E94300B2D
:1013300049015A01BA01A9014150510961097109D4
:101340004F3F51056105710509F008F443C060E4A1
:1013500072E48FE090E0A70196010E94300BBA0181
:10136000A90141505109610971091230E9F44F3F57
:1013700051056105710509F008F44EC160E970ED91
:1013800083E090E0A70196010E94300BBA01A90109
:1013900041505109610971094F3F510561057105BE
:1013A00009F098F583E05AC04F3F5105610571057A
:1013B00099F090F0C301B201A70196010E94300B91
:1013C000BA01A9014150510961097109112309F4B8
:1013D000D2C01AC181E001C082E0112389F03EC071
:1013E000D501C4012AE0B595A795979587952A95CB
:1013F000D1F7AC01BD01415051096109710985E086
:1014000095B5987F892B85BD62C0C301B201A70144
:1014100096010E94300BBA01A9014150510961099E
:1014200071094F3F51056105710509F008F4A1C02C
:1014300064E274EF80E090E0A70196010E94300B17
:10144000BA01A90141505109610971094F3F510584
:101450006105710511F008F0ADC085E09091B10013
:10146000987F892B8093B1002CC060E072E18AE7FD
:1014700090E0A70196010E94300BBA01A9014150EA
:101480005109610971094115510531E06307710581
:1014900070F0C301B201A70196010E94300BBA019E
:1014A000A901415051096109710993E001C091E01E
:1014B000113039F480918100887F892B80938100DD
:1014C00018C01130B1F0123049F1111139C047BDC7
:1014D0008FEF9FEFDC018093300190933101A09357
:1014E0003201B093330180916E00826080936E0070
:1014F00027C050938900409388008FEF9FEFDC0155
:1015000080932C0190932D01A0932E01B0932F0175
:1015100080916F00826080936F0012C04093B3008F
:101520008FEF9FEFDC018093400190934101A093E6
:101530004201B093430180917000826080937000FB
:1015400064E670E080E090E00E9476020E94AC01C8
:1015500030CC6FE082E00E94D50262E370E080E070
:1015600090E00E94760282E00E94B70284FDFBCFE9
:10157000F2CB84E073CF4F3F510561057105C1F097
:10158000B8F062E17AE780E090E0A70196010E945E
:10159000300BBA01A90141505109610971094F3F4E
:1015A00051056105710511F008F01ACF84E028CFCC
:1015B00083E026CF62E17AE780E090E0A701960120
:1015C0000E94300BBA01A90141505109610971090A
:1015D0004F3F510561057105A9F0A0F0D501C40187
:1015E0004AE0B595A795979587954A95D1F7AC01AF
:1015F000BD014150510961097109112309F4FFCE60
:1016000087E02CCF86E0E9CE4F3F5105610571059B
:1016100009F080F684E0E1CE82E020CFA1E21A2E2C
:10162000AA1BBB1BFD010DC0AA1FBB1FEE1FFF1F86
:10163000A217B307E407F50720F0A21BB30BE40BD6
:10164000F50B661F771F881F991F1A9469F760951D
:101650007095809590959B01AC01BD01CF010895D7
:10166000052E97FB1EF400940E94470B57FD07D0F0
:101670000E940E0B07FC03D04EF40C94470B5095C0
:101680004095309521953F4F4F4F5F4F089590956E
:101690008095709561957F4F8F4F9F4F0895EE0F06
:1016A000FF1F0590F491E02D099481E090E0F894FB
:0816B0000C945A0BF894FFCFD3
:1016B800CE62E5C7FF000000004301AC00DB008AF2
:0C16C800010C01EA00FE0020000D0A00E9
:00000001FF
