:100000000C9462000C948A000C948A000C948A0070
:100010000C948A000C948A000C948A000C948A0038
:100020000C948A000C948A000C948A000C948A0028
:100030000C948A000C948A000C948A000C948A0018
:100040000C94D3040C948A000C94A1040C947B04AB
:100050000C948A000C948A000C948A000C948A00F8
:100060000C948A000C948A000000000024002700F1
:100070002A0000000000250028002B0000000000DE
:1000800023002600290004040404040404040202DA
:100090000202020203030303030301020408102007
:1000A0004080010204081020010204081020000012
:1000B0000008000201000003040700000000000027
:1000C00000001D0511241FBECFEFD8E0DEBFCDBF5D
:1000D00011E0A0E0B1E0E6E7FDE002C005900D927E
:1000E000AE34B107D9F722E0AEE4B1E001C01D9211
:1000F000A831B207E1F710E0C2E6D0E004C02197D2
:10010000FE010E94AE06C136D107C9F70E946805FC
:100110000C94B9060C940000CF92DF92EF92FF92FC
:100120000F931F93CF93DF936C017A018B01C0E093
:10013000D0E0CE15DF0589F0D8016D918D01D60193
:10014000ED91FC910190F081E02DC6010995892B7C
:1001500011F47E0102C02196ECCFC701DF91CF914F
:100160001F910F91FF90EF90DF90CF900895FC01C9
:10017000538D448D252F30E0842F90E0821B930B0C
:10018000541710F0CF96089501970895FC01918DB2
:10019000828D981761F0828DDF01A80FB11D5D96E9
:1001A0008C91928D9F5F9F73928F90E008958FEF57
:1001B0009FEF0895FC01918D828D981731F0828D0B
:1001C000E80FF11D858D90E008958FEF9FEF089562
:1001D000FC01918D228D892F90E0805C9F4F821BC6
:1001E00091098F739927089583E691E00E94E800B2
:1001F00021E0892B09F420E0822F0895FC01848DF1
:10020000DF01A80FB11DA35ABF4F2C91848D90E040
:1002100001968F739927848FA689B7892C93A0891B
:10022000B1898C9180648C93938D848D981306C0D2
:100230000288F389E02D80818F7D80830895EF927D
:10024000FF920F931F93CF93DF93EC0181E0888F90
:100250009B8D8C8D981305C0E889F989808185FD77
:1002600024C0F62E0B8D10E00F5F1F4F0F73112768
:10027000E02E8C8DE8120CC00FB607FCFACFE8898F
:10028000F989808185FFF5CFCE010E94FE00F1CF74
:100290008B8DFE01E80FF11DE35AFF4FF0820B8FAB
:1002A000EA89FB898081806207C0EE89FF896083CB
:1002B000E889F98980818064808381E090E0DF9122
:1002C000CF911F910F91FF90EF900895CF93DF93FF
:1002D000EC01888D8823C9F0EA89FB89808185FD3E
:1002E00005C0A889B9898C9186FD0FC00FB607FC9F
:1002F000F5CF808185FFF2CFA889B9898C9185FFE0
:10030000EDCFCE010E94FE00E7CFDF91CF9108959F
:1003100080E090E0892B29F00E94F40081110C9478
:1003200000000895833081F028F4813099F0823004
:10033000A1F008958730A9F08830B9F08430D1F465
:10034000809180008F7D03C0809180008F778093A3
:100350008000089584B58F7702C084B58F7D84BDF9
:1003600008958091B0008F7703C08091B0008F7D99
:100370008093B00008951F93CF93DF93282F30E030
:10038000F901E255FF4F8491F901E656FF4FD491F0
:10039000F901EA57FF4FC491CC23C9F0162F811100
:1003A0000E949201EC2FF0E0EE0FFF1FEE58FF4F7E
:1003B000A591B4918FB7F894111105C09C91ED2FC0
:1003C000E095E92302C0EC91ED2BEC938FBFDF9118
:1003D000CF911F910895CF93DF9390E0FC01E656F3
:1003E000FF4F2491FC01EA57FF4F8491882361F16C
:1003F00090E0880F991FFC01E859FF4FC591D491F7
:10040000FC01EE58FF4FA591B491611109C09FB74F
:10041000F8948881209582238883EC912E230BC049
:10042000623061F49FB7F8943881822F80958323DE
:100430008883EC912E2B2C939FBF06C08FB7F89426
:10044000E8812E2B28838FBFDF91CF9108953FB78E
:10045000F8948091530190915401A0915501B0916D
:10046000560126B5A89B05C02F3F19F00196A11D86
:10047000B11D3FBFBA2FA92F982F8827820F911D3A
:10048000A11DB11DBC01CD0142E0660F771F881F81
:10049000991F4A95D1F708958F929F92AF92BF927C
:1004A000CF92DF92EF92FF926B017C010E942702B4
:1004B0004B015C01C114D104E104F104F1F00E948C
:1004C0002702DC01CB0188199909AA09BB09883EDA
:1004D0009340A105B10570F321E0C21AD108E108EB
:1004E000F10888EE880E83E0981EA11CB11CC1148F
:1004F000D104E104F10419F7DDCFFF90EF90DF9014
:10050000CF90BF90AF909F908F900895CF93DF933F
:10051000EC0160E08E810E94BB0161E08E810E944F
:10052000BB0160E08E810E94BB018BE891E00197E6
:10053000F1F7DF91CF910895CF92DF92EF92FF9282
:100540000F931F93CF93DF937C016C0187E0C80E5C
:10055000D11CC0E0D0E0062F10E0B8010C2E02C084
:10056000759567950A94E2F76170F60181916F01C4
:100570000E94BB012196C430D10579F7C701DF91F4
:10058000CF911F910F91FF90EF90DF90CF900C943F
:100590008602CF92DF92EF92FF920F931F93CF9339
:1005A000DF93EC01F62E642F8C810E94BB018D81BC
:1005B0008F3F19F060E00E94BB018F850F2D10E086
:1005C00084FF25C06E0187E0C80ED11CE12CF12C00
:1005D000B8010E2C02C0759567950A94E2F7617018
:1005E000F60181916F010E94BB01FFEFEF1AFF0A34
:1005F00088E0E816F10461F7CE01DF91CF911F91F9
:100600000F91FF90EF90DF90CF900C948602B8018D
:1006100084E0759567958A95E1F7CE010E949C026A
:100620006F2DCE01DF91CF911F910F91FF90EF9031
:10063000DF90CF900C949C0241E00E94C90281E0BF
:1006400090E0089540E00C94C90261E00E9422030A
:100650008BE39FE10197F1F70895EF92FF920F93DB
:100660001F93CF93DF93EC01623018F08F85886081
:100670008F876B8B1C8A80E48D8B80E18E8B80E56D
:100680008F8B61E08C810E94EB018D818F3F19F08F
:1006900061E00E94EB0161E08E810E94EB017E012E
:1006A00087E0E80EF11C00E010E08F8584FD03C0B8
:1006B00084E090E002C088E090E0081719074CF44D
:1006C00061E0F70181917F010E94EB010F5F1F4FF5
:1006D000ECCF8BE39DE00197F1F760E08C810E9405
:1006E000BB0160E08E810E94BB018D818F3F19F0BC
:1006F00060E00E94BB016F8564FD1DC063E0CE0118
:100700000E949C020BE416E4C8010197F1F763E034
:10071000CE010E949C02C8010197F1F763E0CE016F
:100720000E949C0283E592E00197F1F762E0CE011E
:100730000E949C0216C06062CE010E9422038BE4DC
:1007400096E40197F1F76F856062CE010E94220363
:1007500083E592E00197F1F76F856062CE010E9418
:1007600022036F856062CE010E94220384E0888BA1
:100770006CE0CE010E942203CE010E94250382E09C
:10078000898B66E0CE01DF91CF911F910F91FF9091
:10079000EF900C942203089580E090E008950E9469
:1007A000B4066115710579F0FB0101900020E9F7AD
:1007B0003197AF01461B570BDC01ED91FC91028094
:1007C000F381E02D099480E090E008958F929F924C
:1007D000AF92BF920F931F93CF93DF93CDB7DEB746
:1007E000A1970FB6F894DEBF0FBECDBF19A242305D
:1007F00008F44AE08E010F5D1F4F842E912CA12C2E
:10080000B12CA50194010E948C06E62FB901CA0102
:1008100001501109EA3014F4E05D01C0E95CD8012F
:10082000EC93232B242B252B61F7B80180E092E079
:100830000E94D103A1960FB6F894DEBF0FBECDBFC4
:10084000DF91CF911F910F91BF90AF909F908F90AC
:100850000895CF93DF93E0916301F09164010190DB
:10086000F081E02D682F83E691E00995EC0168E2C4
:1008700071E083E691E00E94D1038C0F9D1FDF9110
:10088000CF91089580E092E00E94250362E080E02D
:1008900092E00E9422038BE39FE10197F1F76BE264
:1008A00071E080E092E00E94D1036091610170E00C
:1008B00080E090E04AE00E94E603E0911302E2301B
:1008C00010F4E15001C0E1E0F0E0E050FE4F648937
:1008D000606880E092E00E94220367E371E080E0BC
:1008E00092E00E94D1036091620170E080E090E0AC
:1008F0004AE00C94E6031F920F920FB60F92112458
:100900002F933F934F935F936F937F938F939F9317
:10091000AF93BF93EF93FF9383E691E00E94FE00B5
:10092000FF91EF91BF91AF919F918F917F916F91C7
:100930005F914F913F912F910F900FBE0F901F909D
:1009400018951F920F920FB60F9211242F938F9329
:100950009F93EF93FF93E0917301F0917401808175
:10096000E0917901F0917A0182FD12C0908180912D
:100970007C018F5F8F7320917D01821751F0E09190
:100980007C01F0E0ED59FE4F958F80937C0101C012
:100990008081FF91EF919F918F912F910F900FBECA
:1009A0000F901F9018951F920F920FB60F9211245F
:1009B0002F933F938F939F93AF93BF9380914F015A
:1009C00090915001A0915101B091520130914E018E
:1009D00023E0230F2D3720F40196A11DB11D05C082
:1009E00026E8230F0296A11DB11D20934E0180938E
:1009F0004F0190935001A0935101B0935201809107
:100A0000530190915401A0915501B0915601019666
:100A1000A11DB11D8093530190935401A0935501E2
:100A2000B0935601BF91AF919F918F913F912F91BC
:100A30000F900FBE0F901F901895E3E6F1E0138220
:100A4000128288EE93E0A0E0B0E084839583A683D1
:100A5000B7838EE091E09183808385EC90E0958769
:100A6000848784EC90E09787868780EC90E0918B78
:100A7000808B81EC90E0938B828B82EC90E0958B65
:100A8000848B86EC90E0978B868B118E128E138E62
:100A9000148EE0E0F2E01382128280E291E0918312
:100AA000808387E084838FEF858386E0868385E07B
:100AB000878384E0808783E0818782E08287138652
:100AC000148615861686178661E0CF010C942D03D7
:100AD000CF93DF931F92CDB7DEB7789484B5826051
:100AE00084BD84B5816084BD85B5826085BD85B5D2
:100AF000816085BD80916E00816080936E00109250
:100B000081008091810082608093810080918100CA
:100B1000816080938100809180008160809380005B
:100B20008091B10084608093B1008091B0008160B9
:100B30008093B00080917A00846080937A008091E5
:100B40007A00826080937A0080917A00816080933D
:100B50007A0080917A00806880937A001092C100B8
:100B600062E080E092E00E942D0380E092E00E942B
:100B7000250362E080E092E00E9422038BE39FE184
:100B80000197F1F705E011E060E0F80181918F0134
:100B90000E94EB01F1E00A301F07B1F763E471E056
:100BA00080E092E00E94D10368EC70E080E090E089
:100BB0000E944C020E944204E0917301F091740182
:100BC00082E08083E0916F01F09170011082E091EA
:100BD0007101F09172018FEC808310927B01E091A2
:100BE0007701F091780186E08083E0917501F091C2
:100BF0007601808180618083E0917501F0917601BA
:100C0000808188608083E0917501F0917601808118
:100C100080688083E0917501F091760180818F7DFD
:100C2000808302E010E040E0F801EB5FFE4F22819C
:100C300030E0F901E255FF4F8491F901E656FF4F8C
:100C4000F490F901EA57FF4FE490EE20B9F08823C1
:100C500021F049830E9492014981EE2DF0E0EE0FD0
:100C6000FF1FE458FF4FA591B491EC91EF2131E0C3
:100C700020E009F430E0832F922F02C080E090E062
:100C8000282FF801E45AFE4F8283019751F4F801AE
:100C9000E95AFE4F8281813021F0F801E050FF4F88
:100CA00042810230110520F0F801E95AFE4F2283FB
:100CB000015011090D3F8FEF180709F0B5CF4434EB
:100CC000C9F0453551F04334F1F483E40E9429041E
:100CD00080916201809361010AC085E50E94290428
:100CE000809162018F3F19F08F5F809362010E94B3
:100CF000420409C084E40E9429048091620188238F
:100D0000B1F38150F2CF64E670E080E090E00E94A1
:100D10004C020E94880185CFA1E21A2EAA1BBB1BA0
:100D2000FD010DC0AA1FBB1FEE1FFF1FA217B307B7
:100D3000E407F50720F0A21BB30BE40BF50B661FCD
:100D4000771F881F991F1A9469F760957095809591
:100D500090959B01AC01BD01CF010895EE0FFF1FDF
:100D60000590F491E02D099481E090E0F8940C94C2
:060D7000B906F894FFCF64
:100D7600434C44555208090A0B0C000000001F01A1
:100D86008C00B7006601E800C600DA00000000002B
:100D96001C038C00CC03CB030D0A0053657420762C
:100DA600616C75653A20004E65772076616C7565D5
:0E0DB6003A20004C6F6164696E672E2E2E008D
:107E0000112484B714BE81FFF0D085E080938100F7
:107E100082E08093C00088E18093C10086E0809377
:107E2000C20080E18093C4008EE0C9D0259A86E02C
:107E300020E33CEF91E0309385002093840096BBD3
:107E4000B09BFECF1D9AA8958150A9F7CC24DD24C4
:107E500088248394B5E0AB2EA1E19A2EF3E0BF2EE7
:107E6000A2D0813461F49FD0082FAFD0023811F036
:107E7000013811F484E001C083E08DD089C08234E0
:107E800011F484E103C0853419F485E0A6D080C0E4
:107E9000853579F488D0E82EFF2485D0082F10E0AE
:107EA000102F00270E291F29000F111F8ED06801E7
:107EB0006FC0863521F484E090D080E0DECF843638
:107EC00009F040C070D06FD0082F6DD080E0C81688
:107ED00080E7D80618F4F601B7BEE895C0E0D1E017
:107EE00062D089930C17E1F7F0E0CF16F0E7DF06D8
:107EF00018F0F601B7BEE89568D007B600FCFDCFD4
:107F0000A601A0E0B1E02C9130E011968C91119780
:107F100090E0982F8827822B932B1296FA010C0160
:107F200087BEE89511244E5F5F4FF1E0A038BF0790
:107F300051F7F601A7BEE89507B600FCFDCF97BE46
:107F4000E89526C08437B1F42ED02DD0F82E2BD052
:107F50003CD0F601EF2C8F010F5F1F4F84911BD097
:107F6000EA94F801C1F70894C11CD11CFA94CF0C13
:107F7000D11C0EC0853739F428D08EE10CD085E9AC
:107F80000AD08FE07ACF813511F488E018D01DD067
:107F900080E101D065CF982F8091C00085FFFCCF94
:107FA0009093C60008958091C00087FFFCCF809118
:107FB000C00084FD01C0A8958091C6000895E0E648
:107FC000F0E098E1908380830895EDDF803219F02E
:107FD00088E0F5DFFFCF84E1DECF1F93182FE3DFCA
:107FE0001150E9F7F2DF1F91089580E0E8DFEE27F6
:047FF000FF270994CA
:027FFE00040479
:0400000300007E007B
:00000001FF