:100000000C9463000C948B000C948B000C948B006C
:100010000C948B000C948B000C948B000C94D104EA
:100020000C948B000C948B000C948B000C948B0024
:100030000C948B000C948B000C948B000C948B0014
:100040000C94AB050C948B000C9479050C9453051F
:100050000C948B000C948B000C948B000C948B00F4
:100060000C948B000C948B000000000024002700EF
:100070002A0000000000250028002B0000000000DE
:1000800023002600290004040404040404040202DA
:100090000202020203030303030301020408102007
:1000A0004080010204081020010204081020000012
:1000B0000008000201000003040700000000000027
:1000C00000000200F50511241FBECFEFD8E0DEBF0F
:1000D000CDBF11E0A0E0B1E0E6ECF2E102C0059096
:1000E0000D92AA3CB107D9F722E0AAECB1E001C019
:1000F0001D92A43BB207E1F710E0C3E6D0E004C0D4
:100100002197FE010E945609C236D107C9F70E9405
:1001100040060C9461090C940000CF92DF92EF929C
:10012000FF920F931F93CF93DF936C017A018B01A2
:10013000C0E0D0E0CE15DF0589F0D8016D918D01CA
:10014000D601ED91FC910190F081E02DC601099559
:10015000892B11F47E0102C02196ECCFC701DF91FB
:10016000CF911F910F91FF90EF90DF90CF90089566
:10017000FC01538D448D252F30E0842F90E0821BAD
:10018000930B541710F0CF96089501970895FC0132
:10019000918D828D981761F0828DDF01A80FB11DBE
:1001A0005D968C91928D9F5F9F73928F90E00895E2
:1001B0008FEF9FEF0895FC01918D828D981731F09C
:1001C000828DE80FF11D858D90E008958FEF9FEFF0
:1001D0000895FC01918D228D892F90E0805C9F4FC6
:1001E000821B91098F73992708958FEF91E00E94E8
:1001F000E90021E0892B09F420E0822F0895FC0119
:10020000848DDF01A80FB11DA35ABF4F2C91848D9F
:1002100090E001968F739927848FA689B7892C93D4
:10022000A089B1898C9180648C93938D848D98136F
:1002300006C00288F389E02D80818F7D8083089538
:10024000EF92FF920F931F93CF93DF93EC0181E026
:10025000888F9B8D8C8D981305C0E889F9898081E2
:1002600085FD24C0F62E0B8D10E00F5F1F4F0F731E
:100270001127E02E8C8DE8120CC00FB607FCFACFC8
:10028000E889F989808185FFF5CFCE010E94FF00C2
:10029000F1CF8B8DFE01E80FF11DE35AFF4FF08285
:1002A0000B8FEA89FB898081806207C0EE89FF8914
:1002B0006083E889F98980818064808381E090E0AF
:1002C000DF91CF911F910F91FF90EF900895CF9301
:1002D000DF93EC01888D8823C9F0EA89FB8980814E
:1002E00085FD05C0A889B9898C9186FD0FC00FB620
:1002F00007FCF5CF808185FFF2CFA889B9898C9161
:1003000085FFEDCFCE010E94FF00E7CFDF91CF91B7
:10031000089580E090E0892B29F00E94F50081117A
:100320000C9400000895833081F028F4813099F016
:100330008230A1F008958730A9F08830B9F0843078
:10034000D1F4809180008F7D03C0809180008F77F1
:1003500080938000089584B58F7702C084B58F7D27
:1003600084BD08958091B0008F7703C08091B00064
:100370008F7D8093B00008951F93CF93DF93282F34
:1003800030E0F901E255FF4F8491F901E656FF4F45
:10039000D491F901EA57FF4FC491CC23C9F0162F2D
:1003A00081110E949301EC2FF0E0EE0FFF1FEE5839
:1003B000FF4FA591B4918FB7F894111105C09C918E
:1003C000ED2FE095E92302C0EC91ED2BEC938FBF6C
:1003D000DF91CF911F910895CF93DF9390E0FC01BF
:1003E000E656FF4F2491FC01EA57FF4F8491882382
:1003F00061F190E0880F991FFC01E859FF4FC5910A
:10040000D491FC01EE58FF4FA591B491611109C040
:100410009FB7F8948881209582238883EC912E23BE
:100420000BC0623061F49FB7F8943881822F8095B9
:1004300083238883EC912E2B2C939FBF06C08FB70C
:10044000F894E8812E2B28838FBFDF91CF910895F8
:100450003FB7F8948091CB019091CC01A091CD0150
:10046000B091CE0126B5A89B05C02F3F19F001968B
:10047000A11DB11D3FBFBA2FA92F982F8827820F2A
:10048000911DA11DB11DBC01CD0142E0660F771F7A
:10049000881F991F4A95D1F708958F929F92AF9226
:1004A000BF92CF92DF92EF92FF926B017C010E948C
:1004B00028024B015C01C114D104E104F104F1F004
:1004C0000E942802DC01CB0188199909AA09BB09FD
:1004D000883E9340A105B10570F321E0C21AD1080E
:1004E000E108F10888EE880E83E0981EA11CB11C7B
:1004F000C114D104E104F10419F7DDCFFF90EF90AE
:10050000DF90CF90BF90AF909F908F900895CF9342
:10051000DF93EC0160E08E810E94BC0161E08E817E
:100520000E94BC0160E08E810E94BC018BE891E0DA
:100530000197F1F7DF91CF910895CF92DF92EF927B
:10054000FF920F931F93CF93DF937C016C0187E0A1
:10055000C80ED11CC0E0D0E0062F10E0B8010C2E70
:1005600002C0759567950A94E2F76170F601819172
:100570006F010E94BC012196C430D10579F7C701F3
:10058000DF91CF911F910F91FF90EF90DF90CF906F
:100590000C948702CF92DF92EF92FF920F931F93FA
:1005A000CF93DF93EC01F62E642F8C810E94BC0167
:1005B0008D818F3F19F060E00E94BC018F850F2D67
:1005C00010E084FF25C06E0187E0C80ED11CE12C2D
:1005D000F12CB8010E2C02C0759567950A94E2F7CC
:1005E0006170F60181916F010E94BC01FFEFEF1A6B
:1005F000FF0A88E0E816F10461F7CE01DF91CF91A0
:100600001F910F91FF90EF90DF90CF900C94870295
:10061000B80184E0759567958A95E1F7CE010E944F
:100620009D026F2DCE01DF91CF911F910F91FF9011
:10063000EF90DF90CF900C949D0241E00E94CA029F
:1006400081E090E0089540E00C94CA02E091AF028E
:10065000E23010F4E15001C0E1E0F0E0E456FD4F7B
:10066000648960688CE992E00C94230361E00E9445
:1006700023038BE39FE10197F1F70895EF92FF9237
:100680000F931F93CF93DF93EC01623018F08F85A7
:1006900088608F876B8B1C8A80E48D8B80E18E8BCA
:1006A00080E58F8B61E08C810E94EC018D818F3F12
:1006B00019F061E00E94EC0161E08E810E94EC0182
:1006C0007E0187E0E80EF11C00E010E08F8584FDDC
:1006D00003C084E090E002C088E090E008171907AA
:1006E0004CF461E0F70181917F010E94EC010F5F02
:1006F0001F4FECCF8BE39DE00197F1F760E08C8119
:100700000E94BC0160E08E810E94BC018D818F3F00
:1007100019F060E00E94BC016F8564FD1DC063E0BC
:10072000CE010E949D020BE416E4C8010197F1F787
:1007300063E0CE010E949D02C8010197F1F763E0DA
:10074000CE010E949D0283E592E00197F1F762E0FD
:10075000CE010E949D0216C06062CE010E9423035A
:100760008BE496E40197F1F76F856062CE010E94F9
:10077000230383E592E00197F1F76F856062CE0174
:100780000E9423036F856062CE010E94230384E0F0
:10079000888B6CE0CE010E942303CE010E943603B9
:1007A00082E0898B66E0CE01DF91CF911F910F919E
:1007B000FF90EF900C942303089580E090E008955B
:1007C0000E945C096115710579F0FB010190002020
:1007D000E9F73197AF01461B570BDC01ED91FC9116
:1007E0000280F381E02D099480E090E00895BC013F
:1007F0008CE992E00C94E2038F929F92AF92BF92A9
:100800000F931F93CF93DF93CDB7DEB7A1970FB6AA
:10081000F894DEBF0FBECDBF19A2423008F44AE003
:100820008E010F5D1F4F842E912CA12CB12CA501A0
:1008300094010E943409E62FB901CA01015011093F
:10084000EA3014F4E05D01C0E95CD801EC93232B9D
:10085000242B252B61F7B8018CE992E00E94E2037A
:10086000A1960FB6F894DEBF0FBECDBFDF91CF913A
:100870001F910F91BF90AF909F908F900895CF934D
:10088000DF93E091FF01F09100020190F081E02DF3
:10089000682F8FEF91E00995EC016AE271E08FEF2C
:1008A00091E00E94E2038C0F9D1FDF91CF9108958C
:1008B0008CE992E00E94360362E08CE992E00E94AB
:1008C00023038BE39FE10197F1F7809100018823D7
:1008D00099F08DE291E00E94F7030E942603809137
:1008E000F001882319F0813021F0089587E391E029
:1008F00055C081E491E052C08091EF018823D1F08E
:100900008DE491E00E94F7036091EE0170E080E0D9
:1009100090E04AE00E94FC030E94260389E591E0F2
:100920000E94F7036091ED0170E080E090E04AE002
:100930000C94FC038091EC018823A9F085E691E0FA
:100940000E94F7030E94260386E791E00E94F703C6
:100950006091EE0170E080E090E04AE00E94FC03CC
:1009600081E891E01BC08091EB018823C9F0809160
:10097000F501811111C084E891E00E94F7030E9403
:1009800026036091F60170E080E090E04AE00E946A
:10099000FC0384E991E002C08DE991E00C94F70337
:1009A00008951F920F920FB60F9211242F933F9329
:1009B0004F935F936F937F938F939F93AF93BF9367
:1009C000EF93FF938091FB019091FC01A091FD01B9
:1009D000B091FE01892B8A2B8B2B59F18091FA0162
:1009E000E091F801F091F90190818927808380914D
:1009F000FB019091FC01A091FD01B091FE01181640
:100A000019061A061B060CF03DC08091FB0190915F
:100A1000FC01A091FD01B091FE010197A109B1096E
:100A20008093FB019093FC01A093FD01B093FE0124
:100A300029C080910101E2ECF0E0E4919FEF9093F6
:100A40000101E130B9F098F0E230C9F49091700002
:100A50009D7F9093700091E09093B0009091B100D1
:100A6000987F94609093B1001092B30008C01092E8
:100A70006E0005C090916F009D7F90936F0060E0C5
:100A80000E94BC01FF91EF91BF91AF919F918F9117
:100A90007F916F915F914F913F912F910F900FBE7A
:100AA0000F901F9018951F920F920FB60F9211245E
:100AB0002F933F934F935F936F937F938F939F9366
:100AC000AF93BF93EF93FF938FEF91E00E94FF00EE
:100AD000FF91EF91BF91AF919F918F917F916F9116
:100AE0005F914F913F912F910F900FBE0F901F90EC
:100AF00018951F920F920FB60F9211242F938F9378
:100B00009F93EF93FF93E0910F02F0911002808189
:100B1000E0911502F091160282FD12C09081809141
:100B200018028F5F8F7320911902821751F0E091A4
:100B30001802F0E0E150FE4F958F8093180201C03B
:100B40008081FF91EF919F918F912F910F900FBE18
:100B50000F901F9018951F920F920FB60F921124AD
:100B60002F933F938F939F93AF93BF938091E70110
:100B70009091E801A091E901B091EA013091CA0198
:100B800023E0230F2D3720F40196A11DB11D05C0D0
:100B900026E8230F0296A11DB11D2093CA01809360
:100BA000E7019093E801A093E901B093EA018091F5
:100BB000CB019091CC01A091CD01B091CE010196D5
:100BC000A11DB11D8093CB019093CC01A093CD01C9
:100BD000B093CE01BF91AF919F918F913F912F9193
:100BE0000F900FBE0F901F901895EFEFF1E013825A
:100BF000128288EE93E0A0E0B0E084839583A68320
:100C0000B78380E191E09183808385EC90E09587C4
:100C1000848784EC90E09787868780EC90E0918BC6
:100C2000808B81EC90E0938B828B82EC90E0958BB3
:100C3000848B86EC90E0978B868B118E128E138EB0
:100C4000148EECE9F2E01382128282E291E0918349
:100C5000808387E084838FEF858386E0868385E0C9
:100C6000878384E0808783E0818782E082871386A0
:100C7000148615861686178661E0CF010C943E0314
:100C8000CF93DF9300D01F92CDB7DEB7789484B5B1
:100C9000826084BD84B5816084BD85B5826085BD78
:100CA00085B5816085BD80916E00816080936E0006
:100CB00010928100809181008260809381008091F8
:100CC00081008160809381008091800081608093A9
:100CD00080008091B10084608093B1008091B00069
:100CE00081608093B00080917A00846080937A0064
:100CF00080917A00826080937A0080917A0081608E
:100D000080937A0080917A00806880937A001092B4
:100D1000C10062E08CE992E00E943E038CE992E01F
:100D20000E94360362E08CE992E00E9423038BE389
:100D30009FE10197F1F78EEA91E00E94F7030E948C
:100D400026038EEB91E00E94F703E0910F02F091F1
:100D5000100282E08083E0910B02F0910C0210827D
:100D6000E0910D02F0910E028FEC80831092170239
:100D7000E0911302F091140286E08083E091110269
:100D8000F0911202808180618083E0911102F091E4
:100D90001202808188608083E0911102F09112023A
:100DA000808180688083E0911102F091120280813D
:100DB0008F7D808307E011E060E0D8018D918D0187
:100DC0000E94EC01B1E00C301B07B1F761E08EE04E
:100DD0000E94EC0161E083E10E94EC0168EE73E0A7
:100DE00080E090E00E944D020E94580462ECC62E02
:100DF00060E0D62E09E910E07DEAE72E70E0F72EDC
:100E0000E0E78E2EE3E09E2EA12CB12C8FB7F89454
:100E10004091E7015091E8016091E9017091EA0188
:100E20008FBF8091F701882309F404C12091F60156
:100E30002111DBC081E08093F5010E9458044AE053
:100E4000442E512C5DE8752E61E08EE00E94BC01BD
:100E500080910101833119F4F601949172C08F3FA2
:100E600009F0ABC083E180930101F60194919F3FAB
:100E700009F4A3C0913009F1923009F440C09111F6
:100E800060C014BC15BC84B5826084BD85B581602A
:100E900085BDF8018491E82FF0E0EE0FFF1FEE58BA
:100EA000FF4F859194919093D4018093D301F701E2
:100EB00084918093D20190E046C0109280001092FD
:100EC0008100809181008860809381008091810001
:100ED000816080938100F8018491E82FF0E0EE0FAB
:100EE000FF1FEE58FF4F859194919093D10180930D
:100EF000D001F70184918093CF0191E024C010923A
:100F0000B0001092B1008091B00082608093B00078
:100F10008091B10081608093B100F8018491E82F45
:100F2000F0E0EE0FFF1FEE58FF4F859194919093E4
:100F3000F9018093F801F70184918093FA0192E01E
:100F400002C097FD3AC061E083E19B830E94EC01FF
:100F50009B81992309F46DC1923009F47DC19130D0
:100F6000D1F480918100887F81608093810081E845
:100F700093E290938900809388008092D5019092AB
:100F8000D601A092D701B092D80180916F00826003
:100F900080936F0012C081E8923079F48093B3009F
:100FA0008092FB019092FC01A092FD01B092FE01A3
:100FB0008091700082608093700064EF71E080E047
:100FC00090E00E944D0260E08EE00E94BC0164EF60
:100FD00071E080E090E00E944D02F1E04F1A51086C
:100FE00009F032CFF201099525C04090F1015090EF
:100FF000F2016090F3017090F401DB01CA018419E1
:101000009509A609B7092C013D0199EE491693E00F
:1010100059066104710470F08FEF820F8093F6011E
:101020004093F1015093F2016093F3017093F40146
:101030000E94580462E070E090E0FB01E95FFE4F1F
:10104000228130E0F901E255FF4F8491F901E65623
:10105000FF4F7490F901EA57FF4F64906620E1F06A
:10106000882341F069837A839B830E9493019B814B
:101070007A816981262D30E0220F331F24583F4F9B
:10108000F901A591B491EC917E2241E080E009F450
:1010900040E0242F382F02C020E030E0822FFB01F7
:1010A000EE51FE4F22832130310551F4FB01E35212
:1010B000FE4F2281213021F0FB01EE5FFE4F928135
:1010C0002091EF01222319F06230710520F0FB011D
:1010D000E352FE4F8283615071096D3FAFEF7A0793
:1010E00009F0ABCF9C3409F46FC034F4933459F059
:1010F000943409F45CC094C0923509F481C09535EC
:1011000009F444C08DC083E40E943F048091000133
:10111000882381F0109200018091F001882331F042
:10112000813009F041C08093EC013EC081E08093A2
:10113000EF013AC08091EF01882329F08091ED0101
:101140008093EE0131C08091EC01882369F1109207
:10115000EC0181E08093EB018093F7018091EE0137
:101160008093F6012FB7F8948091E7019091E80100
:10117000A091E901B091EA012FBF8093F101909312
:10118000F201A093F301B093F4010EC085E50E9433
:101190003F048091EF01882339F08091ED018F3F6A
:1011A00019F08F5F8093ED010E94580439C084E4E8
:1011B0000E943F048091EF018823B1F38091ED01FB
:1011C000882391F38150EECF8CE40E943F048091FC
:1011D000000181111CC08091EF01882339F0109229
:1011E000EF018091EE018093ED0106C08091EC014A
:1011F0008823D1F21092EC0181E080930001D4CFDA
:1012000082E50E943F0480910001882369F2809169
:10121000F00190E00196817099278093F001C4CF8E
:1012200064E670E080E090E00E944D020E94890137
:10123000EDCD85B5887F836085BD77BC8092D9016F
:101240009092DA01A092DB01B092DC0180916E00F5
:10125000826080936E00B1CE8091B100887F8460FF
:101260008093B1008DE89ACEA1E21A2EAA1BBB1B77
:10127000FD010DC0AA1FBB1FEE1FFF1FA217B30762
:10128000E407F50720F0A21BB30BE40BF50B661F78
:10129000771F881F991F1A9469F76095709580953C
:1012A00090959B01AC01BD01CF010895EE0FFF1F8A
:1012B0000590F491E02D099481E090E0F8940C946D
:0612C0006109F894FFCF64
:1012C60001FF434C44555208090A0B0C000000006C
:1012D60020018D00B8006701E900C700DB000000AF
:1012E60000001D038D00DD03DC030D0A004D41499E
:1012F6004E204D454E55005365742074696D6572D8
:101306000053746172742074696D6572005365745C
:101316002076616C75653A20004E65772076616CA3
:1013260075653A20005072657373204320746F20F0
:1013360073746172740074696D657220666F7220D1
:101346000020730052656D61696E696E672074696D
:101356006D653A00207365636F6E64730054696D42
:1013660065722068617320656E6465642E00427242
:1013760065772074696D65722076302E32004C6F69
:0A1386006164696E672E2E2E0000D0
:00000001FF
