:100000000C9464000C948C000C948C000C948C0068
:100010000C948C000C948C000C948C000C94BF06F7
:100020000C948C000C948C000C948C000C948C0020
:100030000C948C000C948C000C948C000C948C0010
:100040000C94FA030C948C000C941B020C94F50194
:100050000C948C000C948C000C948C000C948C00F0
:100060000C948C000C948C000000000024002700ED
:100070002A0000000000250028002B0000000000DE
:1000800023002600290004040404040404040202DA
:100090000202020203030303030301020408102007
:1000A0004080010204081020010204081020000012
:1000B0000008000201000003040700000000000027
:1000C00000000200670A570A11241FBECFEFD8E0D4
:1000D000DEBFCDBF23E0A0E7B2E001C01D92AF3785
:1000E000B207E1F712E0A0E0B1E0E4EDFAE102C00E
:1000F00005900D92A037B107D9F710E0C3E6D0E024
:1001000004C02197FE010E944B0BC236D107C9F7EC
:100110000E94B7070C945D0D0C940000FC01538DF8
:10012000448D252F30E0842F90E0821B930B5417D1
:1001300010F0CF96089501970895FC01918D828D5E
:10014000981761F0828DDF01A80FB11D5D968C912B
:10015000928D9F5F9F73928F90E008958FEF9FEF36
:100160000895FC01918D828D981731F0828DE80FF2
:10017000F11D858D90E008958FEF9FEF0895FC01AC
:10018000918D228D892F90E0805C9F4F821B910979
:100190008F73992708958EEA92E00E94BF0021E0B4
:1001A000892B09F420E0822F0895FC01848DDF0162
:1001B000A80FB11DA35ABF4F2C91848D90E00196DA
:1001C0008F739927848FA689B7892C93A089B189C9
:1001D0008C9180648C93938D848D981306C00288D3
:1001E000F389E02D80818F7D80830895EF92FF92C7
:1001F0000F931F93CF93DF93EC0181E0888F9B8D4A
:100200008C8D981305C0E889F989808185FD24C00B
:10021000F62E0B8D10E00F5F1F4F0F731127E02E8E
:100220008C8DE8120CC00FB607FCFACFE889F9896B
:10023000808185FFF5CFCE010E94D500F1CF8B8D57
:10024000FE01E80FF11DE35AFF4FF0820B8FEA89A0
:10025000FB898081806207C0EE89FF896083E8891D
:10026000F98980818064808381E090E0DF91CF9183
:100270001F910F91FF90EF900895CF93DF93EC01C2
:10028000888D8823C9F0EA89FB89808185FD05C0B6
:10029000A889B9898C9186FD0FC00FB607FCF5CFF0
:1002A000808185FFF2CFA889B9898C9185FFEDCF38
:1002B000CE010E94D500E7CFDF91CF91089580E075
:1002C00090E0892B29F00E94CB0081110C94000052
:1002D0000895833081F028F4813099F08230A1F0C4
:1002E00008958730A9F08830B9F08430D1F4809136
:1002F00080008F7D03C0809180008F778093800085
:10030000089584B58F7702C084B58F7D84BD08952C
:100310008091B0008F7703C08091B0008F7D809373
:10032000B00008953FB7F89480917F0290918002C9
:10033000A0918102B091820226B5A89B05C02F3FF3
:1003400019F00196A11DB11D3FBFBA2FA92F982FFB
:100350008827820F911DA11DB11DBC01CD0142E076
:10036000660F771F881F991F4A95D1F708958F92BE
:100370009F92AF92BF92CF92DF92EF92FF926B016A
:100380007C010E9492014B015C01C114D104E10483
:10039000F104F1F00E949201DC01CB018819990966
:1003A000AA09BB09883E9340A105B10570F321E07D
:1003B000C21AD108E108F10888EE880E83E0981E81
:1003C000A11CB11CC114D104E104F10419F7DDCF63
:1003D000FF90EF90DF90CF90BF90AF909F908F9065
:1003E0000895089580E090E008951F920F920FB64F
:1003F0000F9211242F933F934F935F936F937F93AB
:100400008F939F93AF93BF93EF93FF938EEA92E006
:100410000E94D500FF91EF91BF91AF919F918F9175
:100420007F916F915F914F913F912F910F900FBEF0
:100430000F901F9018951F920F920FB60F921124D4
:100440002F938F939F93EF93FF93E091BE02F091D0
:10045000BF028081E091C402F091C50282FD12C00A
:1004600090818091C7028F5F8F732091C80282179D
:1004700051F0E091C702F0E0E255FD4F958F809377
:10048000C70201C08081FF91EF919F918F912F91C1
:100490000F900FBE0F901F9018951F93CF93DF936F
:1004A000282F30E0F901E255FF4F8491F901E6561B
:1004B000FF4FD491F901EA57FF4FC491CC23C9F003
:1004C000162F81110E946901EC2FF0E0EE0FFF1F43
:1004D000EE58FF4FA591B4918FB7F894111105C054
:1004E0009C91ED2FE095E92302C0EC91ED2BEC936C
:1004F0008FBFDF91CF911F910895CF93DF93EC01D0
:1005000060E08E810E944D0261E08E810E944D026A
:1005100060E08E810E944D028BE891E00197F1F737
:10052000DF91CF910895CF93DF9390E0FC01E656E1
:10053000FF4F2491FC01EA57FF4F8491882361F11A
:1005400090E0880F991FFC01E859FF4FC591D491A5
:10055000FC01EE58FF4FA591B491611109C09FB7FE
:10056000F8948881209582238883EC912E230BC0F8
:10057000623061F49FB7F8943881822F809583238D
:100580008883EC912E2B2C939FBF06C08FB7F894D5
:10059000E8812E2B28838FBFDF91CF9108953F9262
:1005A0004F925F926F927F928F929F92AF92BF9283
:1005B000CF92DF92EF92FF920F931F93CF93DF932F
:1005C00000E010E033E0832E912C4DE8342E50E70C
:1005D000452E53E0552E612C712C62ECA62E60E066
:1005E000B62E79E9E72E70E0F72EEDEACE2EE0E0A8
:1005F000DE2EC801B4010E94010BFC01E85FFE4F32
:10060000D08161E08D2F0E944D02809101018331E4
:1006100019F4F501C49171C08F3F09F0A8C083E1BE
:1006200080930101F501C491CF3F09F4A0C0C1300E
:1006300001F1C23009F43FC0C1115FC014BC15BC48
:1006400084B5826084BD85B5816085BDF7018491E4
:10065000E82FF0E0EE0FFF1FEE58FF4F85919491C9
:100660009093750280937402F601849180937302D3
:1006700046C01092800010928100809181008860B5
:100680008093810080918100816080938100F701D7
:100690008491E82FF0E0EE0FFF1FEE58FF4F859199
:1006A00094919093720280937102F60184918093E9
:1006B0007002C1E024C01092B0001092B10080918D
:1006C000B00082608093B0008091B100816080931F
:1006D000B100F7018491E82FF0E0EE0FFF1FEE5814
:1006E000FF4F859194919093A8028093A702F60101
:1006F00084918093A902C2E002C0C7FD38C061E0C6
:1007000083E10E949302CC2309F459C0C23009F45A
:1007100069C0C130D1F480918100887F816080936D
:10072000810081E893E29093890080938800409251
:1007300076025092770260927802709279028091EC
:100740006F00826080936F0012C081E8C23079F43C
:100750008093B3004092AA025092AB026092AC0226
:100760007092AD028091700082608093700064EF9F
:1007700071E080E090E00E94B70160E08D2F0E9460
:100780004D0264EF71E080E090E00E94B7010F5FDE
:100790001F4F0630110509F02CCFDF91CF911F912B
:1007A0000F91FF90EF90DF90CF90BF90AF909F9010
:1007B0008F907F906F905F904F903F90089585B598
:1007C000887F836085BD37BC40927A0250927B025D
:1007D00060927C0270927D0280916E0082608093B4
:1007E0006E00C5CF8091B100887F84608093B10096
:1007F0008DE8AECF1F920F920FB60F9211242F9358
:100800003F938F939F93AF93BF9380918D0290916D
:100810008E02A0918F02B091900230917E0223E06F
:10082000230F2D3720F40196A11DB11D05C026E828
:10083000230F0296A11DB11D20937E0280938D028D
:1008400090938E02A0938F02B093900280917F02CA
:1008500090918002A0918102B09182020196A11D27
:10086000B11D80937F0290938002A0938102B09388
:100870008202BF91AF919F918F913F912F910F90E5
:100880000FBE0F901F901895CF92DF92EF92FF92BC
:100890000F931F93CF93DF937C016C0187E0C80E09
:1008A000D11CC0E0D0E0062F10E0B8010C2E02C031
:1008B000759567950A94E2F76170F60181916F0171
:1008C0000E944D022196C430D10579F7C701DF910E
:1008D000CF911F910F91FF90EF90DF90CF900C94EC
:1008E0007D02CF92DF92EF92FF920F931F93CF93EF
:1008F000DF93EC01F62E642F8C810E944D028D81D6
:100900008F3F19F060E00E944D028F850F2D10E09F
:1009100084FF25C06E0187E0C80ED11CE12CF12CAC
:10092000B8010E2C02C0759567950A94E2F76170C4
:10093000F60181916F010E944D02FFEFEF1AFF0A4D
:1009400088E0E816F10461F7CE01DF91CF911F91A5
:100950000F91FF90EF90DF90CF900C947D02B80143
:1009600084E0759567958A95E1F7CE010E9444046D
:100970006F2DCE01DF91CF911F910F91FF90EF90DE
:10098000DF90CF900C94440441E00E94710481E018
:1009900090E0089540E00C94710461E00E94CA0464
:1009A0008BE39FE10197F1F7089583E693E00E94BE
:1009B000CD0462E083E693E00E94CA048BE39FE1EA
:1009C0000197F1F780910001882349F083E391E0DA
:1009D0000E9456070E94AF0682E491E0A6C0809173
:1009E0009C028823B1F082E591E00E9456070E94A4
:1009F000AF06E0919B0286E0E89FF0011124E55BE1
:100A0000FC4F448155816081718183E693E00C94B1
:100A1000980580919A028823A9F08CE591E00E94C4
:100A200056076091990270E080E090E04AE00E94F1
:100A30005B070E94AF0688E691E00E94560760912E
:100A4000980218C0809197028823D1F083E791E043
:100A50000E9456076091960270E080E090E04AE0C4
:100A60000E945B070E94AF0688E691E00E9456074D
:100A70006091950270E080E090E04AE00C945B07A2
:100A800080919402882349F08FE791E00E945607F5
:100A90000E94AF068FE891E048C0809193028823BE
:100AA00049F08DE991E00E9456070E94AF068CEA5A
:100AB00091E03BC0809192028823B1F08091A50221
:100AC000811109C085EB91E00E9456070E94AF0694
:100AD0006091A40219C08EEC91E00E9456070E941A
:100AE000AF068EED91E021C0809191028823F9F04C
:100AF00080919E02811111C08DEE91E00E945607F7
:100B00000E94AF0660919D0270E080E090E04AE0B4
:100B10000E945B0785EC91E008C08DEF91E00E9498
:100B200056070E94AF068AE092E00C94560708959B
:100B3000CF92DF92EF92FF920F931F93CF93DF93A9
:100B40006C017A018B01C0E0D0E0CE15DF0589F0A1
:100B5000D8016D918D01D601ED91FC910190F0814C
:100B6000E02DC6010995892B11F47E0102C0219662
:100B7000ECCFC701DF91CF911F910F91FF90EF90C4
:100B8000DF90CF9008950E94480DEF92FF920F934F
:100B90001F93CF93DF93EC01198218821B821A8274
:100BA0001D821C8261157105A9F17B01FB01019079
:100BB0000020E9F731978F01061B170BB8016F5F13
:100BC0007F4F80E090E00E947E0C009759F099835F
:100BD00088831B830A832C813D81232B81F4FC01B4
:100BE00010820DC088819981009711F00E94E60B58
:100BF000198218821D821C821B821A820BC01D83DF
:100C00000C83B701DF91CF911F910F91FF90EF906F
:100C10000C94560DDF91CF911F910F91FF90EF90A3
:100C20000895EF92FF920F931F93CF93DF93EC0100
:100C3000623018F08F8588608F876B8B1C8A80E408
:100C40008D8B80E18E8B80E58F8B61E08C810E94A3
:100C500093028D818F3F19F061E00E94930261E061
:100C60008E810E9493027E0187E0E80EF11C00E075
:100C700010E08F8584FD03C084E090E002C088E02E
:100C800090E0081719074CF461E0F70181917F01AA
:100C90000E9493020F5F1F4FECCF8BE39DE0019703
:100CA000F1F760E08C810E944D0260E08E810E942D
:100CB0004D028D818F3F19F060E00E944D026F85DB
:100CC00064FD1DC063E0CE010E9444040BE416E401
:100CD000C8010197F1F763E0CE010E944404C80106
:100CE0000197F1F763E0CE010E94440483E592E0AE
:100CF0000197F1F762E0CE010E94440416C06062E1
:100D0000CE010E94CA048BE496E40197F1F76F8547
:100D10006062CE010E94CA0483E592E00197F1F778
:100D20006F856062CE010E94CA046F856062CE0149
:100D30000E94CA0484E0888B6CE0CE010E94CA0441
:100D4000CE010E94CD0482E0898B66E0CE01DF9166
:100D5000CF911F910F91FF90EF900C94CA04E091F6
:100D60007603E23010F4E15001C0E1E0F0E0ED592B
:100D7000FC4F6489606883E693E00C94CA041F9278
:100D80000F920FB60F9211242F933F934F935F93BF
:100D90006F937F938F939F93AF93BF93EF93FF9343
:100DA0008091AA029091AB02A091AC02B091AD02E9
:100DB000892B8A2B8B2B59F18091A902E091A702F4
:100DC000F091A8029081892780838091AA02909156
:100DD000AB02A091AC02B091AD02181619061A062A
:100DE0001B060CF03DC08091AA029091AB02A0912D
:100DF000AC02B091AD020197A109B1098093AA029A
:100E00009093AB02A093AC02B093AD0229C0809145
:100E10000101E2ECF0E0E4919FEF90930101E130F9
:100E2000B9F098F0E230C9F4909170009D7F9093F2
:100E3000700091E09093B0009091B100987F946021
:100E40009093B1001092B30008C010926E0005C0DC
:100E500090916F009D7F90936F0060E00E944D0223
:100E6000FF91EF91BF91AF919F918F917F916F9182
:100E70005F914F913F912F910F900FBE0F901F9058
:100E800018956115710579F0FB0101900020E9F7D3
:100E90003197AF01461B570BDC01ED91FC910280AD
:100EA000F381E02D099480E090E00895BC0183E691
:100EB00093E00C9441078F929F92AF92BF920F9351
:100EC0001F93CF93DF93CDB7DEB7A1970FB6F894FA
:100ED000DEBF0FBECDBF19A2423008F44AE08E013A
:100EE0000F5D1F4F842E912CA12CB12CA5019401D4
:100EF0000E94150BE62FB901CA0101501109EA3011
:100F000014F4E05D01C0E95CD801EC93232B242BA1
:100F1000252B61F7B80183E693E00E944107A19673
:100F20000FB6F894DEBF0FBECDBFDF91CF911F91FA
:100F30000F91BF90AF909F908F900895CF93DF93C4
:100F4000E091AE02F091AF020190F081E02D682FA8
:100F50008EEA92E00995EC0163E372E08EEA92E09A
:100F60000E9441078C0F9D1FDF91CF910895CF9371
:100F7000DF9300D01F92CDB7DEB7789484B582603E
:100F800084BD84B5816084BD85B5826085BD85B52D
:100F9000816085BD80916E00816080936E001092AB
:100FA0008100809181008260809381008091810026
:100FB00081608093810080918000816080938000B7
:100FC0008091B10084608093B1008091B000816015
:100FD0008093B00080917A00846080937A00809141
:100FE0007A00826080937A0080917A008160809399
:100FF0007A0080917A00806880937A001092C10014
:1010000062E083E693E00E94110683E693E00E948B
:10101000CD0462E083E693E00E94CA048BE39FE183
:101020000197F1F788E192E00E9456070E94AF060F
:1010300088E292E00E945607E091BE02F091BF0262
:1010400082E08083E091BA02F091BB021082E091CD
:10105000BC02F091BD028FEC80831092C602E09139
:10106000C202F091C30286E08083E091C002F09159
:10107000C102808180618083E091C002F091C10251
:10108000808188608083E091C002F091C1028081FC
:1010900080688083E091C002F091C10280818F7DE1
:1010A000808300E111E060E0F80181918F010E94EE
:1010B0009302F1E005311F07B1F761E08EE00E9475
:1010C000930261E08FE00E94930261E080E10E9460
:1010D000930261E083E10E94930268EE73E080E096
:1010E00090E00E94B7010E94D50401E0C12CD12CF0
:1010F0002FB7F89480918D0290918E02A0918F026B
:10110000B09190022FBF2091A602222321F12091BD
:10111000A502211120C02091A402211103C0009337
:10112000A50227C04091A0025091A1026091A202A5
:101130007091A3024C015D01841A950AA60AB70AB0
:1011400039EE831633E09306A104B104C8F12150AF
:101150002093A4022BC020919F02222389F1209189
:101160009E0221112DC020919D02211107C00093E4
:101170009E020E94D5040E94CF0222C04091A0028C
:101180005091A1026091A2027091A3024C015D01F5
:10119000841A950AA60AB70A39EE831633E0930635
:1011A000A104B10468F0215020939D028093A00215
:1011B0009093A102A093A202B093A3020E94D5042F
:1011C00042E050E090E0FA01E05FFE4F228130E023
:1011D000F901E255FF4F8491F901E656FF4FF49073
:1011E000F901EA57FF4F14911123E1F0882341F0F0
:1011F00049835A839B830E9469019B815A8149815B
:10120000212F30E0220F331F24583F4FF901A591C1
:10121000B491EC91EF2161E080E009F460E0262FC9
:10122000382F02C020E030E0822FFA01E857FD4F4E
:1012300022832130310551F4FA01ED57FD4F22810F
:10124000213021F0FA01E55FFE4F928120919A0250
:10125000211104C020919702222319F04230510538
:1012600020F0FA01ED57FD4F8283415051094D3F67
:101270008FEF580709F0A7CF9C3409F4CBC034F4A2
:10128000933459F0943409F4ACC008C1923509F490
:10129000F4C0953509F48AC001C183E40E949E0719
:1012A00080910001882319F010920001E3C0809121
:1012B0009C028823C1F010929C0280919B02813095
:1012C00061F040F0823061F0833009F087C0009314
:1012D000930284C000939A0281C0809397027EC0DB
:1012E000009394027BC080919A02882329F0809118
:1012F00098028093990272C080919702882329F006
:10130000809195028093960269C08091940288230F
:1013100069F066E572E08EEA92E00E94410763E3BD
:1013200072E08EEA92E00E94410758C080919302D9
:10133000882379F01092930200939202809199028F
:101340008093A4028091960280939D020093A6024E
:101350000EC0809192028823F1F08091A50288232B
:10136000E9F1109292020093910200939F022FB72D
:10137000F89480918D0290918E02A0918F02B0918D
:1013800090022FBF8093A0029093A102A093A2028B
:10139000B093A30223C0809191028823F9F0809139
:1013A0009E028823D9F0F601099518C085E50E94B0
:1013B0009E0780919A02882331F0809198028F3F96
:1013C00069F08F5F1AC080919702882339F080916D
:1013D00095028F3F19F08F5F809395020E94D5048C
:1013E0005DC084E40E949E0780919A02882341F0A8
:1013F00080919802882391F3815080939802EECFD8
:1014000080919702882351F380919502882331F3CC
:101410008150E2CF8CE40E949E0780919C02882339
:1014200029F080919B0290E0039633C080919A024C
:10143000882339F010929A02809199028093980241
:1014400019C080919702882339F0109297028091F9
:101450009602809395020EC080919402882319F021
:101460001092940207C080919302882309F4B6CFAA
:101470001092930200939C02B1CF82E50E949E07D6
:1014800080919C02882309F4A9CF80919B0290E06F
:1014900001968370992780939B02A0CF64E670E049
:1014A00080E090E00E94B7010E945F0121CECF93BF
:1014B000DF93C3E6D3E02697888199810E94E60BEB
:1014C00083E0CB34D807B9F7DF91CF910895EEEAE6
:1014D000F2E01382128288EE93E0A0E0B0E0848311
:1014E0009583A683B78389E191E09183808385EC1E
:1014F00090E09587848784EC90E09787868780ECDE
:1015000090E0918B808B81EC90E0938B828B82ECCE
:1015100090E0958B848B86EC90E0978B868B118E78
:10152000128E138E148EE3E6F3E0138212828BE2A6
:1015300091E09183808387E084838FEF858386E0C9
:10154000868385E0878384E0808783E0818782E0EB
:1015500082871386148615861686178661E0CF016A
:101560000E94110666E372E08BE493E00E94C505D9
:1015700064E472E081E593E00E94C50562E572E0F3
:1015800087E593E00E94C50564E672E08DE593E08F
:101590000C94C5052F923F924F925F926F927F926B
:1015A0008F929F92AF92BF92CF92DF92EF92FF9273
:1015B0000F931F93CF93DF93CDB7DEB7CA1BDB0B1F
:1015C0000FB6F894DEBF0FBECDBF09942A883988C4
:1015D00048885F846E847D848C849B84AA84B984CB
:1015E000C884DF80EE80FD800C811B81AA81B981D7
:1015F000CE0FD11D0FB6F894DEBF0FBECDBFED01EB
:10160000089597FB072E16F4009407D077FD09D0B4
:101610000E94370B07FC05D03EF4909581959F4FB3
:101620000895709561957F4F0895A1E21A2EAA1B27
:10163000BB1BFD010DC0AA1FBB1FEE1FFF1FA21782
:10164000B307E407F50720F0A21BB30BE40BF50B7F
:10165000661F771F881F991F1A9469F76095709508
:10166000809590959B01AC01BD01CF010895AA1B07
:10167000BB1B51E107C0AA1FBB1FA617B70710F07D
:10168000A61BB70B881F991F5A95A9F780959095AF
:10169000BC01CD010895EE0FFF1F0590F491E02DE0
:1016A0000994CF93DF938230910510F482E090E0AB
:1016B000E0917D03F0917E0320E030E0C0E0D0E0D7
:1016C000309711F14081518148175907C0F04817F0
:1016D000590761F482819381209719F09B838A8353
:1016E0002BC090937E0380937D0326C02115310586
:1016F00019F04217530718F49A01BE01DF01EF01F8
:101700000280F381E02DDCCF2115310509F1281B82
:10171000390B2430310590F412968D919C911397DA
:101720006115710521F0FB019383828304C09093BE
:101730007E0380937D03FD01329644C0FD01E20FDC
:10174000F31F81939193225031092D933C933AC01A
:1017500020917B0330917C03232B41F420910401E1
:101760003091050130937C0320937B03209102018B
:10177000309103012115310541F42DB73EB7409159
:10178000060150910701241B350BE0917B03F0917A
:101790007C03E217F307A0F42E1B3F0B2817390731
:1017A00078F0AC014E5F5F4F2417350748F04E0FBD
:1017B0005F1F50937C0340937B038193919302C0FE
:1017C000E0E0F0E0CF01DF91CF9108950F931F93F8
:1017D000CF93DF93009709F48CC0FC0132971382FA
:1017E000128200917D0310917E030115110581F491
:1017F00020813181820F931F20917B0330917C03E4
:101800002817390779F5F0937C03E0937B0371C0C7
:10181000D80140E050E0AE17BF0750F412962D916A
:101820003C911397AD012115310509F1D901F3CF91
:101830009D01DA013383228360817181860F971FB6
:101840008217930769F4EC0128813981260F371F2D
:101850002E5F3F4F318320838A819B8193838283D4
:10186000452B29F4F0937E03E0937D0342C0139649
:10187000FC93EE931297ED01499159919E01240F2B
:10188000351FE217F30771F480819181840F951F52
:10189000029611969C938E938281938113969C93CA
:1018A0008E931297E0E0F0E0D80112968D919C9112
:1018B0001397009719F0F8018C01F6CF8D919C9148
:1018C00098012E5F3F4F820F931F20917B03309131
:1018D0007C032817390769F4309729F410927E03A6
:1018E00010927D0302C01382128210937C03009336
:1018F0007B03DF91CF911F910F910895A0E0B0E09D
:10190000E4E8FCE00C94CE0AEC01009721F4CB0152
:101910000E94510BB8C0FC01E60FF71F9C0122503A
:101920003109E217F30708F4ACC0D9010D911C91FD
:10193000119706171707B0F00530110508F49FC07E
:10194000C80104978617970708F499C00250110937
:10195000061B170B019311936D937C93CF010E948B
:10196000E60B8DC05B01A01AB10A4C01800E911EDE
:10197000A0917D03B0917E0340E050E0E12CF12C7A
:10198000109709F44AC0A815B905D1F56D907C905F
:101990001197630182E0C80ED11CCA14DB0480F1E8
:1019A000A3014A195B096A0182E0C80ED11C129694
:1019B000BC9012971396AC91B5E0CB16D10440F0D1
:1019C000B282A38351834083D9016D937C930AC073
:1019D0000E5F1F4FC301800F911FF9019183808318
:1019E000EB2DFA2FE114F10431F0D7011396FC939B
:1019F000EE93129744C0F0937E03E0937D033FC0C3
:101A00008D919C9111974817590708F4AC017D01FD
:101A100012960D90BC91A02DB3CF80917B03909135
:101A20007C0388159905E1F446175707C8F480919F
:101A3000020190910301009741F48DB79EB7409148
:101A4000060150910701841B950BE817F907C8F4AC
:101A5000F0937C03E0937B03F901718360830FC0F3
:101A6000CB010E94510B7C01009759F0A801BE01E7
:101A70000E944D0DCE010E94E60BC70104C0CE01AD
:101A800002C080E090E0CDB7DEB7EEE00C94EA0A49
:101A900081E090E0F8940C945D0DFB01DC0102C044
:101AA00001900D9241505040D8F70895FB01DC01A0
:101AB00001900D920020E1F7089510E0C3E6D0E018
:101AC00004C0FE010E944B0B2196C436D107C9F712
:041AD000F894FFCFB8
:101AD40001FF00007F0380000E0F10434C44555259
:101AE40008090A0B0C00000000F60098058E003D62
:101AF40001BF009D00B10000000000C4049805F27D
:101B040001F1014272657754696D65722076302E59
:101B140032003E707265737320746F207374617247
:101B240074004D41494E204D454E55004D6173683A
:101B34002074696D653A20004E65772074696D657F
:101B44003A2000426F696C2074696D653A20005434
:101B54006869732066656174757265206973006EC7
:101B64006F742079657420616464656400507265E3
:101B7400737320746F20737461727400627265777A
:101B840020646179004D6173682074696D65206C0F
:101B94006566743A00207365636F6E6473004D610B
:101BA4007368696E6720697320646F6E6500507294
:101BB40065737320666F7220626F696C00426F698F
:101BC4006C2074696D65206C6566743A00426F69B7
:101BD4006C20697320646F6E6500507265737320A6
:101BE400746F206578697400427265772074696D3A
:101BF40065722076302E32004C6F6164696E672EF8
:101C04002E2E000D0A00536574206D6173682074D4
:101C1400696D650053657420626F696C2074696D29
:101C2400650053657420686F702061646420746972
:101C34006D65730053746172742074696D6572000C
:00000001FF
