:100000000C9464000C948C000C948C000C948C0068
:100010000C948C000C948C000C948C000C94B40206
:100020000C948C000C948C000C948C000C948C0020
:100030000C948C000C948C000C948C000C948C0010
:100040000C94DE030C948C000C9452020C942C0241
:100050000C948C000C948C000C948C000C948C00F0
:100060000C948C000C948C000000000024002700ED
:100070002A000000000023002600290000000008DC
:10008000000201000003040700000000000000005F
:10009000010204081020408001020408102001021F
:1000A0000408102000000000250028002B00040494
:1000B0000404040404040202020202020303030310
:1000C000030302002A0D1A0D11241FBECFEFD8E042
:1000D000DEBFCDBF23E0AAEAB2E001C01D92A53D7C
:1000E000B207E1F712E0A0E0B1E0E6EBF0E202C017
:1000F00005900D92AA3AB107D9F710E0C3E6D0E017
:1001000004C02197FE010E943C0EC236D107C9F7F8
:100110000E946E090C944E100C940000CF92DF9256
:10012000EF92FF920F931F93CF93DF936C017A01AD
:100130008B01C0E0D0E0CE15DF0589F0D8016D91CC
:100140008D01D601ED91FC910190F081E02DC60169
:100150000995892B11F47E0102C02196ECCFC701CD
:10016000DF91CF911F910F91FF90EF90DF90CF9093
:100170000895FC01538D448D252F30E0842F90E0AD
:10018000821B930B541710F0CF9608950197089592
:10019000FC01918D828D981761F0828DDF01A80F8F
:1001A000B11D5D968C91928D9F5F9F73928F90E0B1
:1001B00008958FEF9FEF0895FC01918D828D981720
:1001C00031F0828DE80FF11D858D90E008958FEF5D
:1001D0009FEF0895FC01918D228D892F90E0805C26
:1001E0009F4F821B91098F739927089586EF92E0A4
:1001F0000E94EA0021E0892B09F420E0822F089573
:10020000FC01848DDF01A80FB11DA35ABF4F2C91B3
:10021000848D90E001968F739927848FA689B78982
:100220002C93A089B1898C9180648C93938D848D5B
:10023000981306C00288F389E02D80818F7D80832A
:100240000895EF92FF920F931F93CF93DF93EC01EA
:1002500081E0888F9B8D8C8D981305C0E889F98982
:10026000808185FD24C0F62E0B8D10E00F5F1F4F9F
:100270000F731127E02E8C8DE8120CC00FB607FC0F
:10028000FACFE889F989808185FFF5CFCE010E94F8
:100290000001F1CF8B8DFE01E80FF11DE35AFF4FF6
:1002A000F0820B8FEA89FB898081806207C0EE892A
:1002B000FF896083E889F98980818064808381E097
:1002C00090E0DF91CF911F910F91FF90EF900895F3
:1002D000CF93DF93EC01888D8823C9F0EA89FB89ED
:1002E000808185FD05C0A889B9898C9186FD0FC0E4
:1002F0000FB607FCF5CF808185FFF2CFA889B989B9
:100300008C9185FFEDCFCE010E940001E7CFDF91F8
:10031000CF91089580E090E0892B29F00E94F600AB
:1003200081110C9400000895833081F028F481300D
:1003300099F08230A1F008958730A9F08830B9F0A3
:100340008430D1F4809180008F7D03C08091800043
:100350008F7780938000089584B58F7702C084B52D
:100360008F7D84BD08958091B0008F7703C0809108
:10037000B0008F7D8093B00008953FB7F8948091CE
:10038000AF029091B002A091B102B091B20226B535
:10039000A89B05C02F3F19F00196A11DB11D3FBFBD
:1003A000BA2FA92F982F8827820F911DA11DB11D4B
:1003B000BC01CD0142E0660F771F881F991F4A9547
:1003C000D1F708958F929F92AF92BF92CF92DF9212
:1003D000EF92FF926B017C010E94BD014B015C0119
:1003E000C114D104E104F104F1F00E94BD01DC016B
:1003F000CB0188199909AA09BB09883E9340A10538
:10040000B10570F321E0C21AD108E108F10888EEC5
:10041000880E83E0981EA11CB11CC114D104E10414
:10042000F10419F7DDCFFF90EF90DF90CF90BF90F0
:10043000AF909F908F9008952FB7F8946091AB0282
:100440007091AC028091AD029091AE022FBF0895E1
:10045000089580E090E008951F920F920FB60F92DA
:1004600011242F933F934F935F936F937F938F93B9
:100470009F93AF93BF93EF93FF9386EF92E00E9419
:100480000001FF91EF91BF91AF919F918F917F916B
:100490006F915F914F913F912F910F900FBE0F90F1
:1004A0001F9018951F920F920FB60F9211242F9341
:1004B0008F939F93EF93FF93E0910603F0910703CF
:1004C0008081E0910C03F0910D0382FD12C09081B8
:1004D00080910F038F5F8F7320911003821751F06B
:1004E000E0910F03F0E0EA50FD4F958F80930F03EA
:1004F00001C08081FF91EF919F918F912F910F907B
:100500000FBE0F901F9018951F93CF93DF93282F46
:1005100030E0F901E458FF4F8491F901E057FF4FB3
:10052000D491F901E255FF4FC491CC23C9F0162FA5
:1005300081110E949401EC2FF0E0EE0FFF1FEC55AB
:10054000FF4FA591B4918FB7F894111105C09C91FC
:10055000ED2FE095E92302C0EC91ED2BEC938FBFDA
:10056000DF91CF911F9108951F920F920FB60F92B6
:1005700011242F933F934F935F936F937F938F93A8
:100580009F93AF93BF93EF93FF938091F20290916B
:10059000F302A091F402B091F502892B8A2B8B2BE8
:1005A00059F18091EF02E091F002F091F102908117
:1005B000892780838091F2029091F302A091F40246
:1005C000B091F502181619061A061B060CF03DC06C
:1005D0008091F2029091F302A091F402B091F502A1
:1005E0000197A109B1098093F2029093F302A093BD
:1005F000F402B093F50229C080910101E2ECF0E031
:10060000E4919FEF90930101E130B9F098F0E2306E
:10061000C9F4909170009D7F9093700091E0909349
:10062000B0009091B100987F94609093B1001092C7
:10063000B30008C010926E0005C090916F009D7FBE
:1006400090936F0060E00E948402FF91EF91BF9150
:10065000AF919F918F917F916F915F914F913F915A
:100660002F910F900FBE0F901F901895CF93DF938F
:10067000EC0160E08E810E94840261E08E810E9424
:10068000840260E08E810E9484028BE891E00197F1
:10069000F1F7DF91CF910895FF920F931F93CF93BE
:1006A000DF93C0E0D0E003E010E0F090E602F1104C
:1006B00008C08091ED02882339F061E08EE00E944D
:1006C000840261E08FE009C0CE01B8010E94D30D21
:1006D000FC01E85FFE4F61E080810E94840280E7B8
:1006E00093E00E943E0764EF71E080E090E00E949A
:1006F000E201F11008C08091ED02882339F060E03A
:100700008EE00E94840260E08FE009C0CE01B80153
:100710000E94D30DFC01E85FFE4F60E080810E94E3
:10072000840264EF71E080E090E00E94E201219693
:10073000C630D10509F0B9CFDF91CF911F910F914C
:10074000FF900895CF93DF9390E0FC01E057FF4FB7
:100750002491FC01E255FF4F8491882361F190E0E0
:10076000880F991FFC01E859FF4FC591D491FC01F6
:10077000EC55FF4FA591B491611109C09FB7F89452
:100780008881209582238883EC912E230BC06230D0
:1007900061F49FB7F8943881822F809583238883F2
:1007A000EC912E2B2C939FBF06C08FB7F894E88155
:1007B0002E2B28838FBFDF91CF9108951F920F9228
:1007C0000FB60F9211242F933F938F939F93AF9364
:1007D000BF938091AB029091AC02A091AD02B09119
:1007E000AE023091AA0223E0230F2D3720F40196A8
:1007F000A11DB11D05C026E8230F0296A11DB11D44
:100800002093AA028093AB029093AC02A093AD0216
:10081000B093AE028091AF029091B002A091B1026C
:10082000B091B2020196A11DB11D8093AF029093C9
:10083000B002A093B102B093B202BF91AF919F9169
:100840008F913F912F910F900FBE0F901F90189591
:10085000CF92DF92EF92FF920F931F93CF93DF938C
:100860007C016C0187E0C80ED11CC0E0D0E0062FEF
:1008700010E0B8010C2E02C0759567950A94E2F756
:100880006170F60181916F010E9484022196C4304B
:10089000D10579F7C701DF91CF911F910F91FF909B
:1008A000EF90DF90CF900C943603CF92DF92EF92CF
:1008B000FF920F931F93CF93DF93EC01F62E642FDB
:1008C0008C810E9484028D818F3F19F060E00E942C
:1008D00084028F850F2D10E084FF25C06E0187E014
:1008E000C80ED11CE12CF12CB8010E2C02C075955C
:1008F00067950A94E2F76170F60181916F010E9499
:100900008402FFEFEF1AFF0A88E0E816F10461F7AE
:10091000CE01DF91CF911F910F91FF90EF90DF906B
:10092000CF900C943603B80184E0759567958A954D
:10093000E1F7CE010E9428046F2DCE01DF91CF9107
:100940001F910F91FF90EF90DF90CF900C942804AF
:1009500041E00E94550481E090E0089540E00C944D
:10096000550461E00E94AE048BE39FE10197F1F72B
:1009700008958BEA93E00E94B1040E9434078091AD
:100980000001882349F083E391E00E94E5060E947C
:10099000EE0682E491E0D7C08091CF028823B1F0C7
:1009A00082E591E00E94E5060E94EE06E091CE020B
:1009B00086E0E89FF0011124ED56FC4F44815581FB
:1009C000608171818BEA93E00C948E008091CA0261
:1009D000882389F08CE591E00E94E5068091C902A8
:1009E0000E94E7060E94EE0688E691E00E94E50676
:1009F0008091C80214C08091C702882391F084E7D7
:100A000091E00E94E5068091C6020E94E7060E94DE
:100A1000EE0688E691E00E94E5068091C5020C94FE
:100A2000E7068091CD028823A9F080E891E00E943A
:100A3000E5060E94EE0680E991E00E94E5068091BD
:100A4000CC020E94E70685E991E00E94E5068091CC
:100A5000C402E5CF8091CB02882399F08BE991E025
:100A60000E94E5068091C30290E001960E94FE0676
:100A70000E94EE0686E991E00E94E5068091C002A0
:100A8000CECF8091BF02882369F08091C3020E947B
:100A9000E70683E992E00E94E5060E94EE0689EAF5
:100AA00091E051C08091C202882349F080EB91E02F
:100AB0000E94E5060E94EE068FEB91E044C0809113
:100AC000C102882349F088EC91E00E94E5060E946B
:100AD000EE0685ED91E037C08091BE028823B1F02B
:100AE0008091ED02811109C08FED91E00E94E50631
:100AF0000E94EE068091EC0219C088EF91E00E94FE
:100B0000E5060E94EE0688E092E01DC08091BD02DD
:100B10008823D9F08091E60281110DC087E192E02F
:100B20000E94E5060E94EE068091E5020E94E7061B
:100B30008FEE91E008C087E292E00E94E5060E94F5
:100B4000EE0684E392E00C94E5060895009769F0C0
:100B5000FC0101900020E9F73197AF01481B590BC8
:100B6000BC018BEA93E00C948E0080E090E0089545
:100B70008F929F92AF92BF920F931F93CF93DF9369
:100B8000CDB7DEB7A1970FB6F894DEBF0FBECDBFCD
:100B900019A2423008F44AE08E010F5D1F4F842EE7
:100BA000912CA12CB12CA50194010E94E70DE62FF8
:100BB000B901CA0101501109EA3014F4E05D01C025
:100BC000E95CD801EC93232B242B252B61F7C8017A
:100BD0000E94A605A1960FB6F894DEBF0FBECDBF4A
:100BE000DF91CF911F910F91BF90AF909F908F9009
:100BF00008950E943910EF92FF920F931F93CF93A5
:100C0000DF93EC01198218821B821A821D821C82DA
:100C100061157105A9F17B01FB0101900020E9F745
:100C200031978F01061B170BB8016F5F7F4F80E074
:100C300090E00E946F0F009759F0998388831B837F
:100C40000A832C813D81232B81F4FC0110820DC08D
:100C500088819981009711F00E94D70E198218821D
:100C60001D821C821B821A820BC01D830C83B7015C
:100C7000DF91CF911F910F91FF90EF900C9447104F
:100C8000DF91CF911F910F91FF90EF900895EF9218
:100C9000FF920F931F93CF93DF93EC01623018F014
:100CA0008F8588608F876B8B1C8A80E48D8B80E1B9
:100CB0008E8B80E58F8B61E08C810E94A2038D81F9
:100CC0008F3F19F061E00E94A20361E08E810E94D3
:100CD000A2037E0187E0E80EF11C00E010E08F85A2
:100CE00084FD03C084E090E002C088E090E0081733
:100CF00019074CF461E0F70181917F010E94A20382
:100D00000F5F1F4FECCF8BE39DE00197F1F760E0A1
:100D10008C810E94840260E08E810E9484028D8119
:100D20008F3F19F060E00E9484026F8564FD1DC052
:100D300063E0CE010E9428040BE416E4C801019789
:100D4000F1F763E0CE010E942804C8010197F1F792
:100D500063E0CE010E94280483E592E00197F1F759
:100D600062E0CE010E94280416C06062CE010E949B
:100D7000AE048BE496E40197F1F76F856062CE01D3
:100D80000E94AE0483E592E00197F1F76F856062FF
:100D9000CE010E94AE046F856062CE010E94AE0457
:100DA00084E0888B6CE0CE010E94AE04CE010E94EC
:100DB000B10482E0898B66E0CE01DF91CF911F9173
:100DC0000F91FF90EF900C94AE040C94A605682F41
:100DD00070E080E090E04AE00C94B805E091BE033A
:100DE000E23010F4E15001C0E1E0F0E0E555FC4FE5
:100DF000648960688BEA93E00C94AE04CF92DF9232
:100E0000EF92FF92CF93DF936C01990FEE08FF08EA
:100E1000F7FE1FC0E091AB03F091AC030190F081AD
:100E2000E02D6DE28BEA93E00995EC0166277727C8
:100E3000CB016C197D098E099F094AE00E94B80513
:100E40008C0F9D1FDF91CF91FF90EF90DF90CF909F
:100E500008954AE0C701B601DF91CF91FF90EF906E
:100E6000DF90CF900C94B80562E08BEA93E00E948B
:100E7000AE048BE39FE10197F1F708954F925F92E3
:100E80006F927F928F929F92AF92BF92CF92DF929A
:100E9000EF92FF921F93CF93DF93209101012331B3
:100EA00021F02F3F09F00AC204C0E2ECF0E01491F7
:100EB00072C023E120930101E2ECF0E014911F3FA6
:100EC00009F4FCC1113009F1123009F441C01111CB
:100ED00062C014BC15BC24B5226024BD25B52160B8
:100EE00025BDE1ECF0E0E491F0E0EE0FFF1FEC55E2
:100EF000FF4F259134913093C8032093C703E3EA51
:100F0000F0E0E491E093C60348C010928000109294
:100F10008100209181002860209381002091810030
:100F2000216020938100E1ECF0E0E491F0E0EE0F2D
:100F3000FF1FEC55FF4F259134913093C50320934B
:100F4000C403E3EAF0E0E491E093C30311E025C0B9
:100F50001092B0001092B1002091B0002260209356
:100F6000B0002091B10021602093B100E1ECF0E0ED
:100F7000E491F0E0EE0FFF1FEC55FF4F2591349107
:100F80003093F1022093F002E3EAF0E0E491E09381
:100F9000EF0212E002C017FD91C1EC0161E083E1B4
:100FA0000E94A2034E01A12CB12C812F8D7F09F04C
:100FB000B6C060E072E18AE790E0A50194010E946A
:100FC000090E29013A0169017A0121E0C21AD1080A
:100FD000E108F1088FEFC816D104E104F10409F02B
:100FE00008F44BC060E472E48FE090E0A501940146
:100FF0000E94090E69017A0181E0C81AD108E1084E
:10100000F108123001F52FEFC216D104E104F1040A
:1010100009F008F451C160E970ED83E090E0A501AA
:1010200094010E94090E69017A0181E0C81AD10871
:10103000E108F1082FEFC216D104E104F10409F030
:10104000C0F593E065C08FEFC816D104E104F10448
:10105000B1F0A8F068E478EE81E090E0A501940199
:101060000E94090E69017A0181E0C81AD108E108DD
:10107000F108112309F4C8C016C191E001C092E043
:10108000112391F045C0D301C2012AE0B595A7957F
:10109000979587952A95D1F76C017D0121E0C21AB9
:1010A000D108E108F10895E085B5887F982B95BDBA
:1010B00065C068E478EE81E090E0A50194010E94AB
:1010C000090E69017A0181E0C81AD108E108F10826
:1010D0002FEFC216D104E104F10409F008F492C024
:1010E00064E274EF80E090E0A50194010E94090E93
:1010F00069017A0181E0C81AD108E108F1082FEFEF
:10110000C216D104E104F10411F008F09FC095E08B
:101110008091B100887F982B9093B1002FC060E040
:1011200072E18AE790E0A50194010E94090E69012D
:101130007A0181E0C81AD108E108F108C114D1048C
:1011400021E0E206F10488F068E478EE81E090E0C6
:10115000A50194010E94090E69017A0181E0C81A73
:10116000D108E108F10893E001C091E0113031F4B9
:1011700080918100887F892B809381009E01220FBE
:10118000331FA4EFB1E00E94C40D28EE33E040E02D
:1011900050E00E94E70D113099F0123019F1111151
:1011A0008DC0C7BC2093CD033093CE034093CF03B3
:1011B0005093D00380916E00826080936E007EC059
:1011C000D0928900C09288002093C9033093CA034B
:1011D0004093CB035093CC0380916F008260809347
:1011E0006F006CC0C092B3002093F2023093F30200
:1011F0004093F4025093F5028091700082608093D6
:1012000070005CC094E084CF8FEFC816D104E10475
:10121000F104D1F0C8F062E17AE780E090E0A50146
:1012200094010E94090E69017A0181E0C81AD1086F
:10123000E108F1082FEFC216D104E104F10411F026
:1012400008F021CF94E030CF93E02ECF62E17AE72F
:1012500080E090E0A50194010E94090E69017A01E5
:1012600081E0C81AD108E108F1082FEFC216D104B5
:10127000E104F104B1F0A8F0D301C2015AE0B59540
:10128000A795979587955A95D1F76C017D0121E037
:10129000C21AD108E108F108112309F404CF97E03C
:1012A00037CF96E0EDCE8FEFC816D104E104F104FC
:1012B00009F060F694E0E4CE92E02ACFDF91CF917E
:1012C0001F91FF90EF90DF90CF90BF90AF909F90D5
:1012D0008F907F906F905F904F900895CF93DF93A2
:1012E00000D01F92CDB7DEB7789484B5826084BDFC
:1012F00084B5816084BD85B5826085BD85B581601A
:1013000085BD80916E00816080936E001092810097
:101310008091810082608093810080918100816052
:101320008093810080918000816080938000809113
:10133000B10084608093B1008091B000816080939F
:10134000B00080917A00846080937A0080917A0066
:10135000826080937A0080917A00816080937A0025
:1013600080917A00806880937A001092C10062E0D8
:101370008BEA93E00E9447068BEA93E00E94B10457
:101380000E94340782E492E00E94E5060E94EE0685
:1013900082E592E00E94E506E0910603F0910703E2
:1013A00082E08083E0910203F09103031082E091D8
:1013B0000403F09105038FEC808310920E03E091FB
:1013C0000A03F0910B0386E08083E0910803F0911B
:1013D0000903808180618083E0910803F091090313
:1013E000808188608083E0910803F0910903808107
:1013F00080688083E0910803F091090380818F7DEC
:10140000808300E111E060E0F80181918F010E948A
:10141000A203F1E005311F07B1F761E08EE00E9401
:10142000A20361E08FE00E94A20361E080E10E94DC
:10143000A20361E083E10E94A20368EE73E080E012
:1014400090E00E94E2010E94B904212C312C0FEFA0
:101450001FEFF3E0FF2E0E941C022091EE022223D8
:1014600079F12091ED0221112BC02091EC02211184
:1014700004C081E08093ED0232C08090E802909039
:10148000E902A090EA02B090EB022B013C0148185F
:1014900059086A087B0839EE431633E053066104A5
:1014A000710408F121502093EC026093E8027093DC
:1014B000E9028093EA029093EB020E94B90413C000
:1014C0002091E702222379F02091E60221110BC03E
:1014D0002091E50221110BC081E08093E6020E9479
:1014E000B9040E944C0342E050E070E0C1C080901B
:1014F000E8029090E902A090EA02B090EB022B0182
:101500003C01481859086A087B0839EE431633E055
:1015100053066104710438F321502093E50260936F
:10152000E8027093E9028093EA029093EB020E9432
:10153000B904E1EDCE2EE2E0DE2EA12CB12C80919B
:10154000D00290E0A816B90674F68091E50290E00A
:10155000F60120813181281739070CF452C08BEA3B
:1015600093E00E94B1040E9434078DE592E00E944E
:10157000E5060E94EE06F601808191810E94FE063A
:101580008BE692E00E94E50673E0872E912C61E0E5
:1015900080E10E94840288EE93E00E943E0764EF9F
:1015A00071E080E090E00E94E20160E080E10E9452
:1015B000840264EF71E080E090E00E94E2010E940A
:1015C0001C024090E8025090E9026090EA0270909C
:1015D000EB02DC01CB0184199509A609B709893E04
:1015E0009340A105B10520F0E090E502E11014C29E
:1015F00021E0821A910859F60E94B904F60111837C
:101600000083FFEFAF1ABF0A22E0C20ED11C97CFB2
:10161000882341F04A835B8379830E949401798116
:101620005B814A812E2D30E0220F331F2E583F4F11
:10163000F901A591B491EC91DE2261E080E009F41A
:1016400060E0262F382F622FFA01E854FD4F2283E5
:101650002130310519F18091CA02882351F14230BD
:10166000510598F5415051094D3F3FEF530791F116
:10167000FA01E05FFE4F228130E0F901E458FF4FAC
:101680008491F901E057FF4FD490F901E255FF4FE3
:10169000E490E110BDCF20E030E0D5CFFA01ED5469
:1016A000FD4F82818130B9F2FA01E55FFE4F728110
:1016B000D2CF2091C7022111D2CF2091CD0221118A
:1016C000CECF2091CB022111CACFFA01ED54FD4FAC
:1016D0006283C8CF7C3409F41DC134F4733459F0EB
:1016E000743409F4EBC08FC1723509F469C17535E2
:1016F00009F4B3C088C1909100019111B2C09091DA
:10170000CF029923C1F01092CF028091CE02813096
:1017100079F050F0823009F443C1833009F0CBC036
:1017200081E08093C202C7C081E08093CA02C3C037
:101730008093C702C0C0882329F08091C80280939B
:10174000C902B9C08091C702882329F08091C502DF
:101750008093C602B0C08091CD02882329F0809189
:10176000C4028093CC02A7C08091CB028823E1F011
:101770008091C302E82FF0E0EE0FFF1FEF52FD4F04
:101780002091C00230E0318320831092C0028F5F2D
:101790008093C3029091D00289138DC01092CB0226
:1017A00081E08093BF0287C08091BF02882341F00F
:1017B0001092BF0281E08093CF02F092CE027BC0F4
:1017C0008091C2028823D1F02091C902222381F0A6
:1017D0009091C602992361F01092C20281E0809339
:1017E000BE022093EC029093E5028093EE021FC0AC
:1017F0001092C20281E08093C1025DC08091C1025B
:10180000882329F01092C1021092CE02A3C08091C9
:10181000BE028823B9F08091ED02882309F44BC001
:101820001092BE0281E08093BD028093E7020E9485
:101830001C026093E8027093E9028093EA0290939D
:10184000EB0239C08091BD028823A9F18091E602A4
:10185000882389F1F10109952EC090910001992307
:1018600019F01092000176C0882331F08091C802EF
:101870008F3F09F18F5F2DC08091C702882331F01F
:101880008091C5028F3FB9F08F5F2FC08091CD024C
:10189000882331F08091C4028A3068F48F5F2FC0B2
:1018A0008091CB02882339F08091C0028F3F19F0DC
:1018B0008F5F8093C0020E94B904A5C0909100017F
:1018C0009111CFCF882341F08091C802882399F3EA
:1018D00081508093C802EFCF8091C702882341F0E6
:1018E0008091C502882339F381508093C502E3CFEC
:1018F0008091CD02882331F08091C4028150809381
:10190000C402D9CF8091CB028823A9F28091C00272
:101910008150CFCF909100019111A3CF9091CF0230
:10192000992329F08091CE0290E0039655C0882338
:1019300039F01092CA028091C9028093C8020AC08D
:101940008091C702882351F01092C7028091C6028D
:101950008093C50281E08093CF02ADCF8091CD020C
:10196000882339F01092CD028091CC028093C4027A
:10197000F1CF8091CB028823B9F01092CB028091F5
:10198000D00290E0E1EDF2E020E030E028173907E6
:101990002CF4119211922F5F3F4FF8CF1092C30297
:1019A00081E08093CD0287CF8091C202882319F015
:1019B0001092C202CFCF8091C102811123CF7BCF81
:1019C0008091000181114DCF8091CF02882349F091
:1019D0008091CE0290E00196837099278093CE0289
:1019E0006ACF8091CD02882309F465CF8091CC0223
:1019F000882309F460CF8093D0021092CD0281E059
:101A00008093CB0258CF64E670E080E090E00E94C3
:101A1000E2010E948A011FCD0E941C026093E8022D
:101A20007093E9028093EA029093EB02EA94E092C9
:101A3000E502DECDCF93DF93CBEAD3E02697888112
:101A400099810E94D70E83E0C339D807B9F7DF9197
:101A5000CF910895E6EFF2E01382128288EE93E0D0
:101A6000A0E0B0E084839583A683B78389E191E009
:101A70009183808385EC90E09587848784EC90E067
:101A80009787868780EC90E0918B808B81EC90E04B
:101A9000938B828B82EC90E0958B848B86EC90E02C
:101AA000978B868B118E128E138E148EEBEAF3E0D9
:101AB000138212828BE291E09183808387E084839A
:101AC0008FEF858386E0868385E0878384E0808747
:101AD00083E0818782E082871386148615861686C6
:101AE000178661E0CF010E94470664E772E083E950
:101AF00093E00E94FB0562E872E089E993E00E94AE
:101B0000FB0560E972E08FE993E00E94FB056EE956
:101B100072E085EA93E00C94FB052F923F924F927E
:101B20005F926F927F928F929F92AF92BF92CF926D
:101B3000DF92EF92FF920F931F93CF93DF93CDB776
:101B4000DEB7CA1BDB0B0FB6F894DEBF0FBECDBFEE
:101B500009942A88398848885F846E847D848C84BF
:101B60009B84AA84B984C884DF80EE80FD800C81C8
:101B70001B81AA81B981CE0FD11D0FB6F894DEBFAB
:101B80000FBECDBFED010895A29FB001B39FC0016C
:101B9000A39F700D811D1124911DB29F700D811D99
:101BA0001124911D089597FB072E16F4009407D079
:101BB00077FD09D00E94280E07FC05D03EF49095D1
:101BC00081959F4F0895709561957F4F0895A1E28B
:101BD0001A2EAA1BBB1BFD010DC0AA1FBB1FEE1FA7
:101BE000FF1FA217B307E407F50720F0A21BB30BF2
:101BF000E40BF50B661F771F881F991F1A9469F76E
:101C000060957095809590959B01AC01BD01CF01C9
:101C10000895052E97FB1EF400940E94200E57FD98
:101C200007D00E94E70D07FC03D04EF40C94200E61
:101C300050954095309521953F4F4F4F5F4F0895F8
:101C400090958095709561957F4F8F4F9F4F089528
:101C5000AA1BBB1B51E107C0AA1FBB1FA617B707D2
:101C600010F0A61BB70B881F991F5A95A9F78095EE
:101C70009095BC01CD010895EE0FFF1F0590F491E2
:101C8000E02D0994CF93DF938230910510F482E028
:101C900090E0E091D303F091D40320E030E0C0E085
:101CA000D0E0309711F14081518148175907C0F0B9
:101CB0004817590761F482819381209719F09B831B
:101CC0008A832BC09093D4038093D30326C021151D
:101CD000310519F04217530718F49A01BE01DF01CC
:101CE000EF010280F381E02DDCCF2115310509F1F0
:101CF000281B390B2430310590F412968D919C915C
:101D000013976115710521F0FB019383828304C051
:101D10009093D4038093D303FD01329644C0FD0118
:101D2000E20FF31F81939193225031092D933C933D
:101D30003AC02091D1033091D203232B41F420915A
:101D40000401309105013093D2032093D1032091F7
:101D50000201309103012115310541F42DB73EB741
:101D60004091060150910701241B350BE091D103EE
:101D7000F091D203E217F307A0F42E1B3F0B2817B4
:101D8000390778F0AC014E5F5F4F2417350748F0F4
:101D90004E0F5F1F5093D2034093D10381939193D1
:101DA00002C0E0E0F0E0CF01DF91CF9108950F9302
:101DB0001F93CF93DF93009709F48CC0FC013297F7
:101DC000138212820091D3031091D40301151105DF
:101DD00081F420813181820F931F2091D1033091B2
:101DE000D2032817390779F5F093D203E093D10392
:101DF00071C0D80140E050E0AE17BF0750F4129612
:101E00002D913C911397AD012115310509F1D901AF
:101E1000F3CF9D01DA013383228360817181860FC4
:101E2000971F8217930769F4EC0128813981260FE7
:101E3000371F2E5F3F4F318320838A819B8193839D
:101E40008283452B29F4F093D403E093D30342C05B
:101E50001396FC93EE931297ED01499159919E01CF
:101E6000240F351FE217F30771F480819181840FED
:101E7000951F029611969C938E938281938113965F
:101E80009C938E931297E0E0F0E0D80112968D912A
:101E90009C911397009719F0F8018C01F6CF8D9162
:101EA0009C9198012E5F3F4F820F931F2091D10389
:101EB0003091D2032817390769F4309729F410922A
:101EC000D4031092D30302C0138212821093D20360
:101ED0000093D103DF91CF911F910F910895A0E05E
:101EE000B0E0E5E7FFE00C94910DEC01009721F4E0
:101EF000CB010E94420EB8C0FC01E60FF71F9C0107
:101F000022503109E217F30708F4ACC0D9010D9152
:101F10001C91119706171707B0F00530110508F44A
:101F20009FC0C80104978617970708F499C002500C
:101F30001109061B170B019311936D937C93CF012D
:101F40000E94D70E8DC05B01A01AB10A4C01800E11
:101F5000911EA091D303B091D40340E050E0E12C56
:101F6000F12C109709F44AC0A815B905D1F56D9068
:101F70007C901197630182E0C80ED11CCA14DB0467
:101F800080F1A3014A195B096A0182E0C80ED11CE5
:101F90001296BC9012971396AC91B5E0CB16D10473
:101FA00040F0B282A38351834083D9016D937C9327
:101FB0000AC00E5F1F4FC301800F911FF90191836B
:101FC0008083EB2DFA2FE114F10431F0D701139641
:101FD000FC93EE93129744C0F093D403E093D303A1
:101FE0003FC08D919C9111974817590708F4AC0197
:101FF0007D0112960D90BC91A02DB3CF8091D1039D
:102000009091D20388159905E1F446175707C8F453
:102010008091020190910301009741F48DB79EB722
:102020004091060150910701841B950BE817F907B1
:10203000C8F4F093D203E093D103F9017183608374
:102040000FC0CB010E94420E7C01009759F0A801FD
:10205000BE010E943E10CE010E94D70EC70104C0EF
:10206000CE0102C080E090E0CDB7DEB7EEE00C9488
:10207000AD0D81E090E0F8940C944E10FB01DC0172
:1020800002C001900D9241505040D8F70895FB01D5
:10209000DC0101900D920020E1F7089510E0C3E605
:1020A000D0E004C0FE010E943C0E2196C436D10748
:0620B000C9F7F894FFCF10
:1020B60001FF0000D50380000E0F10434C4455521B
:1020C60008090A0B0C0000000021018E00B9006807
:1020D60001EA00C800DC0000000000A8048E002908
:1020E6000228024272657754696D65722076302E39
:1020F60032003E707265737320746F207374617260
:1021060074004D41494E204D454E55004D61736852
:102116002074696D653A20004E65772074696D6597
:102126003A202000426F696C2074696D653A200080
:102136004E6F206F6620686F7020616464733A008A
:102146005365743A00204E65773A00486F702061F7
:1021560064646974696F6E200061646465642E004E
:10216600507265737320746F2073746172740062A9
:1021760072657720646179004E6F206D6173682FF8
:10218600626F696C0074696D65207365742E004D0D
:102196006173682074696D65206C6566743A002009
:1021A6007365636F6E6473004D617368696E672053
:1021B600697320646F6E6500507265737320666F75
:1021C6007220626F696C00426F696C2074696D657C
:1021D600206C6566743A00426F696C2069732064EE
:1021E6006F6E6500507265737320746F2065786931
:1021F6007400427265772074696D65722076302EA0
:1022060032004C6F6164696E672E2E2E00486F7027
:10221600206164646974696F6E3A00206D696E7539
:1022260074657300536574206D6173682074696DFD
:10223600650053657420626F696C2074696D650072
:1022460053657420686F702074696D6573005374EC
:0A2256006172742074696D657200F6
:00000001FF
