:100000000C9462000C948A000C948A000C948A0070
:100010000C948A000C948A000C948A000C948A0038
:100020000C948A000C948A000C948A000C948A0028
:100030000C948A000C948A000C948A000C948A0018
:100040000C949C040C948A000C946A040C94440450
:100050000C948A000C948A000C948A000C948A00F8
:100060000C948A000C948A000000000024002700F1
:100070002A0000000000250028002B0000000000DE
:1000800023002600290004040404040404040202DA
:100090000202020203030303030301020408102007
:1000A0004080010204081020010204081020000012
:1000B0000008000201000003040700000000000027
:1000C0000000E60411241FBECFEFD8E0DEBFCDBF95
:1000D00011E0A0E0B1E0ECE9FEE002C005900D9275
:1000E000AC34B107D9F722E0ACE4B1E001C01D9215
:1000F000AC31B207E1F710E0C2E6D0E004C02197CE
:10010000FE010E944107C136D107C9F70E9431059F
:100110000C944C070C940000CF92DF92EF92FF9268
:100120000F931F93CF93DF936C017A018B01C0E093
:10013000D0E0CE15DF0589F0D8016D918D01D60193
:10014000ED91FC910190F081E02DC6010995892B7C
:1001500011F47E0102C02196ECCFC701DF91CF914F
:100160001F910F91FF90EF90DF90CF900895FC01C9
:10017000538D448D252F30E0842F90E0821B930B0C
:10018000541710F0CF96089501970895FC01918DB2
:10019000828D981761F0828DDF01A80FB11D5D96E9
:1001A0008C91928D9F5F9F73928F90E008958FEF57
:1001B0009FEF0895FC01918D828D981731F0828D0B
:1001C000E80FF11D858D90E008958FEF9FEF089562
:1001D000FC01918D228D892F90E0805C9F4F821BC6
:1001E00091098F739927089587E691E00E94E800AE
:1001F00021E0892B09F420E0822F0895FC01848DF1
:10020000DF01A80FB11DA35ABF4F2C91848D90E040
:1002100001968F739927848FA689B7892C93A0891B
:10022000B1898C9180648C93938D848D981306C0D2
:100230000288F389E02D80818F7D80830895EF927D
:10024000FF920F931F93CF93DF93EC0181E0888F90
:100250009B8D8C8D981305C0E889F989808185FD77
:1002600024C0F62E0B8D10E00F5F1F4F0F73112768
:10027000E02E8C8DE8120CC00FB607FCFACFE8898F
:10028000F989808185FFF5CFCE010E94FE00F1CF74
:100290008B8DFE01E80FF11DE35AFF4FF0820B8FAB
:1002A000EA89FB898081806207C0EE89FF896083CB
:1002B000E889F98980818064808381E090E0DF9122
:1002C000CF911F910F91FF90EF900895CF93DF93FF
:1002D000EC01888D8823C9F0EA89FB89808185FD3E
:1002E00005C0A889B9898C9186FD0FC00FB607FC9F
:1002F000F5CF808185FFF2CFA889B9898C9185FFE0
:10030000EDCFCE010E94FE00E7CFDF91CF9108959F
:1003100080E090E0892B29F00E94F40081110C9478
:1003200000000895833081F028F4813099F0823004
:10033000A1F008958730A9F08830B9F08430D1F465
:10034000809180008F7D03C0809180008F778093A3
:100350008000089584B58F7702C084B58F7D84BDF9
:1003600008958091B0008F7703C08091B0008F7D99
:100370008093B00008951F93CF93DF93282F30E030
:10038000F901E255FF4F8491F901E656FF4FD491F0
:10039000F901EA57FF4FC491CC23C9F0162F811100
:1003A0000E949201EC2FF0E0EE0FFF1FEE58FF4F7E
:1003B000A591B4918FB7F894111105C09C91ED2FC0
:1003C000E095E92302C0EC91ED2BEC938FBFDF9118
:1003D000CF911F910895CF93DF9390E0FC01E656F3
:1003E000FF4F2491FC01EA57FF4F8491882361F16C
:1003F00090E0880F991FFC01E859FF4FC591D491F7
:10040000FC01EE58FF4FA591B491611109C09FB74F
:10041000F8948881209582238883EC912E230BC049
:10042000623061F49FB7F8943881822F80958323DE
:100430008883EC912E2B2C939FBF06C08FB7F89426
:10044000E8812E2B28838FBFDF91CF9108953FB78E
:10045000F89480914D0190914E01A0914F01B0917F
:10046000500126B5A89B05C02F3F19F00196A11D8C
:10047000B11D3FBFBA2FA92F982F8827820F911D3A
:10048000A11DB11DBC01CD0142E0660F771F881F81
:10049000991F4A95D1F70895CF93DF93EC0160E05F
:1004A0008E810E94BB0161E08E810E94BB0160E0F1
:1004B0008E810E94BB018BE891E00197F1F7DF91FB
:1004C000CF910895CF92DF92EF92FF920F931F93F7
:1004D000CF93DF937C016C0187E0C80ED11CC0E094
:1004E000D0E0062F10E0B8010C2E02C0759567957C
:1004F0000A94E2F76170F60181916F010E94BB01DD
:100500002196C430D10579F7C701DF91CF911F91B2
:100510000F91FF90EF90DF90CF900C944C02CF9210
:10052000DF92EF92FF920F931F93CF93DF93EC0133
:10053000F62E642F8C810E94BB018D818F3F19F0B4
:1005400060E00E94BB018F850F2D10E084FF25C065
:100550006E0187E0C80ED11CE12CF12CB8010E2CE5
:1005600002C0759567950A94E2F76170F601819172
:100570006F010E94BB01FFEFEF1AFF0A88E0E81647
:10058000F10461F7CE01DF91CF911F910F91FF90A0
:10059000EF90DF90CF900C944C02B80184E07595F9
:1005A00067958A95E1F7CE010E9462026F2DCE0118
:1005B000DF91CF911F910F91FF90EF90DF90CF903F
:1005C0000C94620241E00E948F0281E090E0089565
:1005D00040E00C948F02EF92FF920F931F93CF9302
:1005E000DF93EC01623018F08F8588608F876B8B0A
:1005F0001C8A80E48D8B80E18E8B80E58F8B61E09F
:100600008C810E94EB018D818F3F19F061E00E9487
:10061000EB0161E08E810E94EB017E0187E0E80E34
:10062000F11C00E010E08F8584FD03C084E090E0C1
:1006300002C088E090E0081719074CF461E0F70168
:1006400081917F010E94EB010F5F1F4FECCF8BE385
:100650009DE00197F1F760E08C810E94BB0160E0B2
:100660008E810E94BB018D818F3F19F060E00E9456
:10067000BB016F8564FD1DC063E0CE010E94620274
:100680000BE416E4C8010197F1F763E0CE010E9484
:100690006202C8010197F1F763E0CE010E94620295
:1006A00083E592E00197F1F762E0CE010E946202D9
:1006B00016C06062CE010E94E8028BE496E40197C6
:1006C000F1F76F856062CE010E94E80283E592E057
:1006D0000197F1F76F856062CE010E94E8026F8595
:1006E0006062CE010E94E80284E0888B6CE0CE015B
:1006F0000E94E80261E0CE010E94E8028BE39FE1E4
:100700000197F1F782E0898B66E0CE01DF91CF910E
:100710001F910F91FF90EF900C94E802089580E0F4
:1007200090E008950E9447076115710579F0FB017B
:1007300001900020E9F73197AF01461B570BDC0110
:10074000ED91FC910280F381E02D099480E090E02E
:100750000895BC0184E092E00C949403CF93C82FD9
:10076000E0911702E23010F4E15001C0E1E0F0E066
:10077000EC5FFD4F6489606884E092E00E94E802CB
:1007800083E291E00E94A903E0911702E23010F4A5
:10079000E15001C0E1E0F0E0EC5FFD4F648960688A
:1007A00084E092E00E94E802C130B9F048F0C23023
:1007B00001F58FE291E00E94A9038091660106C0D5
:1007C0008AE291E00E94A90380915F01882389F069
:1007D0008DE291E0CF910C94A9038FE391E00E9408
:1007E000A90380915F01811104C080916601882373
:1007F00079F3CF910895CF92DF92EF92FF920F930A
:100800001F93CF93DF93CDB7DEB7A1970FB6F894C0
:10081000DEBF0FBECDBF282F30E040E050E019A270
:100820008E010F5D1F4F8AE0C82ED12CE12CF12CD8
:10083000CA01B901A70196010E940B07605DF8018A
:1008400062938F01211531054105510589F7BF01DB
:1008500087E691E00E9494038C0165E371E087E6EE
:1008600091E00E949403800F911FA1960FB6F89417
:10087000DEBF0FBECDBFDF91CF911F910F91FF90D3
:10088000EF90DF90CF9008951F920F920FB60F92C6
:1008900011242F933F934F935F936F937F938F9385
:1008A0009F93AF93BF93EF93FF9387E691E00E94EE
:1008B000FE00FF91EF91BF91AF919F918F917F913A
:1008C0006F915F914F913F912F910F900FBE0F90BD
:1008D0001F9018951F920F920FB60F9211242F930D
:1008E0008F939F93EF93FF93E0917701F0917801BD
:1008F0008081E0917D01F0917E0182FD12C09081A6
:10090000809180018F5F8F7320918101821751F058
:10091000E0918001F0E0E959FE4F958F80938001CE
:1009200001C08081FF91EF919F918F912F910F9046
:100930000FBE0F901F9018951F920F920FB60F9237
:1009400011242F933F938F939F93AF93BF938091E5
:10095000510190915201A0915301B09154013091F5
:100960004C0123E0230F2D3720F40196A11DB11D6A
:1009700005C026E8230F0296A11DB11D20934C014E
:100980008093510190935201A0935301B09354016D
:1009900080914D0190914E01A0914F01B091500175
:1009A0000196A11DB11D80934D0190934E01A0931E
:1009B0004F01B0935001BF91AF919F918F913F91A3
:1009C0002F910F900FBE0F901F901895E7E6F1E062
:1009D0001382128288EE93E0A0E0B0E084839583D6
:1009E000A683B78389E091E09183808385EC90E0D2
:1009F0009587848784EC90E09787868780EC90E0E9
:100A0000918B808B81EC90E0938B828B82EC90E0D9
:100A1000958B848B86EC90E0978B868B118E128E53
:100A2000138E148EE4E0F2E0138212828BE191E0E7
:100A30009183808387E084838FEF858386E086833C
:100A400085E0878384E0808783E0818782E08287F6
:100A50001386148615861686178661E0CF010C94DE
:100A6000EB02CF93DF9300D01F92CDB7DEB778941F
:100A700084B5826084BD84B5816084BD85B58260A3
:100A800085BD85B5816085BD80916E008160809354
:100A90006E001092810080918100826080938100BD
:100AA00080918100816080938100809180008160CD
:100AB000809380008091B10084608093B100809128
:100AC000B00081608093B00080917A008460809350
:100AD0007A0080917A00826080937A0080917A0017
:100AE000816080937A0080917A00806880937A0098
:100AF0001092C10062E084E092E00E94EB0261E0AB
:100B000084E092E00E94E8020BE31FE1C801019734
:100B1000F1F762E084E092E00E94E802C8010197E8
:100B2000F1F788E391E00E94A90380E00E94AE0300
:100B3000E0917701F091780182E08083E091730188
:100B4000F09174011082E0917501F09176018FECC3
:100B5000808310927F01E0917B01F0917C0186E01F
:100B60008083E0917901F0917A01808180618083B6
:100B7000E0917901F0917A01808188608083E09131
:100B80007901F0917A01808180688083E091790118
:100B9000F0917A0180818F7D808300E011E060E038
:100BA000F80181918F010E94EB01F1E005301F07F0
:100BB000B1F761E08DE00E94EB0101E023E0622EDD
:100BC000712C8FB7F894C0905101D0905201E090F1
:100BD0005301F09054018FBF809166018823B9F1D1
:100BE0008091620190916301A0916401B0916501CF
:100BF000A7019601281B390B4A0B5B0BDA01C901CF
:100C0000853F9140A105B10510F163E471E087E6ED
:100C100091E00E94940365E371E087E691E00E9411
:100C20009403C0926201D0926301E0926401F09259
:100C3000650180916101811103C00093610102C0CF
:100C400010926101609161018DE00E94BB0165E03D
:100C500044E050E0FA01E050FF4F208130E0F9011C
:100C6000E255FF4F8491F901E656FF4FF490F901E8
:100C7000EA57FF4F14911123D9F0882341F04A839A
:100C80005B8369830E94920169815B814A81E12FC4
:100C9000F0E0EE0FFF1FE458FF4FA591B491EC91E7
:100CA000EF2131E020E009F430E0832F922F02C0E1
:100CB00080E090E0282FFA01E65AFE4F8083FA0187
:100CC000EB5AFE4F019721F48081813009F0642FA7
:100CD00020834150510908F0BDCF613009F44FC065
:100CE00040F0643009F05AC08091600190E00196B4
:100CF0004AC069E471E087E691E00E94940365E3ED
:100D000071E087E691E00E94940380916001813058
:100D100091F018F0823009F141C080915F0181119A
:100D20003DC061E08DE00E94BB0100935F01109225
:100D3000660180E031C080915F01811104C0809123
:100D40006601882359F160E08DE00E94BB0110929A
:100D50005F011092660181E01FC080915F018823CE
:100D600031F010925F0160E08DE00E94BB01809144
:100D70006601811113C00093660182E00DC080916D
:100D8000600190E00296B3010E94F7068093600133
:100D90000E94FB03809160010E94AE030E94270223
:100DA0004B015C0184E6C82ED12CE12CF12C0E9471
:100DB0002702DC01CB0188199909AA09BB09883EE1
:100DC0009340A105B10558F0E1E0CE1AD108E10841
:100DD000F108F8EE8F0EF3E09F1EA11CB11CC114A8
:100DE000D104E104F10419F70E948801EACE97FBCF
:100DF000072E16F4009407D077FD09D00E942D0726
:100E000007FC05D03EF4909581959F4F089570950D
:100E100061957F4F0895A1E21A2EAA1BBB1BFD010D
:100E20000DC0AA1FBB1FEE1FFF1FA217B307E407C9
:100E3000F50720F0A21BB30BE40BF50B661F771F21
:100E4000881F991F1A9469F7609570958095909501
:100E50009B01AC01BD01CF010895AA1BBB1B51E151
:100E600007C0AA1FBB1FA617B70710F0A61BB70B1A
:100E7000881F991F5A95A9F780959095BC01CD01BF
:100E80000895EE0FFF1F0590F491E02D099481E085
:0C0E900090E0F8940C944C07F894FFCF0D
:100E9C0008090A0B0C000000001F018C00B700664B
:100EAC0001E800C600DA0000000000E2028C008FAE
:100EBC00038E03202020202020004F4E002A0042C9
:100ECC004C494E4B000D0A004C4544204F4E2F4FC1
:0C0EDC00464600426C696E6B004F4B00F4
:00000001FF
