:100000000C9462000C948A000C948A000C948A0070
:100010000C948A000C948A000C948A000C948A0038
:100020000C948A000C948A000C948A000C948A0028
:100030000C948A000C948A000C948A000C948A0018
:100040000C944F040C948A000C941D040C94F70338
:100050000C948A000C948A000C948A000C948A00F8
:100060000C948A000C948A000000000024002700F1
:100070002A0000000000250028002B0000000000DE
:1000800023002600290004040404040404040202DA
:100090000202020203030303030301020408102007
:1000A0004080010204081020010204081020000012
:1000B0000008000201000003040700000000000027
:1000C0000000990411241FBECFEFD8E0DEBFCDBFE2
:1000D00011E0A0E0B1E0E8E1FDE002C005900D9282
:1000E000A435B107D9F722E0A4E5B1E001C01D9223
:1000F000A632B207E1F710E0C2E6D0E004C02197D3
:10010000FE010E947F06C136D107C9F70E94E404B0
:100110000C948A060C940000CF92DF92EF92FF922B
:100120000F931F93CF93DF936C017A018B01C0E093
:10013000D0E0CE15DF0589F0D8016D918D01D60193
:10014000ED91FC910190F081E02DC6010995892B7C
:1001500011F47E0102C02196ECCFC701DF91CF914F
:100160001F910F91FF90EF90DF90CF900895FC01C9
:10017000538D448D252F30E0842F90E0821B930B0C
:10018000541710F0CF96089501970895FC01918DB2
:10019000828D981761F0828DDF01A80FB11D5D96E9
:1001A0008C91928D9F5F9F73928F90E008958FEF57
:1001B0009FEF0895FC01918D828D981731F0828D0B
:1001C000E80FF11D858D90E008958FEF9FEF089562
:1001D000FC01918D228D892F90E0805C9F4F821BC6
:1001E00091098F739927089581E791E00E94E800B3
:1001F00021E0892B09F420E0822F0895FC01848DF1
:10020000DF01A80FB11DA35ABF4F2C91848D90E040
:1002100001968F739927848FA689B7892C93A0891B
:10022000B1898C9180648C93938D848D981306C0D2
:100230000288F389E02D80818F7D80830895EF927D
:10024000FF920F931F93CF93DF93EC0181E0888F90
:100250009B8D8C8D981305C0E889F989808185FD77
:1002600024C0F62E0B8D10E00F5F1F4F0F73112768
:10027000E02E8C8DE8120CC00FB607FCFACFE8898F
:10028000F989808185FFF5CFCE010E94FE00F1CF74
:100290008B8DFE01E80FF11DE35AFF4FF0820B8FAB
:1002A000EA89FB898081806207C0EE89FF896083CB
:1002B000E889F98980818064808381E090E0DF9122
:1002C000CF911F910F91FF90EF900895CF93DF93FF
:1002D000EC01888D8823C9F0EA89FB89808185FD3E
:1002E00005C0A889B9898C9186FD0FC00FB607FC9F
:1002F000F5CF808185FFF2CFA889B9898C9185FFE0
:10030000EDCFCE010E94FE00E7CFDF91CF9108959F
:1003100080E090E0892B29F00E94F40081110C9478
:1003200000000895833081F028F4813099F0823004
:10033000A1F008958730A9F08830B9F08430D1F465
:10034000809180008F7D03C0809180008F778093A3
:100350008000089584B58F7702C084B58F7D84BDF9
:1003600008958091B0008F7703C08091B0008F7D99
:100370008093B0000895CF93DF93282F30E0F901E8
:10038000E255FF4F8491F901E656FF4FD491F901F0
:10039000EA57FF4FC491CC2391F081110E94920142
:1003A000EC2FF0E0EE0FFF1FE458FF4FA591B49142
:1003B000EC91ED2381E090E021F480E002C080E048
:1003C00090E0DF91CF9108951F93CF93DF93282F73
:1003D00030E0F901E255FF4F8491F901E656FF4FF5
:1003E000D491F901EA57FF4FC491CC23C9F0162FDD
:1003F00081110E949201EC2FF0E0EE0FFF1FEE58EA
:10040000FF4FA591B4918FB7F894111105C09C913D
:10041000ED2FE095E92302C0EC91ED2BEC938FBF1B
:10042000DF91CF911F910895CF93DF9390E0FC016E
:10043000E656FF4F2491FC01EA57FF4F8491882331
:1004400061F190E0880F991FFC01E859FF4FC591B9
:10045000D491FC01EE58FF4FA591B491611109C0F0
:100460009FB7F8948881209582238883EC912E236E
:100470000BC0623061F49FB7F8943881822F809569
:1004800083238883EC912E2B2C939FBF06C08FB7BC
:10049000F894E8812E2B28838FBFDF91CF910895A8
:1004A0003FB7F8948091590190915A01A0915B0156
:1004B000B0915C0126B5A89B05C02F3F19F00196AD
:1004C000A11DB11D3FBFBA2FA92F982F8827820FDA
:1004D000911DA11DB11DBC01CD0142E0660F771F2A
:1004E000881F991F4A95D1F70895CF93DF93EC01A8
:1004F00060E08E810E94E40161E08E810E94E4014F
:1005000060E08E810E94E4018BE891E00197F1F7B1
:10051000DF91CF910895CF92DF92EF92FF920F93E8
:100520001F93CF93DF937C016C0187E0C80ED11C31
:10053000C0E0D0E0062F10E0B8010C2E02C0759587
:1005400067950A94E2F76170F60181916F010E944C
:10055000E4012196C430D10579F7C701DF91CF912D
:100560001F910F91FF90EF90DF90CF900C94750248
:10057000CF92DF92EF92FF920F931F93CF93DF936F
:10058000EC01F62E642F8C810E94E4018D818F3F57
:1005900019F060E00E94E4018F850F2D10E084FFC8
:1005A00025C06E0187E0C80ED11CE12CF12CB801EA
:1005B0000E2C02C0759567950A94E2F76170F601FA
:1005C00081916F010E94E401FFEFEF1AFF0A88E0BA
:1005D000E816F10461F7CE01DF91CF911F910F91E1
:1005E000FF90EF90DF90CF900C947502B80184E0FB
:1005F000759567958A95E1F7CE010E948B026F2D64
:10060000CE01DF91CF911F910F91FF90EF90DF907E
:10061000CF900C948B0241E00E94B80281E090E000
:10062000089540E00C94B802E1E08091210281112C
:10063000E0E0E195F0E0E25FFD4F648960688EE004
:1006400092E00C94110361E00E9411038BE39FE19F
:100650000197F1F70895EF92FF920F931F93CF93B5
:10066000DF93EC01623018F08F8588608F876B8B89
:100670001C8A80E48D8B80E18E8B80E58F8B61E01E
:100680008C810E9414028D818F3F19F061E00E94DD
:10069000140261E08E810E9414027E0187E0E80E60
:1006A000F11C00E010E08F8584FD03C084E090E041
:1006B00002C088E090E0081719074CF461E0F701E8
:1006C00081917F010E9414020F5F1F4FECCF8BE3DB
:1006D0009DE00197F1F760E08C810E94E40160E009
:1006E0008E810E94E4018D818F3F19F060E00E94AD
:1006F000E4016F8564FD1DC063E0CE010E948B02A2
:100700000BE416E4C8010197F1F763E0CE010E9403
:100710008B02C8010197F1F763E0CE010E948B02C2
:1007200083E592E00197F1F762E0CE010E948B022F
:1007300016C06062CE010E9411038BE496E401971B
:10074000F1F76F856062CE010E94110383E592E0AC
:100750000197F1F76F856062CE010E9411036F85EA
:100760006062CE010E94110384E0888B6CE0CE01B0
:100770000E941103CE010E94230382E0898B66E070
:10078000CE01DF91CF911F910F91FF90EF900C94CC
:100790001103089580E090E008950E948506611598
:1007A000710579F0FB0101900020E9F73197AF0165
:1007B000461B570BDC01ED91FC910280F381E02D8B
:1007C000099480E090E00895CF93DF93BC0181E726
:1007D00091E00E94CF03EC016EE171E081E791E0CE
:1007E0000E94CF038C0F9D1FDF91CF9108951F9220
:1007F0000F920FB60F9211242F933F934F935F9355
:100800006F937F938F939F93AF93BF93EF93FF93D8
:1008100081E791E00E94FE00FF91EF91BF91AF91BF
:100820009F918F917F916F915F914F913F912F9108
:100830000F900FBE0F901F9018951F920F920FB63A
:100840000F9211242F938F939F93EF93FF93E09137
:100850008101F09182018081E0918701F09188010E
:1008600082FD12C0908180918A018F5F8F732091E9
:100870008B01821751F0E0918A01F0E0EF58FE4FB2
:10088000958F80938A0101C08081FF91EF919F91A4
:100890008F912F910F900FBE0F901F9018951F9260
:1008A0000F920FB60F9211242F933F938F939F9324
:1008B000AF93BF938091550190915601A09157013C
:1008C000B09158013091540123E0230F2D3720F4CB
:1008D0000196A11DB11D05C026E8230F0296A11D9A
:1008E000B11D209354018093550190935601A0931C
:1008F0005701B09358018091590190915A01A091EC
:100900005B01B0915C010196A11DB11D809359015D
:1009100090935A01A0935B01B0935C01BF91AF919A
:100920009F918F913F912F910F900FBE0F901F902D
:100930001895E1E7F1E01382128288EE93E0A0E0DF
:10094000B0E084839583A683B78384E091E09183AC
:10095000808385EC90E09587848784EC90E097878E
:10096000868780EC90E0918B808B81EC90E0938B7C
:10097000828B82EC90E0958B848B86EC90E0978B59
:10098000868B118E128E138E148EEEE0F2E013829F
:10099000128286E191E09183808387E084838FEFE8
:1009A000858386E0868385E0878384E0808783E093
:1009B000818782E0828713861486158616861786BD
:1009C00061E0CF010C942B03789484B5826084BDE0
:1009D00084B5816084BD85B5826085BD85B5816043
:1009E00085BD80916E00816080936E0010928100C1
:1009F000809181008260809381008091810081607C
:100A0000809381008091800081608093800080913C
:100A1000B10084608093B1008091B00081608093C8
:100A2000B00080917A00846080937A0080917A008F
:100A3000826080937A0080917A00816080937A004E
:100A400080917A00806880937A001092C10062E001
:100A50008EE092E00E942B0362E08EE092E00E9422
:100A600011038BE39FE10197F1F760911E02862F3E
:100A7000816080931E0269608EE092E00E94110303
:100A8000C9E060E08C2F0E941402CF5FCD30C9F71F
:100A900060E088E00E941402E0918101F0918201FF
:100AA00082E08083E0917D01F0917E011082E091EF
:100AB0007F01F09180018FEC808310928901E09199
:100AC0008501F091860186E08083E0918301F091B9
:100AD0008401808180618083E0918301F0918401B1
:100AE000808188608083E0918301F091840180811E
:100AF00080688083E0918301F091840180818F7D03
:100B000080838CE00E94BB017C01909370018093F4
:100B10006F0189E00E94BB0190936E0180936D018B
:100B20008BE00E94BB0190936C0180936B018AE083
:100B30000E94BB0190936A018093690188E00E9442
:100B4000BB019093680180936701EA94EF28B1F4A8
:100B50008091650190916601019781F081E291E0B9
:100B60000E94E4038EE092E00E9423030E9414039B
:100B700067E271E08EE092E00E94CF0380916D0108
:100B800090916E010197B1F480916301909164019D
:100B9000019781F088E391E00E94E4038EE092E007
:100BA0000E9423030E94140368E371E08EE092E048
:100BB0000E94CF0380916B0190916C010197B1F479
:100BC0008091610190916201019781F08DE391E044
:100BD0000E94E4038EE092E00E9423030E9414032B
:100BE0006DE371E08EE092E00E94CF038091690195
:100BF00090916A010197B1F480915F019091600139
:100C0000019781F080E491E00E94E4038EE092E09D
:100C10000E9423030E94140360E471E08EE092E0DE
:100C20000E94CF0380916701909168010197B1F410
:100C300080915D0190915E01019781F085E491E0E2
:100C40000E94E4038EE092E00E9423030E941403BA
:100C50006CE471E08EE092E00E94CF0380916F011E
:100C600090917001909366018093650180916D0170
:100C700090916E01909364018093630180916B0168
:100C800090916C0190936201809361018091690160
:100C900090916A019093600180935F018091670158
:100CA0009091680190935E0180935D010E945002D3
:100CB0004B015C0184E6C82ED12CE12CF12C0E9462
:100CC0005002DC01CB0188199909AA09BB09883EA9
:100CD0009340A105B10558F081E0C81AD108E10898
:100CE000F10828EE820E23E0921EA11CB11CC11453
:100CF000D104E104F10419F70E94880102CFEE0F3C
:100D0000FF1F0590F491E02D099481E090E0F894A4
:080D10000C948A06F894FFCF51
:100D1800000000001F018C00B7006601E800C60053
:100D2800DA00000000000B038C00CA03C9030D0A97
:100D38000052696768740057686974652069732090
:100D4800616C7269676874004C6566740055700060
:100D5800446F776E0043686F6F736500436F6E660C
:040D680069726D003F
:107E0000112484B714BE81FFF0D085E080938100F7
:107E100082E08093C00088E18093C10086E0809377
:107E2000C20080E18093C4008EE0C9D0259A86E02C
:107E300020E33CEF91E0309385002093840096BBD3
:107E4000B09BFECF1D9AA8958150A9F7CC24DD24C4
:107E500088248394B5E0AB2EA1E19A2EF3E0BF2EE7
:107E6000A2D0813461F49FD0082FAFD0023811F036
:107E7000013811F484E001C083E08DD089C08234E0
:107E800011F484E103C0853419F485E0A6D080C0E4
:107E9000853579F488D0E82EFF2485D0082F10E0AE
:107EA000102F00270E291F29000F111F8ED06801E7
:107EB0006FC0863521F484E090D080E0DECF843638
:107EC00009F040C070D06FD0082F6DD080E0C81688
:107ED00080E7D80618F4F601B7BEE895C0E0D1E017
:107EE00062D089930C17E1F7F0E0CF16F0E7DF06D8
:107EF00018F0F601B7BEE89568D007B600FCFDCFD4
:107F0000A601A0E0B1E02C9130E011968C91119780
:107F100090E0982F8827822B932B1296FA010C0160
:107F200087BEE89511244E5F5F4FF1E0A038BF0790
:107F300051F7F601A7BEE89507B600FCFDCF97BE46
:107F4000E89526C08437B1F42ED02DD0F82E2BD052
:107F50003CD0F601EF2C8F010F5F1F4F84911BD097
:107F6000EA94F801C1F70894C11CD11CFA94CF0C13
:107F7000D11C0EC0853739F428D08EE10CD085E9AC
:107F80000AD08FE07ACF813511F488E018D01DD067
:107F900080E101D065CF982F8091C00085FFFCCF94
:107FA0009093C60008958091C00087FFFCCF809118
:107FB000C00084FD01C0A8958091C6000895E0E648
:107FC000F0E098E1908380830895EDDF803219F02E
:107FD00088E0F5DFFFCF84E1DECF1F93182FE3DFCA
:107FE0001150E9F7F2DF1F91089580E0E8DFEE27F6
:047FF000FF270994CA
:027FFE00040479
:0400000300007E007B
:00000001FF