:100000000C9464000C948C000C948C000C948C0068
:100010000C948C000C948C000C948C000C94610952
:100020000C948C000C948C000C948C000C948C0020
:100030000C948C000C948C000C948C000C948C0010
:100040000C945C030C948C000C9452020C942C02C3
:100050000C948C000C948C000C948C000C948C00F0
:100060000C948C000C948C000000000024002700ED
:100070002A000000000023002600290000000008DC
:10008000000201000003040700000000000000005F
:10009000010204081020408001020408102001021F
:1000A0000408102000000000250028002B00040494
:1000B0000404040404040202020202020303030310
:1000C000030302007C0D6C0D11241FBECFEFD8E09E
:1000D000DEBFCDBF23E0A2EAB2E001C01D92AD3C7D
:1000E000B207E1F712E0A0E0B1E0EAE5F1E202C018
:1000F00005900D92A23AB107D9F710E0C3E6D0E01F
:1001000004C02197FE010E948E0EC236D107C9F7A6
:100110000E94E3090C94A0100C940000CF92DF928F
:10012000EF92FF920F931F93CF93DF936C017A01AD
:100130008B01C0E0D0E0CE15DF0589F0D8016D91CC
:100140008D01D601ED91FC910190F081E02DC60169
:100150000995892B11F47E0102C02196ECCFC701CD
:10016000DF91CF911F910F91FF90EF90DF90CF9093
:100170000895FC01538D448D252F30E0842F90E0AD
:10018000821B930B541710F0CF9608950197089592
:10019000FC01918D828D981761F0828DDF01A80F8F
:1001A000B11D5D968C91928D9F5F9F73928F90E0B1
:1001B00008958FEF9FEF0895FC01918D828D981720
:1001C00031F0828DE80FF11D858D90E008958FEF5D
:1001D0009FEF0895FC01918D228D892F90E0805C26
:1001E0009F4F821B91098F739927089587EE92E0A4
:1001F0000E94EA0021E0892B09F420E0822F089573
:10020000FC01848DDF01A80FB11DA35ABF4F2C91B3
:10021000848D90E001968F739927848FA689B78982
:100220002C93A089B1898C9180648C93938D848D5B
:10023000981306C00288F389E02D80818F7D80832A
:100240000895EF92FF920F931F93CF93DF93EC01EA
:1002500081E0888F9B8D8C8D981305C0E889F98982
:10026000808185FD24C0F62E0B8D10E00F5F1F4F9F
:100270000F731127E02E8C8DE8120CC00FB607FC0F
:10028000FACFE889F989808185FFF5CFCE010E94F8
:100290000001F1CF8B8DFE01E80FF11DE35AFF4FF6
:1002A000F0820B8FEA89FB898081806207C0EE892A
:1002B000FF896083E889F98980818064808381E097
:1002C00090E0DF91CF911F910F91FF90EF900895F3
:1002D000CF93DF93EC01888D8823C9F0EA89FB89ED
:1002E000808185FD05C0A889B9898C9186FD0FC0E4
:1002F0000FB607FCF5CF808185FFF2CFA889B989B9
:100300008C9185FFEDCFCE010E940001E7CFDF91F8
:10031000CF91089580E090E0892B29F00E94F600AB
:1003200081110C9400000895833081F028F481300D
:1003300099F08230A1F008958730A9F08830B9F0A3
:100340008430D1F4809180008F7D03C08091800043
:100350008F7780938000089584B58F7702C084B52D
:100360008F7D84BD08958091B0008F7703C0809108
:10037000B0008F7D8093B00008953FB7F8948091CE
:10038000A7029091A802A091A902B091AA0226B555
:10039000A89B05C02F3F19F00196A11DB11D3FBFBD
:1003A000BA2FA92F982F8827820F911DA11DB11D4B
:1003B000BC01CD0142E0660F771F881F991F4A9547
:1003C000D1F708958F929F92AF92BF92CF92DF9212
:1003D000EF92FF926B017C010E94BD014B015C0119
:1003E000C114D104E104F104F1F00E94BD01DC016B
:1003F000CB0188199909AA09BB09883E9340A10538
:10040000B10570F321E0C21AD108E108F10888EEC5
:10041000880E83E0981EA11CB11CC114D104E10414
:10042000F10419F7DDCFFF90EF90DF90CF90BF90F0
:10043000AF909F908F9008952FB7F8946091A3028A
:100440007091A4028091A5029091A6022FBF0895F9
:10045000089580E090E008951F920F920FB60F92DA
:1004600011242F933F934F935F936F937F938F93B9
:100470009F93AF93BF93EF93FF9387EE92E00E9419
:100480000001FF91EF91BF91AF919F918F917F916B
:100490006F915F914F913F912F910F900FBE0F90F1
:1004A0001F9018951F920F920FB60F9211242F9341
:1004B0008F939F93EF93FF93E091F702F091F802EF
:1004C0008081E091FD02F091FE0282FD12C09081D8
:1004D000809100038F5F8F7320910103821751F089
:1004E000E0910003F0E0E951FD4F958F8093000308
:1004F00001C08081FF91EF919F918F912F910F907B
:100500000FBE0F901F9018951F93CF93DF93282F46
:1005100030E0F901E458FF4F8491F901E057FF4FB3
:10052000D491F901E255FF4FC491CC23C9F0162FA5
:1005300081110E949401EC2FF0E0EE0FFF1FEC55AB
:10054000FF4FA591B4918FB7F894111105C09C91FC
:10055000ED2FE095E92302C0EC91ED2BEC938FBFDA
:10056000DF91CF911F910895CF93DF93EC0160E06D
:100570008E810E94840261E08E810E94840260E08C
:100580008E810E9484028BE891E00197F1F7DF9160
:10059000CF910895FF920F931F93CF93DF93C0E005
:1005A000D0E003E010E0F090DE02F11008C080918E
:1005B000E502882339F061E08EE00E94840261E068
:1005C0008FE009C0CE01B8010E94250EFC01E85F52
:1005D000FE4F61E080810E94840280E793E00E94E8
:1005E000310764EF71E080E090E00E94E201F110D9
:1005F00008C08091E502882339F060E08EE00E9417
:10060000840260E08FE009C0CE01B8010E94250E8F
:10061000FC01E85FFE4F60E080810E94840264EF8D
:1006200071E080E090E00E94E2012196C630D105A1
:1006300009F0B9CFDF91CF911F910F91FF900895ED
:10064000CF93DF9390E0FC01E057FF4F2491FC0132
:10065000E255FF4F8491882361F190E0880F991F44
:10066000FC01E859FF4FC591D491FC01EC55FF4FB7
:10067000A591B491611109C09FB7F8948881209524
:1006800082238883EC912E230BC0623061F49FB7E4
:10069000F8943881822F809583238883EC912E2BC8
:1006A0002C939FBF06C08FB7F894E8812E2B288328
:1006B0008FBFDF91CF9108951F920F920FB60F92C7
:1006C00011242F933F938F939F93AF93BF93809168
:1006D000A3029091A402A091A502B091A60230912C
:1006E000A20223E0230F2D3720F40196A11DB11D96
:1006F00005C026E8230F0296A11DB11D2093A2027A
:100700008093A3029093A402A093A502B093A602A3
:100710008091A7029091A802A091A902B091AA028B
:100720000196A11DB11D8093A7029093A802A093EA
:10073000A902B093AA02BF91AF919F918F913F916F
:100740002F910F900FBE0F901F901895CF92DF92B0
:10075000EF92FF920F931F93CF93DF937C016C0175
:1007600087E0C80ED11CC0E0D0E0062F10E0B80131
:100770000C2E02C0759567950A94E2F76170F60138
:1007800081916F010E9484022196C430D10579F7CE
:10079000C701DF91CF911F910F91FF90EF90DF90F4
:1007A000CF900C94B402CF92DF92EF92FF920F930E
:1007B0001F93CF93DF93EC01F62E642F8C810E9460
:1007C00084028D818F3F19F060E00E9484028F8542
:1007D0000F2D10E084FF25C06E0187E0C80ED11CEC
:1007E000E12CF12CB8010E2C02C0759567950A9486
:1007F000E2F76170F60181916F010E948402FFEFC0
:10080000EF1AFF0A88E0E816F10461F7CE01DF91E4
:10081000CF911F910F91FF90EF90DF90CF900C94AC
:10082000B402B80184E0759567958A95E1F7CE0129
:100830000E94A6036F2DCE01DF91CF911F910F91E2
:10084000FF90EF90DF90CF900C94A60341E00E94C0
:10085000D30381E090E0089540E00C94D30361E07D
:100860000E942C048BE39FE10197F1F708958CE936
:1008700093E00E942F040E942707809100018823A3
:1008800049F083E391E00E94D8060E94E10682E4E9
:1008900091E0D7C08091C7028823B1F082E591E052
:1008A0000E94D8060E94E106E091C60286E0E89F19
:1008B000F0011124EC57FC4F448155816081718116
:1008C0008CE993E00C948E008091C202882389F019
:1008D0008CE591E00E94D8068091C1020E94DA0660
:1008E0000E94E10688E691E00E94D8068091C0024D
:1008F00014C08091BF02882391F084E791E00E94A8
:10090000D8068091BE020E94DA060E94E10688E6BF
:1009100091E00E94D8068091BD020C94DA06809185
:10092000C5028823A9F080E891E00E94D8060E94C1
:10093000E10680E991E00E94D8068091C4020E94FD
:10094000DA0685E991E00E94D8068091BC02E5CFE5
:100950008091C302882399F08BE991E00E94D80628
:100960008091BB0290E001960E94F1060E94E10690
:1009700086E991E00E94D8068091B802CECF80919E
:10098000B702882369F08091BB020E94DA068AE8E8
:1009900092E00E94D8060E94E10689EA91E051C0E7
:1009A0008091BA02882349F080EB91E00E94D8063A
:1009B0000E94E1068FEB91E044C08091B902882348
:1009C00049F088EC91E00E94D8060E94E10685ED8E
:1009D00091E037C08091B6028823B1F08091E502A2
:1009E000811109C08FED91E00E94D8060E94E106B6
:1009F0008091E40219C088EF91E00E94D8060E941D
:100A0000E10688E092E01DC08091B5028823D9F00C
:100A10008091DE0281110DC087E192E00E94D8062C
:100A20000E94E1068091DD020E94DA068FEE91E0DD
:100A300008C087E292E00E94D8060E94E10684E3A3
:100A400092E00C94D8060895EF92FF920F931F93B3
:100A5000CF93DF93C82F8CE993E00E942F040E946C
:100A6000270782E492E00E94D8060E94E106D0E0C7
:100A7000CC0FDD1FFE01E753FD4F808191810E9465
:100A8000F1068FEE91E00E94D80693E0E92EF12C5A
:100A900061E080E10E94840288EE93E00E943107C9
:100AA00064EF71E080E090E00E94E20160E080E1AC
:100AB0000E94840264EF71E080E090E00E94E20115
:100AC0000E941C020091E0021091E1022091E202DA
:100AD0003091E302DC01CB01801B910BA20BB30B25
:100AE00081319742A105B10520F01091DD0211116D
:100AF00012C081E0E81AF10859F6C753DD4F8FEFB5
:100B00009FEF99838883DF91CF911F910F91FF9081
:100B1000EF900C9437040E941C026093E0027093E3
:100B2000E1028093E2029093E30211501093DD0200
:100B3000E0CF009769F0FC0101900020E9F73197C0
:100B4000AF01481B590BBC018CE993E00C948E005B
:100B500080E090E008958F929F92AF92BF920F93A2
:100B60001F93CF93DF93CDB7DEB7A1970FB6F8945D
:100B7000DEBF0FBECDBF19A2423008F44AE08E019D
:100B80000F5D1F4F842E912CA12CB12CA501940137
:100B90000E94390EE62FB901CA0101501109EA304D
:100BA00014F4E05D01C0E95CD801EC93232B242B05
:100BB000252B61F7C8010E949905A1960FB6F894FC
:100BC000DEBF0FBECDBFDF91CF911F910F91BF90C0
:100BD000AF909F908F9008950E948B10EF92FF929C
:100BE0000F931F93CF93DF93EC01198218821B821E
:100BF0001A821D821C8261157105A9F17B01FB011E
:100C000001900020E9F731978F01061B170BB801FF
:100C10006F5F7F4F80E090E00E94C10F009759F016
:100C2000998388831B830A832C813D81232B81F444
:100C3000FC0110820DC088819981009711F00E94FB
:100C4000290F198218821D821C821B821A820BC0F6
:100C50001D830C83B701DF91CF911F910F91FF90FE
:100C6000EF900C949910DF91CF911F910F91FF900D
:100C7000EF900895EF92FF920F931F93CF93DF931E
:100C8000EC01623018F08F8588608F876B8B1C8A2F
:100C900080E48D8B80E18E8B80E58F8B61E08C8191
:100CA0000E9420038D818F3F19F061E00E94200394
:100CB00061E08E810E9420037E0187E0E80EF11C36
:100CC00000E010E08F8584FD03C084E090E002C066
:100CD00088E090E0081719074CF461E0F701819172
:100CE0007F010E9420030F5F1F4FECCF8BE39DE03D
:100CF0000197F1F760E08C810E94840260E08E81B0
:100D00000E9484028D818F3F19F060E00E9484026E
:100D10006F8564FD1DC063E0CE010E94A6030BE455
:100D200016E4C8010197F1F763E0CE010E94A60323
:100D3000C8010197F1F763E0CE010E94A60383E5A5
:100D400092E00197F1F762E0CE010E94A60316C07F
:100D50006062CE010E942C048BE496E40197F1F7C7
:100D60006F856062CE010E942C0483E592E00197BA
:100D7000F1F76F856062CE010E942C046F8560627E
:100D8000CE010E942C0484E0888B6CE0CE010E948E
:100D90002C04CE010E942F0482E0898B66E0CE01F4
:100DA000DF91CF911F910F91FF90EF900C942C0445
:100DB0000C949905682F70E080E090E04AE00C9474
:100DC000AB05E091AF03E23010F4E15001C0E1E087
:100DD000F0E0E456FC4F648960688CE993E00C9481
:100DE0002C04CF92DF92EF92FF92CF93DF936C01AE
:100DF000990FEE08FF08F7FE1FC0E0919C03F091E9
:100E00009D030190F081E02D6DE28CE993E009955E
:100E1000EC0166277727CB016C197D098E099F09A4
:100E20004AE00E94AB058C0F9D1FDF91CF91FF9090
:100E3000EF90DF90CF9008954AE0C701B601DF91AF
:100E4000CF91FF90EF90DF90CF900C94AB0562E0D4
:100E50008CE993E00E942C048BE39FE10197F1F76A
:100E600008954F925F926F927F928F929F92AF926E
:100E7000BF92CF92DF92EF92FF921F93CF93DF93B7
:100E800020910101233121F02F3F09F00AC204C053
:100E9000E2ECF0E0149172C023E120930101E2EC56
:100EA000F0E014911F3F09F4FCC1113009F1123038
:100EB00009F441C0111162C014BC15BC24B52260F4
:100EC00024BD25B5216025BDE1ECF0E0E491F0E022
:100ED000EE0FFF1FEC55FF4F259134913093BC036B
:100EE0002093BB03E3EAF0E0E491E093BA0348C047
:100EF0001092800010928100209181002860209340
:100F0000810020918100216020938100E1ECF0E0DC
:100F1000E491F0E0EE0FFF1FEC55FF4F2591349167
:100F20003093B9032093B803E3EAF0E0E491E0934F
:100F3000B70311E025C01092B0001092B1002091CB
:100F4000B00022602093B0002091B1002160209376
:100F5000B100E1ECF0E0E491F0E0EE0FFF1FEC55A2
:100F6000FF4F259134913093B6032093B503E3EA04
:100F7000F0E0E491E093B40312E002C017FD91C1E8
:100F8000EC0161E083E10E9420034E01A12CB12C11
:100F9000812F8D7F09F0B6C060E072E18AE790E0B2
:100FA000A50194010E945B0E29013A0169017A01B1
:100FB00021E0C21AD108E108F1088FEFC816D10468
:100FC000E104F10409F008F44BC060E472E48FE03E
:100FD00090E0A50194010E945B0E69017A0181E015
:100FE000C81AD108E108F108123001F52FEFC21636
:100FF000D104E104F10409F008F451C160E970ED95
:1010000083E090E0A50194010E945B0E69017A01E2
:1010100081E0C81AD108E108F1082FEFC216D10407
:10102000E104F10409F0C0F593E065C08FEFC81644
:10103000D104E104F104B1F0A8F068E478EE81E0B5
:1010400090E0A50194010E945B0E69017A0181E0A4
:10105000C81AD108E108F108112309F4C8C016C163
:1010600091E001C092E0112391F045C0D301C2018B
:101070002AE0B595A795979587952A95D1F76C01A4
:101080007D0121E0C21AD108E108F10895E085B59B
:10109000887F982B95BD65C068E478EE81E090E08C
:1010A000A50194010E945B0E69017A0181E0C81AD2
:1010B000D108E108F1082FEFC216D104E104F104D0
:1010C00009F008F492C064E274EF80E090E0A501BA
:1010D00094010E945B0E69017A0181E0C81AD1086F
:1010E000E108F1082FEFC216D104E104F10411F078
:1010F00008F09FC095E08091B100887F982B909375
:10110000B1002FC060E072E18AE790E0A501940190
:101110000E945B0E69017A0181E0C81AD108E108DA
:10112000F108C114D10421E0E206F10488F068E47A
:1011300078EE81E090E0A50194010E945B0E6901C8
:101140007A0181E0C81AD108E108F10893E001C0F2
:1011500091E0113031F480918100887F892B809358
:1011600081009E01220F331FA4EFB1E00E94160EF2
:1011700028EE33E040E050E00E94390E113099F043
:10118000123019F111118DC0C7BC2093C5033093E3
:10119000C6034093C7035093C80380916E008260DA
:1011A00080936E007EC0D0928900C0928800209308
:1011B000C1033093C2034093C3035093C40380918F
:1011C0006F00826080936F006CC0C092B300209368
:1011D000BD033093BE034093BF035093C00380917F
:1011E00070008260809370005CC094E084CF8FEFC9
:1011F000C816D104E104F104D1F0C8F062E17AE745
:1012000080E090E0A50194010E945B0E69017A01E3
:1012100081E0C81AD108E108F1082FEFC216D10405
:10122000E104F10411F008F021CF94E030CF93E015
:101230002ECF62E17AE780E090E0A50194010E9460
:101240005B0E69017A0181E0C81AD108E108F10852
:101250002FEFC216D104E104F104B1F0A8F0D301DC
:10126000C2015AE0B595A795979587955A95D1F7FC
:101270006C017D0121E0C21AD108E108F1081123B7
:1012800009F404CF97E037CF96E0EDCE8FEFC81684
:10129000D104E104F10409F060F694E0E4CE92E0B8
:1012A0002ACFDF91CF911F91FF90EF90DF90CF90E9
:1012B000BF90AF909F908F907F906F905F904F9076
:1012C00008951F920F920FB60F9211242F933F9300
:1012D0004F935F936F937F938F939F93AF93BF933E
:1012E000EF93FF938091BD039091BE03A091BF0344
:1012F000B091C003892B8A2B8B2B59F18091B403B9
:10130000E091B503F091B6039081892780838091A5
:10131000BD039091BE03A091BF03B091C003181606
:1013200019061A061B060CF03DC08091BD03909172
:10133000BE03A091BF03B091C0030197A109B109F9
:101340008093BD039093BE03A093BF03B093C003EB
:1013500029C080910101E2ECF0E0E4919FEF9093CD
:101360000101E130B9F098F0E230C9F490917000D9
:101370009D7F9093700091E09093B0009091B100A8
:10138000987F94609093B1001092B30008C01092BF
:101390006E0005C090916F009D7F90936F0060E09C
:1013A0000E948402FF91EF91BF91AF919F918F9125
:1013B0007F916F915F914F913F912F910F900FBE51
:1013C0000F901F901895CF93DF931F92CDB7DEB784
:1013D000789484B5826084BD84B5816084BD85B510
:1013E000826085BD85B5816085BD80916E0081601C
:1013F00080936E00109281008091810082608093C2
:1014000081008091810081608093810080918000C3
:101410008160809380008091B10084608093B100EE
:101420008091B00081608093B00080917A008460E8
:1014300080937A0080917A00826080937A00809114
:101440007A00816080937A0080917A00806880932E
:101450007A001092C10062E08CE993E00E943A06A3
:101460008CE993E00E942F040E94270780E592E018
:101470000E94D8060E94E10680E692E00E94D8060B
:10148000E091F702F091F80282E08083E091F302AC
:10149000F091F4021082E091F502F091F6028FECE7
:1014A00080831092FF02E091FB02F091FC0286E043
:1014B0008083E091F902F091FA028081806180835B
:1014C000E091F902F091FA02808188608083E091D6
:1014D000F902F091FA02808180688083E091F9023C
:1014E000F091FA0280818F7D808300E111E060E05D
:1014F000F80181918F010E942003F1E005311F075F
:10150000B1F761E08EE00E94200361E08FE00E946D
:10151000200361E080E10E94200361E083E10E94FA
:10152000200368EE73E080E090E00E94E2010E94F8
:101530003704A12CB12C5524539453E0452E0E941E
:101540001C022091E602222371F12091E502211173
:101550002AC02091E402211103C05092E50231C05B
:10156000C090E002D090E102E090E202F090E3024D
:101570003B014C016C187D088E089F0831E1631611
:1015800037E273068104910450F121502093E40264
:101590006093E0027093E1028093E2029093E30291
:1015A0000E9437041CC02091DF022223C1F0209149
:1015B000DE02211114C02091DD02211114C05092CD
:1015C000DE026091AC036E7F6093AC0368608CE9CF
:1015D00093E00E942C040E9437040E94CA0202E099
:1015E00010E090E069C0C090E002D090E102E0908D
:1015F000E202F090E3023B014C016C187D088E087A
:101600009F0831E1631637E273068104910438F3D1
:1016100021502093DD026093E0027093E1028093F9
:10162000E2029093E3020E94370409EC12E0E12CFD
:10163000F12C8091C80290E0E816F90684F6F801D2
:10164000219131918F018091DD0290E028173907B7
:101650001CF08E2D0E942405FFEFEF1AFF0AE9CF40
:10166000882321F099830E94940199812F2D30E0E5
:10167000220F331F2E583F4FF901A591B491EC91E1
:10168000EE2161E080E009F460E0262F382F622F20
:10169000F801E055FD4F22832130310519F1809189
:1016A000C202882351F10230110598F50150110949
:1016B0000D3F2FEF120791F1F801E05FFE4F2281FD
:1016C00030E0F901E458FF4F8491F901E057FF4FF2
:1016D000E490F901E255FF4FF490F110C1CF20E002
:1016E00030E0D5CFF801E555FD4F82818130B9F268
:1016F000F801E55FFE4F9281D2CF2091BF02211108
:10170000D2CF2091C5022111CECF2091C302211149
:10171000CACFF801E555FD4F6283C8CF9C3409F468
:101720005CC134F4933459F0943409F426C1CBC12C
:10173000923509F4A6C1953509F4E9C0C4C1909168
:1017400000019111E8C09091C7029923B1F0109265
:10175000C7028091C602813069F048F0823009F4F6
:101760007FC1833009F006C15092BA0203C1509282
:10177000C20200C18093BF02FDC0882329F080917E
:10178000C0028093C102F6C08091BF02882329F075
:101790008091BD028093BE02EDC08091C502882376
:1017A00029F08091BC028093C402E4C08091C302FE
:1017B0008823D9F08091BB02E82FF0E0EE0FFF1FE5
:1017C000E753FD4F2091B80230E03183208310921F
:1017D000B8028F5F8093BB029091C8028913CAC080
:1017E0001092C3025092B702C5C08091B7028823FD
:1017F00039F01092B7025092C7024092C602BAC0A6
:101800008091BA02882369F19091C102992321F154
:101810008091BE02882301F11092BA025092B60262
:101820009093E4028093DD025092E6020E941C0233
:101830006093E0027093E1028093E2029093E302EE
:101840006091AC03862F81608093AC0369608CE962
:1018500093E00E942C048EC01092BA025092B902FA
:1018600089C08091B902882329F01092B9021092A0
:10187000C602FFC08091B6028823F1F18091E50293
:10188000882309F477C01092B6025092B5025092A4
:10189000DF026091AC03862F81608093AC036960A6
:1018A0008CE993E00E942C040E941C026093E002E9
:1018B0007093E1028093E2029093E30289ECC82ED8
:1018C00082E0D82EE12CF12C8091C80290E0E8163D
:1018D000F9060CF04FC0F601219131916F01809112
:1018E000DD0290E0281739071CF08E2D0E94240598
:1018F000FFEFEF1AFF0AE8CF8091B5028823D1F1FC
:101900008091DE028823B1F1F501099533C09091F1
:101910000001992319F010920001ABC0882331F027
:101920008091C0028F3F31F18F5F32C08091BF0242
:10193000882331F08091BD028F3FE1F08F5F34C08A
:101940008091C502882331F08091BC028A3090F4E6
:101950008F5F36C08091C302882361F09091BE02F0
:10196000911101C09FEF8091B802891718F48F5F21
:101970008093B8020E943704A6C090910001911193
:10198000CACF882341F08091C002882399F3815007
:101990008093C002EFCF8091BF02882341F08091F5
:1019A000BD02882339F381508093BD02E3CF80913B
:1019B000C502882341F08091BC028823D9F281506E
:1019C0008093BC02D7CF8091C302882399F2809183
:1019D000B802882379F28150CBCF90910001911108
:1019E0009ACF9091C702992329F08091C60290E086
:1019F000039653C0882339F01092C2028091C1022D
:101A00008093C00236C08091BF02882339F01092C3
:101A1000BF028091BE028093BD022BC08091C5029F
:101A2000882339F01092C5028091C4028093BC02D1
:101A300020C08091C3028823B1F01092C30280912C
:101A4000C80290E0E9ECF2E020E030E02817390726
:101A50002CF4119211922F5F3F4FF8CF1092BB02DE
:101A60005092C50287CF8091BA02882329F0109244
:101A7000BA025092C7027ECF8091B9028111F5CE91
:101A800079CF80910001811146CF8091C7028823D0
:101A900049F08091C60290E0019683709927809367
:101AA000C60268CF8091C502882309F463CF809174
:101AB000C402882309F45ECF8093C8021092C50245
:101AC0005092C30257CF64E670E080E090E00E943D
:101AD000E2010E948A0133CDCF93DF93CCE9D3E0BA
:101AE0002697888199810E94290F83E0C438D807FE
:101AF000B9F7DF91CF910895E7EEF2E013821282F9
:101B000088EE93E0A0E0B0E084839583A683B7835A
:101B100089E191E09183808385EC90E095878487CB
:101B200084EC90E09787868780EC90E0918B808BA7
:101B300081EC90E0938B828B82EC90E0958B848B90
:101B400086EC90E0978B868B118E128E138E148EFE
:101B5000ECE9F3E0138212828BE291E091838083BF
:101B600087E084838FEF858386E0868385E08783A3
:101B700084E0808783E0818782E0828713861486F1
:101B800015861686178661E0CF010E943A066BE63D
:101B900072E084E893E00E94EE0569E772E08AE86B
:101BA00093E00E94EE0567E872E080E993E00E940E
:101BB000EE0565E972E086E993E00C94EE052F925C
:101BC0003F924F925F926F927F928F929F92AF92CD
:101BD000BF92CF92DF92EF92FF920F931F93CF931A
:101BE000DF93CDB7DEB7CA1BDB0B0FB6F894DEBFB1
:101BF0000FBECDBF09942A88398848885F846E84D7
:101C00007D848C849B84AA84B984C884DF80EE8020
:101C1000FD800C811B81AA81B981CE0FD11D0FB629
:101C2000F894DEBF0FBECDBFED010895A29FB001B5
:101C3000B39FC001A39F700D811D1124911DB29F00
:101C4000700D811D1124911D089597FB072E16F428
:101C5000009407D077FD09D00E947A0E07FC05D0CA
:101C60003EF4909581959F4F0895709561957F4FB3
:101C70000895A1E21A2EAA1BBB1BFD010DC0AA1FCD
:101C8000BB1FEE1FFF1FA217B307E407F50720F0E5
:101C9000A21BB30BE40BF50B661F771F881F991F60
:101CA0001A9469F760957095809590959B01AC01A9
:101CB000BD01CF010895052E97FB1EF400940E94EC
:101CC000720E57FD07D00E94390E07FC03D04EF468
:101CD0000C94720E50954095309521953F4F4F4F83
:101CE0005F4F089590958095709561957F4F8F4FC8
:101CF0009F4F0895AA1BBB1B51E107C0AA1FBB1F22
:101D0000A617B70710F0A61BB70B881F991F5A9587
:101D1000A9F780959095BC01CD010895EE0FFF1FA6
:101D20000590F491E02D0994CF93DF9382309105D3
:101D300010F482E090E0E091CB03F091CC0320E03E
:101D400030E0C0E0D0E0309711F140815181481778
:101D50005907C0F04817590761F482819381209791
:101D600019F09B838A832BC09093CC038093CB0381
:101D700026C02115310519F04217530718F49A01AE
:101D8000BE01DF01EF010280F381E02DDCCF2115E0
:101D9000310509F1281B390B2430310590F41296D6
:101DA0008D919C9113976115710521F0FB0193832F
:101DB000828304C09093CC038093CB03FD013296C1
:101DC00044C0FD01E20FF31F81939193225031092A
:101DD0002D933C933AC02091C9033091CA03232B21
:101DE00041F420910401309105013093CA032093FE
:101DF000C90320910201309103012115310541F4FD
:101E00002DB73EB74091060150910701241B350BB9
:101E1000E091C903F091CA03E217F307A0F42E1B67
:101E20003F0B2817390778F0AC014E5F5F4F24173E
:101E3000350748F04E0F5F1F5093CA034093C90304
:101E40008193919302C0E0E0F0E0CF01DF91CF9168
:101E500008950F931F93CF93DF93009709F48CC0DD
:101E6000FC013297138212820091CB031091CC03B4
:101E70000115110581F420813181820F931F20917A
:101E8000C9033091CA032817390779F5F093CA03BB
:101E9000E093C90371C0D80140E050E0AE17BF071E
:101EA00050F412962D913C911397AD0121153105F7
:101EB00009F1D901F3CF9D01DA01338322836081D7
:101EC0007181860F971F8217930769F4EC012881AF
:101ED0003981260F371F2E5F3F4F318320838A8140
:101EE0009B8193838283452B29F4F093CC03E09369
:101EF000CB0342C01396FC93EE931297ED014991E8
:101F000059919E01240F351FE217F30771F4808168
:101F10009181840F951F029611969C938E938281D6
:101F2000938113969C938E931297E0E0F0E0D80192
:101F300012968D919C911397009719F0F8018C01DE
:101F4000F6CF8D919C9198012E5F3F4F820F931F8A
:101F50002091C9033091CA032817390769F43097D3
:101F600029F41092CC031092CB0302C01382128288
:101F70001093CA030093C903DF91CF911F910F9172
:101F80000895A0E0B0E0E7ECFFE00C94E30DEC0175
:101F9000009721F4CB010E94940EB8C0FC01E60F1B
:101FA000F71F9C0122503109E217F30708F4ACC077
:101FB000D9010D911C91119706171707B0F0053044
:101FC000110508F49FC0C80104978617970708F405
:101FD00099C002501109061B170B019311936D93C1
:101FE0007C93CF010E94290F8DC05B01A01AB10A1A
:101FF0004C01800E911EA091CB03B091CC0340E028
:1020000050E0E12CF12C109709F44AC0A815B9054D
:10201000D1F56D907C901197630182E0C80ED11CC0
:10202000CA14DB0480F1A3014A195B096A0182E04A
:10203000C80ED11C1296BC9012971396AC91B5E0C5
:10204000CB16D10440F0B282A38351834083D901DF
:102050006D937C930AC00E5F1F4FC301800F911FC9
:10206000F90191838083EB2DFA2FE114F10431F013
:10207000D7011396FC93EE93129744C0F093CC03D0
:10208000E093CB033FC08D919C911197481759075E
:1020900008F4AC017D0112960D90BC91A02DB3CF38
:1020A0008091C9039091CA0388159905E1F44617F8
:1020B0005707C8F48091020190910301009741F401
:1020C0008DB79EB74091060150910701841B950B77
:1020D000E817F907C8F4F093CA03E093C903F901BC
:1020E000718360830FC0CB010E94940E7C01009726
:1020F00059F0A801BE010E949010CE010E94290F44
:10210000C70104C0CE0102C080E090E0CDB7DEB7C9
:10211000EEE00C94FF0D81E090E0F8940C94A01098
:10212000FB01DC0102C001900D9241505040D8F7F4
:102130000895FB01DC0101900D920020E1F7089564
:1021400010E0C3E6D0E004C0FE010E948E0E21968E
:0A215000C436D107C9F7F894FFCF99
:10215A0001FF0000CD0380000E0F10434C4455527E
:10216A0008090A0B0C0000000021018E00B9006862
:10217A0001EA00C800DC000000000026048E0029E5
:10218A000228024272657754696D65722076312E93
:10219A0030003E707265737320746F2073746172BD
:1021AA0074004D41494E204D454E55004D617368AE
:1021BA002074696D653A20004E65772074696D65F3
:1021CA003A202000426F696C2074696D653A2000DC
:1021DA004E6F206F6620686F7020616464733A00E6
:1021EA005365743A00204E65773A00486F70206153
:1021FA0064646974696F6E200061646465642E00AA
:10220A00507265737320746F207374617274006204
:10221A0072657720646179004E6F206D6173682F53
:10222A00626F696C0074696D65207365742E004D68
:10223A006173682074696D65206C6566743A002064
:10224A006D696E75746573004D617368696E672098
:10225A00697320646F6E6500507265737320666FD0
:10226A007220626F696C00426F696C2074696D65D7
:10227A00206C6566743A00426F696C206973206449
:10228A006F6E6500507265737320746F206578698C
:10229A007400486F70206164646974696F6E3A00F3
:1022AA00427265772074696D65722076312E30002E
:1022BA004C6F6164696E672E2E2E00536574206D13
:1022CA006173682074696D650053657420626F6973
:1022DA006C2074696D650053657420686F70207492
:1022EA00696D65730053746172742074696D6572E7
:0222FA000000E2
:00000001FF
