:100000000C9462000C948A000C948A000C948A0070
:100010000C948A000C948A000C948A000C948A0038
:100020000C948A000C948A000C948A000C948A0028
:100030000C948A000C948A000C948A000C948A0018
:100040000C943A050C948A000C9408050C94E20474
:100050000C948A000C948A000C948A000C948A00F8
:100060000C948A000C948A000000000024002700F1
:100070002A0000000000250028002B0000000000DE
:1000800023002600290004040404040404040202DA
:100090000202020203030303030301020408102007
:1000A0004080010204081020010204081020000012
:1000B0000008000201000003040700000000000027
:1000C0000000840511241FBECFEFD8E0DEBFCDBFF6
:1000D00011E0A0E0B1E0E2EBFFE002C005900D927C
:1000E000A83CB107D9F722E0A8ECB1E001C01D920D
:1000F000AD39B207E1F710E0C2E6D0E004C02197C5
:10010000FE010E94CC07C136D107C9F70E94CF0576
:100110000C94D7070C940000CF92DF92EF92FF92DD
:100120000F931F93CF93DF936C017A018B01C0E093
:10013000D0E0CE15DF0589F0D8016D918D01D60193
:10014000ED91FC910190F081E02DC6010995892B7C
:1001500011F47E0102C02196ECCFC701DF91CF914F
:100160001F910F91FF90EF90DF90CF900895FC01C9
:10017000538D448D252F30E0842F90E0821B930B0C
:10018000541710F0CF96089501970895FC01918DB2
:10019000828D981761F0828DDF01A80FB11D5D96E9
:1001A0008C91928D9F5F9F73928F90E008958FEF57
:1001B0009FEF0895FC01918D828D981731F0828D0B
:1001C000E80FF11D858D90E008958FEF9FEF089562
:1001D000FC01918D228D892F90E0805C9F4F821BC6
:1001E00091098F739927089588EE91E00E94E800A5
:1001F00021E0892B09F420E0822F0895FC01848DF1
:10020000DF01A80FB11DA35ABF4F2C91848D90E040
:1002100001968F739927848FA689B7892C93A0891B
:10022000B1898C9180648C93938D848D981306C0D2
:100230000288F389E02D80818F7D80830895EF927D
:10024000FF920F931F93CF93DF93EC0181E0888F90
:100250009B8D8C8D981305C0E889F989808185FD77
:1002600024C0F62E0B8D10E00F5F1F4F0F73112768
:10027000E02E8C8DE8120CC00FB607FCFACFE8898F
:10028000F989808185FFF5CFCE010E94FE00F1CF74
:100290008B8DFE01E80FF11DE35AFF4FF0820B8FAB
:1002A000EA89FB898081806207C0EE89FF896083CB
:1002B000E889F98980818064808381E090E0DF9122
:1002C000CF911F910F91FF90EF900895CF93DF93FF
:1002D000EC01888D8823C9F0EA89FB89808185FD3E
:1002E00005C0A889B9898C9186FD0FC00FB607FC9F
:1002F000F5CF808185FFF2CFA889B9898C9185FFE0
:10030000EDCFCE010E94FE00E7CFDF91CF9108959F
:1003100080E090E0892B29F00E94F40081110C9478
:1003200000000895833081F028F4813099F0823004
:10033000A1F008958730A9F08830B9F08430D1F465
:10034000809180008F7D03C0809180008F778093A3
:100350008000089584B58F7702C084B58F7D84BDF9
:1003600008958091B0008F7703C08091B0008F7D99
:100370008093B00008951F93CF93DF93282F30E030
:10038000F901E255FF4F8491F901E656FF4FD491F0
:10039000F901EA57FF4FC491CC23C9F0162F811100
:1003A0000E949201EC2FF0E0EE0FFF1FEE58FF4F7E
:1003B000A591B4918FB7F894111105C09C91ED2FC0
:1003C000E095E92302C0EC91ED2BEC938FBFDF9118
:1003D000CF911F910895CF93DF9390E0FC01E656F3
:1003E000FF4F2491FC01EA57FF4F8491882361F16C
:1003F00090E0880F991FFC01E859FF4FC591D491F7
:10040000FC01EE58FF4FA591B491611109C09FB74F
:10041000F8948881209582238883EC912E230BC049
:10042000623061F49FB7F8943881822F80958323DE
:100430008883EC912E2B2C939FBF06C08FB7F89426
:10044000E8812E2B28838FBFDF91CF9108953FB78E
:10045000F8948091C9019091CA01A091CB01B0910B
:10046000CC0126B5A89B05C02F3F19F00196A11D10
:10047000B11D3FBFBA2FA92F982F8827820F911D3A
:10048000A11DB11DBC01CD0142E0660F771F881F81
:10049000991F4A95D1F708958F929F92AF92BF927C
:1004A000CF92DF92EF92FF926B017C010E942702B4
:1004B0004B015C01C114D104E104F104F1F00E948C
:1004C0002702DC01CB0188199909AA09BB09883EDA
:1004D0009340A105B10570F321E0C21AD108E108EB
:1004E000F10888EE880E83E0981EA11CB11CC1148F
:1004F000D104E104F10419F7DDCFFF90EF90DF9014
:10050000CF90BF90AF909F908F900895CF93DF933F
:10051000EC0160E08E810E94BB0161E08E810E944F
:10052000BB0160E08E810E94BB018BE891E00197E6
:10053000F1F7DF91CF910895CF92DF92EF92FF9282
:100540000F931F93CF93DF937C016C0187E0C80E5C
:10055000D11CC0E0D0E0062F10E0B8010C2E02C084
:10056000759567950A94E2F76170F60181916F01C4
:100570000E94BB012196C430D10579F7C701DF91F4
:10058000CF911F910F91FF90EF90DF90CF900C943F
:100590008602CF92DF92EF92FF920F931F93CF9339
:1005A000DF93EC01F62E642F8C810E94BB018D81BC
:1005B0008F3F19F060E00E94BB018F850F2D10E086
:1005C00084FF25C06E0187E0C80ED11CE12CF12C00
:1005D000B8010E2C02C0759567950A94E2F7617018
:1005E000F60181916F010E94BB01FFEFEF1AFF0A34
:1005F00088E0E816F10461F7CE01DF91CF911F91F9
:100600000F91FF90EF90DF90CF900C948602B8018D
:1006100084E0759567958A95E1F7CE010E949C026A
:100620006F2DCE01DF91CF911F910F91FF90EF9031
:10063000DF90CF900C949C0241E00E94C90281E0BF
:1006400090E0089540E00C94C902E0919802E230F5
:1006500010F4E15001C0E1E0F0E0EB57FD4F648998
:10066000606885E892E00C94220361E00E94220316
:100670008BE39FE10197F1F70895EF92FF920F93BB
:100680001F93CF93DF93EC01623018F08F85886061
:100690008F876B8B1C8A80E48D8B80E18E8B80E54D
:1006A0008F8B61E08C810E94EB018D818F3F19F06F
:1006B00061E00E94EB0161E08E810E94EB017E010E
:1006C00087E0E80EF11C00E010E08F8584FD03C098
:1006D00084E090E002C088E090E0081719074CF42D
:1006E00061E0F70181917F010E94EB010F5F1F4FD5
:1006F000ECCF8BE39DE00197F1F760E08C810E94E5
:10070000BB0160E08E810E94BB018D818F3F19F09B
:1007100060E00E94BB016F8564FD1DC063E0CE01F7
:100720000E949C020BE416E4C8010197F1F763E014
:10073000CE010E949C02C8010197F1F763E0CE014F
:100740000E949C0283E592E00197F1F762E0CE01FE
:100750000E949C0216C06062CE010E9422038BE4BC
:1007600096E40197F1F76F856062CE010E94220343
:1007700083E592E00197F1F76F856062CE010E94F8
:1007800022036F856062CE010E94220384E0888B81
:100790006CE0CE010E942203CE010E94350382E06C
:1007A000898B66E0CE01DF91CF911F910F91FF9071
:1007B000EF900C942203089580E090E008950E9449
:1007C000D2076115710579F0FB0101900020E9F76E
:1007D0003197AF01461B570BDC01ED91FC91028074
:1007E000F381E02D099480E090E00895BC0185E854
:1007F00092E00C94E1038F929F92AF92BF920F937D
:100800001F93CF93DF93CDB7DEB7A1970FB6F894C0
:10081000DEBF0FBECDBF19A2423008F44AE08E0100
:100820000F5D1F4F842E912CA12CB12CA50194019A
:100830000E94AA07E62FB901CA0101501109EA3046
:1008400014F4E05D01C0E95CD801EC93232B242B68
:10085000252B61F7B80185E892E00E94E103A1969B
:100860000FB6F894DEBF0FBECDBFDF91CF911F91C1
:100870000F91BF90AF909F908F900895CF93DF938B
:10088000E091E801F091E9010190F081E02D682FFD
:1008900088EE91E00995EC0169E271E088EE91E063
:1008A0000E94E1038C0F9D1FDF91CF91089585E891
:1008B00092E00E94350362E085E892E00E94220304
:1008C0008BE39FE10197F1F7809100018823A1F06C
:1008D0008CE291E00E94F6030E9425038091E001E2
:1008E000882319F0813021F0089586E391E002C059
:1008F00080E491E00C94F6038091DF018823D1F02D
:100900008CE491E00E94F6036091DE0170E080E0EB
:1009100090E04AE00E94FB030E94250388E591E0F5
:100920000E94F6036091DD0170E080E090E04AE013
:100930000C94FB038091DC018823A9F084E691E00C
:100940000E94F6030E94250385E791E00E94F603CA
:100950006091DE0170E080E090E04AE00E94FB03DD
:1009600080E891E0C7CF8091DB01882351F180912D
:10097000E501811111C083E891E00E94F6030E9415
:1009800025036091E60170E080E090E04AE00E947B
:10099000FB0383E991E0AECF8CE991E00E94F6037E
:1009A00061E08EE00E94BB0168E873E180E090E0C6
:1009B0000E944C0260E08EE00E94BB01E0E0F0E0AB
:1009C000099408951F920F920FB60F9211242F933E
:1009D0003F934F935F936F937F938F939F93AF93C7
:1009E000BF93EF93FF9388EE91E00E94FE00FF918A
:1009F000EF91BF91AF919F918F917F916F915F9197
:100A00004F913F912F910F900FBE0F901F9018950F
:100A10001F920F920FB60F9211242F938F939F93D3
:100A2000EF93FF93E091F801F091F9018081E0915B
:100A3000FE01F091FF0182FD12C0908180910102C0
:100A40008F5F8F7320910202821751F0E0910102B3
:100A5000F0E0E851FE4F958F8093010201C0808144
:100A6000FF91EF919F918F912F910F900FBE0F905B
:100A70001F9018951F920F920FB60F9211242F936B
:100A80003F938F939F93AF93BF938091D7019091A2
:100A9000D801A091D901B091DA013091C80123E0C9
:100AA000230F2D3720F40196A11DB11D05C026E8A6
:100AB000230F0296A11DB11D2093C8018093D70179
:100AC0009093D801A093D901B093DA018091C90124
:100AD0009091CA01A091CB01B091CC010196A11DCA
:100AE000B11D8093C9019093CA01A093CB01B0932B
:100AF000CC01BF91AF919F918F913F912F910F901A
:100B00000FBE0F901F901895E8EEF1E0138212824D
:100B100088EE93E0A0E0B0E084839583A683B7835A
:100B20008FE091E09183808385EC90E095878487C6
:100B300084EC90E09787868780EC90E0918B808BA7
:100B400081EC90E0938B828B82EC90E0958B848B90
:100B500086EC90E0978B868B118E128E138E148EFE
:100B6000E5E8F2E01382128281E291E091838083D2
:100B700087E084838FEF858386E0868385E08783A3
:100B800084E0808783E0818782E0828713861486F1
:100B900015861686178661E0CF010C943D03CF932E
:100BA000DF931F92CDB7DEB7789484B5826084BDA1
:100BB00084B5816084BD85B5826085BD85B5816061
:100BC00085BD80916E00816080936E0010928100DF
:100BD000809181008260809381008091810081609A
:100BE000809381008091800081608093800080915B
:100BF000B10084608093B1008091B00081608093E7
:100C0000B00080917A00846080937A0080917A00AD
:100C1000826080937A0080917A00816080937A006C
:100C200080917A00806880937A001092C10062E01F
:100C300085E892E00E943D0385E892E00E9435033A
:100C400062E085E892E00E9422038BE39FE1019736
:100C5000F1F78DEA91E00E94F6030E9425038DEBE7
:100C600091E00E94F603E091F801F091F90182E031
:100C70008083E091F401F091F5011082E091F6019A
:100C8000F091F7018FEC808310920002E091FC015B
:100C9000F091FD0186E08083E091FA01F091FB0183
:100CA000808180618083E091FA01F091FB01808175
:100CB00088608083E091FA01F091FB018081806877
:100CC0008083E091FA01F091FB0180818F7D808328
:100CD00006E011E060E0F80181918F010E94EB01D4
:100CE000F1E00B301F07B1F761E08EE00E94EB01ED
:100CF00064EF71E080E090E00E944C020E94570493
:100D0000BB24B3948FB7F8944091D7015091D80188
:100D10006091D9017091DA018FBF8091E70188233A
:100D200049F18091E601811103C0B092E50120C034
:100D30000091E1011091E2012091E3013091E40181
:100D40006A017B01C01AD10AE20AF30A99EEC916B8
:100D500093E0D906E104F10468F081508093E60144
:100D60004093E1015093E2016093E3017093E40149
:100D70000E94570402E010E090E0F801EA5FFE4FA5
:100D8000228130E0F901E255FF4F8491F901E656E6
:100D9000FF4FF490F901EA57FF4FE490EE20B9F0CD
:100DA000882321F099830E9492019981EE2DF0E031
:100DB000EE0FFF1FE458FF4FA591B491EC91EF2186
:100DC00041E080E009F440E0242F382F02C020E009
:100DD00030E0822FF801EE52FE4F228321303105A0
:100DE00051F4F801E353FE4F2281213021F0F80144
:100DF000EF5FFE4F92812091DF01222319F0023034
:100E0000110520F0F801E353FE4F828301501109D0
:100E10000D3FEFEF1E0709F0B0CF9C3409F46DC011
:100E200034F4933459F0943409F45AC08AC092359A
:100E300009F477C0953509F442C083C083E40E9469
:100E40003E0480910001882379F010920001809186
:100E5000E001882331F0813009F03FC08093DC014C
:100E60003CC0B092DF0139C08091DF01882329F0B6
:100E70008091DD018093DE0130C08091DC01882308
:100E800061F11092DC01B092DB01B092E701809138
:100E9000DE018093E6012FB7F8948091D7019091FD
:100EA000D801A091D901B091DA012FBF8093E1015F
:100EB0009093E201A093E301B093E4010EC085E5B5
:100EC0000E943E048091DF01882339F08091DD018A
:100ED0008F3F19F08F5F8093DD010E94570431C06E
:100EE00084E40E943E048091DF018823B1F3809165
:100EF000DD01882391F38150EECF8CE40E943E0403
:100F000080910001811114C08091DF01882329F3B1
:100F10001092DF018091DE018093DD01B09200012B
:100F2000DCCF82E50E943E04809100018823A9F273
:100F30008091E00190E00196817099278093E00113
:100F4000CCCF64E670E080E090E00E944C020E940A
:100F50008801D8CEA1E21A2EAA1BBB1BFD010DC031
:100F6000AA1FBB1FEE1FFF1FA217B307E407F50759
:100F700020F0A21BB30BE40BF50B661F771F881F35
:100F8000991F1A9469F760957095809590959B01CB
:100F9000AC01BD01CF010895EE0FFF1F0590F49144
:100FA000E02D099481E090E0F8940C94D707F89430
:020FB000FFCF71
:100FB20001434C44555208090A0B0C000000001F63
:100FC200018C00B7006601E800C600DA00000000EC
:100FD200001C038C00DC03DB030D0A004D41494E6B
:100FE200204D454E55005365742074696D6572003D
:100FF20053746172742074696D6572005365742054
:1010020076616C75653A20004E65772076616C7565
:10101200653A20005072657373204320746F207309
:10102200746172740074696D657220666F7220005B
:1010320020730052656D61696E696E672074696D17
:10104200653A00207365636F6E64730054696D6561
:10105200722068617320656E6465642E0042726559
:10106200772074696D65722076302E31004C6F6185
:0810720064696E672E2E2E004A
:107E0000112484B714BE81FFF0D085E080938100F7
:107E100082E08093C00088E18093C10086E0809377
:107E2000C20080E18093C4008EE0C9D0259A86E02C
:107E300020E33CEF91E0309385002093840096BBD3
:107E4000B09BFECF1D9AA8958150A9F7CC24DD24C4
:107E500088248394B5E0AB2EA1E19A2EF3E0BF2EE7
:107E6000A2D0813461F49FD0082FAFD0023811F036
:107E7000013811F484E001C083E08DD089C08234E0
:107E800011F484E103C0853419F485E0A6D080C0E4
:107E9000853579F488D0E82EFF2485D0082F10E0AE
:107EA000102F00270E291F29000F111F8ED06801E7
:107EB0006FC0863521F484E090D080E0DECF843638
:107EC00009F040C070D06FD0082F6DD080E0C81688
:107ED00080E7D80618F4F601B7BEE895C0E0D1E017
:107EE00062D089930C17E1F7F0E0CF16F0E7DF06D8
:107EF00018F0F601B7BEE89568D007B600FCFDCFD4
:107F0000A601A0E0B1E02C9130E011968C91119780
:107F100090E0982F8827822B932B1296FA010C0160
:107F200087BEE89511244E5F5F4FF1E0A038BF0790
:107F300051F7F601A7BEE89507B600FCFDCF97BE46
:107F4000E89526C08437B1F42ED02DD0F82E2BD052
:107F50003CD0F601EF2C8F010F5F1F4F84911BD097
:107F6000EA94F801C1F70894C11CD11CFA94CF0C13
:107F7000D11C0EC0853739F428D08EE10CD085E9AC
:107F80000AD08FE07ACF813511F488E018D01DD067
:107F900080E101D065CF982F8091C00085FFFCCF94
:107FA0009093C60008958091C00087FFFCCF809118
:107FB000C00084FD01C0A8958091C6000895E0E648
:107FC000F0E098E1908380830895EDDF803219F02E
:107FD00088E0F5DFFFCF84E1DECF1F93182FE3DFCA
:107FE0001150E9F7F2DF1F91089580E0E8DFEE27F6
:047FF000FF270994CA
:027FFE00040479
:0400000300007E007B
:00000001FF